:020000040800F2
:1000000050070020910100089D0D000849090008D3
:10001000990D0008B5060008AD19000800000000A1
:10002000000000000000000000000000651500084E
:10003000B906000800000000AD0D000851160008C8
:10004000AB010008AB010008AB010008AB010008E0
:10005000AB010008AB010008AB010008AB010008D0
:10006000AB010008AB010008AB010008AB010008C0
:10007000AB010008AB010008AB010008AB010008B0
:10008000AB010008AB010008AB010008AB010008A0
:10009000AB010008AB010008AB010008AB01000890
:1000A000AB010008AB010008AB010008AB01000880
:1000B000AB010008AB010008AB010008AB01000870
:1000C000AB010008AB010008AB010008AB01000860
:1000D000AB010008F5180008AB010008AB010008EF
:1000E000AB010008AB010008AB01000800F002F80A
:1000F00000F03FF80AA090E8000C82448344AAF183
:100100000107DA4501D100F034F8AFF2090EBAE880
:100110000F0013F0010F18BFFB1A43F0010318473B
:10012000503A0000703A0000103A24BF78C878C1F5
:10013000FAD8520724BF30C830C144BF04680C60ED
:10014000704700000023002400250026103A28BF35
:1001500078C1FBD8520728BF30C148BF0B60704739
:10016000632900F00781002070471FB51FBD10B53F
:1001700010BD00F039F91146FFF7F7FF01F04EFC12
:1001800000F057F903B4FFF7F2FF03BC01F010FCD5
:100190000948804709480047FEE7FEE7FEE7FEE71B
:1001A000FEE7FEE7FEE7FEE7FEE7FEE70448054957
:1001B000054A064B7047000055160008ED00000880
:1001C0005001002050070020500300205003002061
:1001D000704700000FB4044910B503AA029800F05C
:1001E000D5F810BC5DF814FB0C0000202DE9F0419F
:1001F0000E460446002020622046E168884730B35E
:10020000252805D0D4E901219047206A401CF2E757
:10021000E168204600278847050018D0A5F1410075
:10022000192802D820354FF4006732462946204667
:100230002760FFF795FF40B1012804D0F61D26F096
:1002400007060836D8E7361DD6E72846DAE7206ADB
:10025000BDE8F08170B50C460546012A05D0287826
:10026000800600D5EA69002302E0012305E05B1C5B
:10027000934202D2E05C0028F9D1A869E618C01ABE
:10028000A861286A184428622846AFF3008004E079
:10029000D5E9012114F8010B9047B442F8D3284660
:1002A000AFF3008070BD10B5203AC0F00B80B1E80C
:1002B0001850203AA0E81850B1E81850A0E818509B
:1002C000BFF4F5AF5FEA027C24BFB1E81850A0E8A4
:1002D000185044BF18C918C0BDE810405FEA827CBE
:1002E00024BF51F8043B40F8043B08BF7047D207D5
:1002F00028BF31F8023B48BF11F8012B28BF20F876
:10030000023B48BF00F8012B70474FF0000200B5D8
:10031000134694469646203922BFA0E80C50A0E828
:100320000C50B1F12001BFF4F7AF090728BFA0E8D6
:100330000C5048BF0CC05DF804EB890028BF40F8A2
:10034000042B08BF704748BF20F8022B11F0804FE4
:1003500018BF00F8012B704770477047704770470F
:1003600010B5436913B1AFF3008001E0FFF772FFEE
:10037000012010BD127800F124010A7000224A7099
:100380000122EDE711684FF0FF32E9E7074B70B546
:100390000D467B4400F011F80446284600F020F892
:1003A00010B14FF0FF3070BD204670BD6B160000DD
:1003B00001694A1C02610878704700B58FB0CDE929
:1003C00001310021059105497944CDE90310114619
:1003D0006846FFF70BFF0FB000BD0000E5FFFFFF11
:1003E000007B00F080007047754600F02BF8AE46A9
:1003F00005006946534620F00700854618B020B531
:10040000FFF7D4FEBDE820404FF000064FF0000794
:100410004FF000084FF0000B21F00701AC46ACE8AC
:10042000C009ACE8C009ACE8C009ACE8C0098D4619
:10043000704710B50446AFF300802046BDE8104079
:10044000FFF7A0BE00487047F000002070B50546D9
:100450000024002600F0C0F9352000F02FF90F48E5
:1004600000F032F900BF13E06000401C295C15F871
:10047000140001EB002086B20849022202FB04109E
:10048000314600F079F9352000F018F9601CC4B24B
:100490000A2CE9DB00F058F970BD000000F00108FB
:1004A00010B5012000F0A4FC002000F0A1FC10BD5C
:1004B00008B50146002000900348009000980844C9
:1004C00000900098008808BD006C004008B500222C
:1004D0000092044A0092009A02440092009A11602D
:1004E00008BD0000006C004010B5002413E000229D
:1004F00020210A4800F023FA4FF4FA7001F068FA5C
:1005000001222021054800F01AFA4FF4FA7001F098
:100510005FFA601C84B2C82CE9DB10BD000C0140FE
:1005200010B5002413E0002220210B4800F007FA48
:100530004FF4487001F04CFA01222021064800F0E7
:10054000FEF94FF4487001F043FA601C84B2B4F530
:10055000C87FE8DB10BD0000000C014010B500248E
:1005600011E000222021204800F0E9F9C82001F024
:100570002FFA012220211C4800F0E1F9C82001F0E7
:1005800027FA601C84B2962CEBDB002413E00022D7
:100590002021154800F0D3F94FF4967001F018FAB5
:1005A00001222021104800F0CAF94FF4967001F0A2
:1005B0000FFA601C84B2642CE9DB002411E00022F5
:1005C0002021094800F0BBF9642001F001FA012262
:1005D0002021054800F0B3F9642001F0F9F9601C0E
:1005E00084B2FA2CEBDB10BD000C014010B50024E6
:1005F00011E000222021214800F0A1F9C82001F0DB
:10060000E7F9012220211D4800F099F9C82001F0E6
:10061000DFF9601C84B2B4F5E17FEADB002413E06B
:1006200000222021154800F08AF94FF4C87001F02B
:10063000CFF901222021114800F081F94FF4C87050
:1006400001F0C6F9601C84B2FA2CE9DB002411E049
:1006500000222021094800F072F9642001F0B8F965
:1006600001222021054800F06AF9642001F0B0F968
:10067000601C84B2B4F5E17FEADB10BD000C0140E0
:1006800008B50121082000F0A3FB10208DF803001D
:100690002020ADF8000003208DF8020069460448D0
:1006A00000F0B9F801222021014800F048F908BD06
:1006B000000C014000BFFEE7704700000149C86020
:1006C000704700000020024030B5044604254FF476
:1006D000302000F08DF80546042D17D10C48006934
:1006E00040F002000A49086108464461006940F090
:1006F000400008614FF4302000F07AF805460448C5
:10070000006941F6FD71084001490861284630BD85
:100710000020024004200B49C96801F0010109B121
:1007200001200EE00749C96801F0040109B1022067
:1007300007E00449C96801F0100109B1032000E095
:1007400004207047002002400348006940F0800008
:10075000014908617047000000200240054909680E
:1007600021F01001034A116011460968014311602C
:10077000704700000020024070B504460D46042674
:10078000F00200F035F80646042E11D10948006940
:1007900040F00100074908612580F00200F028F8C8
:1007A00006460448006941F6FE71084001490861A7
:1007B000304670BD002002400146088870470000A6
:1007C00001460020034A106800F03800084310601A
:1007D0007047000000200240024803494860034877
:1007E000486070472301674500200240AB89EFCD88
:1007F00000B502460423FFF78DFF034603E0FFF731
:1008000089FF0346521E012B01D1002AF7D102B9FC
:100810000523184600BD2DE9F041024600250026BB
:10082000002000230024002791F803C00CF00F05DE
:1008300091F803C00CF0100CBCF1000F03D091F83C
:1008400002C04CEA050591F800C0BCF1000F31D0A0
:10085000146800202BE04FF0010C0CFA00F3B1F803
:1008600000C00CEA03069E4220D183004FF00F0C1B
:100870000CFA03F7BC4305FA03FC4CEA040491F8B4
:1008800003C0BCF1280F06D14FF0010C0CFA00FC9C
:10089000C2F814C00AE091F803C0BCF1480F05D1BA
:1008A0004FF0010C0CFA00FCC2F810C0401C0828E4
:1008B000D1D31460B1F800C0BCF1FF0F34DD54682F
:1008C00000202EE000F1080C4FF0010808FA0CF3AC
:1008D000B1F800C00CEA03069E4221D183004FF01C
:1008E0000F0C0CFA03F7BC4305FA03FC4CEA0404B2
:1008F00091F803C0BCF1280F05D100F1080C08FAEB
:100900000CF8C2F8148091F803C0BCF1480F07D16D
:1009100000F1080C4FF0010808FA0CF8C2F810803A
:10092000401C0828CED35460BDE8F0810246002068
:1009300093680B400BB1012000E0002070470AB122
:10094000016100E04161704700BFFEE721B102880C
:1009500042F48062028004E002884FF6FF331A40BE
:100960000280704770B50246002400250023002055
:10097000958A138B1B0445EA030626F07F4404EA9C
:1009800001068E4201D1012000E0002070BD21B19E
:10099000028842F00102028004E002884FF6FE73F2
:1009A0001A400280704700001FB500F021F80020B7
:1009B000ADF804004BF6FF70ADF80600C020ADF8AE
:1009C00008004FF48060ADF80A000001ADF80C009B
:1009D000054800906946054800F05AF8012103488F
:1009E000FFF7D5FF1FBD0000400D0300005400407D
:1009F00008B50121082000F0EBF90121480500F0BD
:100A0000D7F9C020ADF800001C208DF803000320AA
:100A10008DF8020069460248FFF7FDFE08BD0000A0
:100A2000000C014021B1028842F48072028004E08F
:100A300002884FF6FF631A400280704721B1028896
:100A400042F40072028004E002884FF6FF531A401D
:100A5000028070470CB502460020002301930093EA
:100A600000920B0F019321F07F41019B1BB1009B72
:100A70001433009303E0090C009B18330093009B90
:100A80001B680B400BB1012000E000200CBD0000F2
:100A90002DE9F04385B004460D460026B1460427F3
:100AA000DFF8CC80A6884FF6C0700640684600F09C
:100AB00007FADDF808802F48B8FBF0F01FFA80F93C
:100AC00046EA0906A68020884FF6FE71084020807D
:100AD00000262949286888420CD828684000B8FBBD
:100AE000F0F087B2042F00DA04273E4309F1010039
:100AF000208427E0E8884BF6FF71884206D12868F9
:100B000000EB4000B8FBF0F087B209E0286800EB8A
:100B1000C00101EB0010B8FBF0F087B247F480474A
:100B2000C7F30B0008B947F0010747F4004006433C
:100B30004FF4967009FB00F04FF47A7190FBF1F0DE
:100B4000401C2084A683208840F001002080268855
:100B50004FF6F5300640A888698908430643268089
:100B6000A88929890843208105B0BDE8F0830000E9
:100B700000127A0040420F00A08601002DE9F041EA
:100B800006460F4615461C4600BF4FF4003132485A
:100B9000FFF760FF0028F8D101212F48FFF742FF3F
:100BA00000BF2E492C48FFF7DDFE0028F9D00022B7
:100BB0003146294800F05AF800BF29492648FFF776
:100BC000D1FE0028F9D001212348FFF7E0FE394685
:100BD000214800F054F800BF2149891C1E48FFF746
:100BE000C1FE0028F8D001211B48FFF71BFF00BF02
:100BF0001A491948FFF7B6FE0028F9D001223146FC
:100C0000154800F033F800BF1449491C1248FFF79B
:100C1000A9FE0028F8D016E0012C07D100210E48CB
:100C2000FFF794FE01210C48FFF708FF0B493F3105
:100C30000948FFF797FE30B1074800F013F8287015
:100C40006D1C601E84B2002CE6D101210248FFF722
:100C50007DFEBDE8F081000000540040010003006B
:100C6000820007000146088AC0B2704712B141F005
:100C7000010102E04FF6FE731940018270470182C4
:100C800070470146CA1701EB92729210A1EB8202E3
:100C900092B9642091FBF0F200FB121050B94FF4AE
:100CA000C87091FBF0F200FB121008B901207047E8
:100CB0000020FCE70120FAE70020F8E708B5012151
:100CC000082000F085F80320ADF8000010208DF812
:100CD000030001208DF8020069460248FFF79BFDE2
:100CE00008BD0000000C0140F8B5064600240025B0
:100CF00002236A4600219E20FFF740FF9DF8004036
:100D00000020307004F0800028B101203070E043F2
:100D1000C4B2601CC4B204F0010008B1681CC5B2C2
:100D200004F0020008B1A81CC5B204F0040008B128
:100D3000281DC5B204F0080010B105F10800C5B2C5
:100D400004F0100010B105F11000C5B204F020004D
:100D500010B105F12000C5B204F0400010B105F15A
:100D60004000C5B2761C357000259DF8014004F0A6
:100D7000200010B105F10C00C5B204F0400010B124
:100D800005F11900C5B204F0800010B105F1320080
:100D9000C5B2761C3570F8BD00BFFEE77047000095
:100DA000014908627047000000000E4270470000D1
:100DB00029B1064AD2690243044BDA6104E0034ACE
:100DC000D2698243014BDA61704700000010024093
:100DD00029B1064A92690243044B9A6104E0034A2E
:100DE00092698243014B9A617047000000100240F3
:100DF0000149086070470000400442420348406ACD
:100E000040F08070014948627047000000100240C5
:100E100010B500F02FF84FF4803000F0EDF800F03E
:100E200071F90446012C24D14FF4E011000400F0C4
:100E300041F9002000F0D4F8A00200F01DF90020D4
:100E400000F026F90220FFF7BBFC1020FFF786FC1C
:100E5000012000F029F900BF392000F09BF800289C
:100E6000FAD0022000F042F900BF00F0B1F80828E3
:100E7000FBD110BD0F48006840F001000D4908602B
:100E8000084640680C4908400A494860084600681E
:100E90000A490840074908600846006820F4802095
:100EA00008600846406820F4FE0048604FF41F00C8
:100EB00088607047001002400000FFF8FFFFF6FE58
:100EC00030B500210022002400232D4D6D6805F06F
:100ED0000C0121B1042905D0082923D105E0294DB1
:100EE000056022E0274D05601FE0254D6D6805F483
:100EF0007012234D6D6805F48034022505EB924293
:100F00001CB9214D554305600BE01D4D6D6805F47E
:100F100000351DB11C4D5543056002E0194D554388
:100F2000056002E0174D056000BF00BF144D6D68FD
:100F300005F0F0010909154D6B5C0568DD40456061
:100F40000F4D6D6805F4E061090A104D6B5C456852
:100F5000DD4085600A4D6D6805F46051C90A0B4D8E
:100F60006B5C4568DD40C560054D6D6805F440412A
:100F7000890B074D6B5CC568B5FBF3F5056130BDAA
:100F80000010024000127A0000093D00130000200A
:100F90002300002010B501460022002300204A1142
:100FA000012A02D1094C236806E0022A02D1074C2B
:100FB000236A01E0054C636A01F01F02012494409A
:100FC0001C400CB1012000E0002010BD00100240C8
:100FD0000248406800F00C0070470000001002401A
:100FE00001460020034A506820F0F000084350609A
:100FF00070470000001002401149096821F4803157
:101000000F4A11601146096821F480211160B0F582
:10101000803F03D0B0F5802F0ED106E00849096863
:1010200041F48031064A116007E00549096841F43E
:10103000A021034A116000E000BF00BF704700001C
:101040000010024000210B4A11700A4A203A82F82F
:101050002010012802D0042808D103E00121054A0C
:10106000117004E00521034A117000E000BF00BFC9
:10107000704700002010024001460020034A5068DB
:1010800020F4E06008435060704700000010024008
:1010900001460020034A506820F4605040EAC10035
:1010A0005060704700100240014908667047000018
:1010B0000000424202460020044B586820F47C1095
:1010C00042EA01031843014B586070470010024088
:1010D00001490860704700003C0442420249096A25
:1010E0000143014A1162704700100240014600208E
:1010F000034A506820F00300084350607047000026
:101100000010024038B5002000900024002500BFE8
:101110003120FFF73FFF05460098401C00900098E3
:10112000B0F5A06F01D0002DF2D03120FFF732FFD3
:1011300008B1012400E00024204638BD10B5042089
:10114000FFF7B6F94AF2A551884207D000F02AF815
:101150004AF2A5510420FFF7B9F90DE07B20FFF713
:1011600019FF10B97A20FFF715FFFFF747FE01209E
:10117000FFF7AEFF00F060F910BD000003480088E3
:1011800040F010000149088070470000042800402A
:10119000034800884FF6EF71084001490880704706
:1011A0000428004010B501214FF0C050FFF700FEA9
:1011B0000120FFF7F5FDFFF773F90120FFF742FF6C
:1011C00000BF4120FFF7E6FE0028FAD04FF4807000
:1011D000FFF784FF0120FFF77BFF00F02DF900F0FF
:1011E00021F947F6FF7000F00DF900F01BF910BD72
:1011F00070B500260024002500F08AF806463A481B
:10120000B6FBF0F439480088A0423DD037490C8045
:1012100040F2B27510E02846FFF733FD40B1B4F557
:10122000B77F02D3A4F5B77404E0681C85B206E06A
:10123000A4F26D14681C85B2B4F5B67FEBD800BF7C
:101240002B480580002516E029480088FFF719FD86
:1012500030B1012D04D11D2C01D31D3C09E00CE05F
:101260002448405DA04203D82248405D241A00E093
:1012700003E0681C85B21C2CE6D200BF681C1E4926
:101280000870601C1D4908701748B6FBF0F100FBA0
:1012900011644FF46160B4FBF0F0194908704FF429
:1012A0006160B4FBF0F100FB11403C21B0FBF1F0B8
:1012B000144908704FF46160B4FBF0F100FB114079
:1012C0003C21B0FBF1F201FB12000F4908700B4802
:1012D0000278094801780648008800F0BFF80B49F9
:1012E0000870002070BD000080510100080000203F
:1012F00000000020643B00080200002003000020E2
:101300000400002005000020060000200700002047
:10131000002103480188001F008841EA004070470F
:101320001C2800402DE9F05F06460F46904699467E
:10133000DDE90AAB0024B6F5FA6F03DB40F63300B3
:10134000864202DD0120BDE8F09F40F2B2750AE05E
:101350002846FFF796FC10B11F48044401E01F48DF
:101360000444681C85B2B542F2DB781EC7B2002582
:1013700010E01B48405D40F2A321484304EBC01439
:101380003046FFF77EFC18B1012D01D11548044409
:10139000681C85B2BD42ECDBA8F1010040F2A3213C
:1013A000484304EBC014C9EB4910C0EB092004EB1F
:1013B0000014CAEB0A1004EB80045C44FFF7F2FE51
:1013C0004AF2A5510420FFF781F8204600F00CF8FE
:1013D00000F028F80020B6E70085E2018033E10143
:1013E000643B00088051010000B50246FFF7C6FECD
:1013F000100C03490880091D0A80FFF7C9FE00BDD3
:101400001828004000B50246FFF7B8FEC2F30340BB
:1014100003490880091D0A80FFF7BAFE00BD0000DD
:101420000828004000BF0348008800F02000002882
:10143000F9D0704704280040074800884FF6F7713C
:1014400008400549088000BF0348008800F00800F4
:101450000028F9D0704700000428004070B503460A
:101460001446012901DB0C2901DDFF2070BD012993
:1014700001D0022904D101F10C00C1B2581E83B27F
:10148000481C00EB4000052590FBF5F0022505FB0C
:101490000145284418441A46DD1703EB957500EB07
:1014A000A500642593FBF5F5401B4FF4C87593FB2D
:1014B000F5F52844401C072590FBF5F605FB1600C2
:1014C000C01D90FBF5F605FB1600C0B2CEE700008C
:1014D00010B501212148FFF729FA58B90020204909
:1014E0000870FFF701F800BF01211C48FFF71EFA42
:1014F0000028F9D002211948FFF718FA58B901203D
:1015000017490870FEF7F0FF00BF02211348FFF7EC
:101510000DFA0028F9D004211048FFF707FA58B94E
:1015200002200F490870FEF7DFFF00BF04210B48BF
:10153000FFF7FCF90028F9D008210848FFF7F6F971
:1015400058B9032006490870FEF7CEFF00BF0821F6
:101550000248FFF7EBF90028F9D010BD0008014060
:1015600012000020704710B500F002F810BD000016
:101570000CB50020019000903348006840F48030A2
:101580003149086000BF3048006800F40030009026
:101590000198401C0190009818B90198B0F5A06F0F
:1015A000F1D12948006800F4003010B1012000900A
:1015B00001E0002000900098012843D123480068F2
:1015C00040F01000214908600846006820F0030040
:1015D00008600846006840F0020008601A48406849
:1015E000194948600846406848600846406840F429
:1015F000806048600846406820F47C1048600846D7
:10160000406840F4E81048600846006840F0807088
:10161000086000BF0C48006800F000700028F9D096
:101620000948406820F003000749486008464068C0
:1016300040F00200486000BF0348406800F00C0022
:101640000828F9D10CBD0000001002400020024023
:101650007047000010B51348006840F001001149C0
:10166000086008464068104908400E49486008462E
:1016700000680E4908400B4908600846006820F4DD
:10168000802008600846406820F4FE0048604FF45F
:101690001F008860FFF767FF4FF000600449086093
:1016A00010BD0000001002400000FFF8FFFFF6FE32
:1016B00008ED00E008B501210420FFF789FB4FF495
:1016C000C050ADF8000010208DF8030003208DF805
:1016D000020069460D48FFF79EF80122D1020B482F
:1016E000FFF72DF9012211030848FFF728F900F050
:1016F00039F8402000F074F800F058F800F032F8A3
:101700008C2000F06DF800F051F808BD0008014091
:1017100030B589B004460D46242209A16846FEF77B
:10172000C2FD00F01FF804F1C001C8B200F058F883
:101730001DF8050000F054F800F038F809B030BD8D
:101740003F065B4F666D7D077F6FBF86DBCFE6EDA3
:10175000FD87FFEF004058096D79073177385C71DC
:101760007800000010B50122D1020F48FFF7E7F81A
:10177000012211030C48FFF7E2F8012000F028F9DC
:1017800000224FF480510848FFF7D9F8012000F0FB
:101790001FF900224FF400610348FFF7D0F8012041
:1017A00000F016F910BD00000008014010B500223D
:1017B0004FF480510948FFF7C2F80122D1020748CF
:1017C000FFF7BDF8012000F003F9012211030348DF
:1017D000FFF7B5F8012000F0FBF810BD000801404C
:1017E00070B50446254600224FF480512148FFF78A
:1017F000A6F800224FF400611E48FFF7A0F800266B
:1018000028E000224FF400611A48FFF798F8012001
:1018100000F0DEF805F0010040B101221103154887
:10182000FFF78DF8012000F0D3F808E000224FF414
:1018300080511048FFF783F8012000F0C9F8012219
:10184000D1020C48FFF77BF8012000F0C1F86D10C1
:10185000701CC6B2082ED4DB00224FF4805105481C
:10186000FFF76DF800224FF400610248FFF767F8B8
:1018700070BD00000008014070B505460024002638
:10188000FEF7AAFF3520FEF719FF1048FEF71CFFF0
:1018900000BF15E06000401C295C15F8140001EB46
:1018A000002086B204F10A01084A022303FB01204A
:1018B0003146FEF761FF3520FEF700FF601CC4B221
:1018C000022CE7DBFEF740FF70BD000000F00108CE
:1018D00008B501210420FFF77BFA0F20ADF80000C6
:1018E00048208DF8030069460148FEF794FF08BDC3
:1018F0000008014010B540F225511F4800F044F89F
:10190000002838D01C4800F04CF8C4B221461BA077
:10191000FEF760FC1A48008800F4004058BB1848E5
:10192000008800F4804060B10A2C03D000201449E4
:10193000088020E01248008840F4004010490880E8
:1019400019E00D2C06D10E48008840F480400C4967
:10195000088010E00A480088C0F30D0009490C54C3
:1019600007480088401C0649088008460088C728A8
:1019700001DD0020088010BD003801402563000013
:10198000100000202800002002460020B1F5007F52
:1019900000D100BF13880B400BB1012000E00020F4
:1019A000704701468888C0F30800704700BFFEE713
:1019B000014600BF704700B5034603E04FF47A705C
:1019C00000F006F8181EA3F101018BB2F6D100BD9C
:1019D00000EBC001C9004FF0E0225161002191618C
:1019E0000521116100BF4FF0E021096901F4803148
:1019F0000029F8D004214FF0E02211617047000067
:101A000000BF054A128802F04002002AF9D0C2B293
:101A1000014B1B1D1A8070470038014094B0002014
:101A20001290119010900F900E900D900C900B90C2
:101A30000A9009900890142103A8FEF766FC002084
:101A40000290FFF7E5F9FFF739F9FFF741FFFFF7DC
:101A500075FBFFF72FFEFEF7A7FFFFF739FFFEF735
:101A60000FFE4FF47A70FFF7A6FFFEF759FD002036
:101A7000109045E0FE49109801EB40000190FEF700
:101A80009BFE0B9010980A2819DA0B98C117019049
:101A900000EB1160C0F3072103AA109802F81010A0
:101AA0000B98C117019000EB116001120198A0EB97
:101AB0000120C1B210984000401C11541CE00B984A
:101AC000C117019000EB1160C0F3072110980A388C
:101AD00002AA02F810100B98C117019000EB1160D8
:101AE00001120198A0EB0120C1B210980A3801221E
:101AF00002EB400002AA11541098401C80B21090D2
:101B000010980C28B6DB9DF80C00182813DD002077
:101B100010900DE0182103AA109802F8101000216F
:101B200010984000401C11541098401C80B2109036
:101B300010980A28EEDB9DF80800372812DD0020F7
:101B400010900CE0002102AA109802F810101098D2
:101B50004000401C11541098401C80B21090109806
:101B60000228EFDB03A8FEF771FC02A8FFF784FE52
:101B700001F0ECBFBF48007812900898012811D1FD
:101B800000200890BC480078BC490978CDE90010D5
:101B9000BB480378BB480278BB480178BB48008843
:101BA000FFF7C0FB1298032802DB1298142804DD0B
:101BB000FFF71EFB13A8FFF797F80C98401C80B2A4
:101BC0000C901298032822DA0C98012801D1A94917
:101BD000087040F6B8310C98884202D10020A5491F
:101BE000087041F288310C98884202D10220A14944
:101BF000087041F658310C98884201D100200C90B1
:101C000041F658310C98884201DD00200C90129862
:101C1000032827DA0A9828BB002010901FE003A9A8
:101C2000109811F8100096490978884213D110983D
:101C30004000401C03A9085C9049097888420AD1F9
:101C40008D48007838B901200A901098C0B20990E8
:101C50001420884908701098401C80B21090109889
:101C60000A28DCDB0A9801280DD10E98401C80B2AE
:101C70000E900E98B0F57A7F05DD01207D49087041
:101C800000200A900E901298F0BB804800886421D2
:101C900090FBF1F201FB12000A2190FBF1F0C0B2BF
:101CA000014601900020FFF733FD78480088642149
:101CB00090FBF1F201FB12000A2190FBF1F201FB13
:101CC0001200C0B2014601900120FFF721FD15214D
:101CD0000220FFF71DFD6C4800780A2190FBF1F00F
:101CE000C0B2014601900320FFF712FD664800785C
:101CF0000A2190FBF1F201FB1200C0B201460190F3
:101D00000420FFF705FD00E01DE015210520FFF789
:101D1000FFFC5C4800780A2190FBF1F0C0B201465C
:101D200001900620FFF7F4FC564800780A2190FB4A
:101D3000F1F201FB1200C0B2014601900720FFF74B
:101D4000E7FCFFF7C5FB1298012851D14C480078F9
:101D50000A2190FBF1F0C0B2014601900020FFF78C
:101D6000D7FC474800780A2190FBF1F201FB1200F2
:101D7000C0B2014601900120FFF7CAFC17210220E2
:101D8000FFF7C6FC3D4800780A2190FBF1F0C0B295
:101D9000014601900320FFF7BBFC384800780A2178
:101DA00090FBF1F201FB1200C0B201460190042049
:101DB000FFF7AEFC17210520FFF7AAFC2E4800789C
:101DC0000A2190FBF1F0C0B2014601900620FFF716
:101DD0009FFC294800780A2190FBF1F201FB1200D8
:101DE000C0B2014601900720FFF792FCFFF770FB9D
:101DF000129802285DD114210020FFF789FC1421DC
:101E00000120FFF785FC14210220FFF781FC9DF8DB
:101E10004C0020B115210320FFF77AFC03E01421C8
:101E20000320FFF775FC9DF84D00642190FBF1F253
:101E300001FB12000A2190FBF1F0C0B201460190B3
:101E40000420FFF765FC9DF84D000A2190FBF1F29C
:101E500001FB12000A30C0B2014601900520FFF7D5
:101E600057FC9DF84E00642190FBF1F210E0000059
:101E700000F00108120000200600002005000020EC
:101E800004000020030000200200002000000020C9
:101E900001FB12000A2190FBF1F0C0B20146019053
:101EA0000620FFF735FC16210720FFF731FCFFF76E
:101EB0000FFB129803287CD114210420FFF728FC83
:101EC00014210520FFF724FC14210620FFF720FC35
:101ED00014210720FFF71CFC119878B91821002065
:101EE000FFF716FC19210120FFF712FC1A2102202E
:101EF000FFF70EFC1B210320FFF70AFC11980028B6
:101F000016DD11980B2813DA1C210020FFF700FCC6
:101F10001D210120FFF7FCFB1198401EC0B20146B5
:101F200001900220FFF7F4FB14210320FFF7F0FBE0
:101F300011980A2813DD20210020FFF7E9FB162164
:101F40000120FFF7E5FB11980B38C0B20146019064
:101F50000220FFF7DDFB14210320FFF7D9FB01214D
:101F6000FE48FEF7E3FC88B91198401CC0B21190FE
:101F700011980C2801DD00201190FEF7B5FA00BF82
:101F80000121F648FEF7D2FC0028F9D00221F348DF
:101F9000FEF7CCFC90B9119808B90D20119011985A
:101FA000401EC0B21190FEF79FFA00BF0221EB481D
:101FB00000E045E0FEF7BAFC0028F7D00421E7482E
:101FC000FEF7B4FC60B90020E54908701190FEF7F7
:101FD0008BFA00BF0421E148FEF7A8FC0028F9D0E5
:101FE0000821DE48FEF7A2FC50BB119810B904206E
:101FF000DB490870119800280DDD11980B280ADACA
:1020000011980930D6490870084600780A38400609
:10201000000E0F9009E011980A30D1490870084667
:10202000007815384006000E0F9000201190FEF742
:1020300095FA00BF0821C948FEF778FC0028F9D0BE
:102040001298042878D11098401C80B210901098F3
:10205000B0F52F7F22DAC3480088642190FBF1F2AB
:1020600001FB12000A2190FBF1F0C0B20146019081
:102070000020FFF74DFBBB480088642190FBF1F284
:1020800001FB12000A2190FBF1F201FB1200C0B229
:10209000014601900120FFF73BFB07E014210020DF
:1020A000FFF736FB14210120FFF732FB1098B0F543
:1020B000AF6F01DD0020109015210220FFF728FBF3
:1020C000A94800780A2190FBF1F0C0B201460190C6
:1020D0000320FFF71DFBA44800780A2190FBF1F2D2
:1020E00001FB1200C0B2014601900420FFF710FB73
:1020F00015210520FFF70CFB9C4800780A2190FB76
:10210000F1F0C0B2014601900620FFF701FB9748AD
:1021100000780A2190FBF1F201FB1200C0B20146E7
:1021200001900720FFF7F4FA01218C48FEF7FEFB2F
:10213000F0BB0020109007E0F1E00D98401CC0B209
:102140000D900A20FFF737FC01218448FEF7EEFBD3
:1021500010B90D986428F0DB0D9864283FDB37E058
:1021600080480088401C7F4908800846008840F667
:102170003301884203DD40F2B2707A49088064205E
:10218000FFF719FC77480088642190FBF1F201FB0E
:1021900012000A2190FBF1F0C0B20146019000202C
:1021A000FFF7B6FA6F480088642190FBF1F200E077
:1021B00026E001FB12000A2190FBF1F201FB120064
:1021C000C0B2014601900120FFF7A2FAFEF78CF998
:1021D00001216248FEF7AAFB0028C1D010E0614847
:1021E0000088401C5F4908800846008840F633019B
:1021F000884203DD40F2B2705A490880FEF774F954
:1022000002215648FEF792FBF0BB0020109006E03A
:102210000D98401CC0B20D900A20FFF7CCFB0221A4
:102220004E48FEF783FB10B90D986428F0DB0D983B
:1022300064283EDB36E04B480088401E4949088050
:102240000846008840F2B271884202DA08464549E1
:1022500008806420FFF7AFFB42480088642190FBB0
:10226000F1F201FB12000A2190FBF1F0C0B201462D
:1022700001900020FFF74CFA3A480088642190FB57
:10228000F1F201FB120000E023E00A2190FBF1F2E1
:1022900001FB1200C0B2014601900120FFF738FA9D
:1022A000FEF722F902212D48FEF740FB0028C2D09C
:1022B0000FE02C480088401E2A4908800846008804
:1022C00040F2B271884202DA084626490880FEF7D9
:1022D0000BF904212148FEF729FB68B905202049A4
:1022E000087001200890FEF7FFF800BF04211B488A
:1022F000FEF71CFB0028F9D008211848FEF716FB52
:1023000068B900201649087001200890FEF76EF9A0
:1023100000BF08211148FEF709FB0028F9D01298E8
:1023200005287DD11098401C80B210901098B0F50F
:102330002F7F23DA0C4800780A2190FBF1F0C0B21D
:10234000014601900320FFF7E3F9074800780A21CE
:1023500090FBF1F201FB1200C0B209E0000801405D
:1023600012000020000000200200002003000020D6
:10237000014601900420FFF7CBF907E01421032068
:10238000FFF7C6F914210420FFF7C2F91098B0F541
:10239000AF6F01DD00201090F8480088642190FBA9
:1023A000F1F201FB12000A2190FBF1F0C0B20146EC
:1023B00001900020FFF7ACF9F0480088642190FB01
:1023C000F1F201FB12000A2190FBF1F201FB120075
:1023D000C0B2014601900120FFF79AF915210220B1
:1023E000FFF796F915210520FFF792F9E4480078E8
:1023F0000A2190FBF1F0C0B2014601900620FFF7E0
:1024000087F9DF4800780A2190FBF1F201FB120006
:10241000C0B2014601900720FFF77AF9012100E0E0
:10242000D6E0D848FEF782FAF0BB0020109006E014
:102430000D98401CC0B20D900A20FFF7BCFA012194
:10244000D048FEF773FA10B90D986428F0DB0D98A8
:10245000642831DB27E0CC480078401CCA4908706A
:10246000084600780C2801DD012008706420FFF781
:10247000A2FAC54800780A2190FBF1F0C0B20146EB
:1024800001900320FFF744F9BF4800780A2190FB30
:10249000F1F201FB1200C0B2014601900420FFF7E7
:1024A00037F9FEF721F800E013E00121B548FEF707
:1024B0003DFA0028CFD00CE0B3480078401CB24968
:1024C0000870084600780C2801DD01200870FEF72E
:1024D0000BF80221AB48FEF729FAE0BB0020109070
:1024E00006E00D98401CC0B20D900A20FFF763FA79
:1024F0000221A448FEF71AFA10B90D986428F0DBFF
:102500000D98642831DB29E09F480078401E9E49E1
:10251000087008460078012801DA0C200870642051
:10252000FFF749FA984800780A2190FBF1F0C0B211
:10253000014601900320FFF7EBF8934800780A2149
:1025400090FBF1F201FB1200C0B2014601900420A1
:10255000FFF7DEF800E015E0FDF7C6FF022189482D
:10256000FEF7E4F90028CFD00CE087480078401E41
:102570008549087008460078012801DA0C200870A7
:10258000FDF7B2FF04217F48FEF7D0F968B90620B5
:102590007E49087001200890FDF7A6FF00BF0421C6
:1025A0007848FEF7C3F90028F9D008217548FEF7EE
:1025B000BDF968B900207549087001200890FEF740
:1025C00015F800BF08216F48FEF7B0F90028F9D0D0
:1025D0001298062878D11098401C80B2109010985C
:1025E000B0F52F7F18DA664800780A2190FBF1F0E9
:1025F000C0B2014601900620FFF78AF860480078D3
:102600000A2190FBF1F201FB1200C0B201460190D9
:102610000720FFF77DF807E014210620FFF778F880
:1026200014210720FFF774F81098B0F5AF6F01DDA3
:102630000020109051480088642190FBF1F201FBCA
:1026400012000A2190FBF1F0C0B201460190002077
:10265000FFF75EF849480088642190FBF1F201FB26
:1026600012000A2190FBF1F201FB1200C0B20146F8
:1026700001900120FFF74CF815210220FFF748F8E0
:10268000414800780A2190FBF1F0C0B20146019068
:102690000320FFF73DF83C4800780A2190FBF1F257
:1026A00001FB1200C0B2014601900420FFF730F890
:1026B00015210520FFF72CF801213248FEF736F9E5
:1026C000E8BB0020109007E0D9E00D98401CC0B294
:1026D0000D900A20FFF76FF901212A48FEF726F92D
:1026E00010B90D986428F0DB0D98642831DB29E0DF
:1026F00023480078401C22490870084600781F28AB
:1027000001DD012008706420FFF755F91C480078AE
:102710000A2190FBF1F0C0B2014601900620FEF7BD
:10272000F7FF174800780A2190FBF1F201FB120035
:10273000C0B2014601900720FEF7EAFF00E015E075
:10274000FDF7D2FE01210F48FEF7F0F80028CFD0A8
:102750000CE00B480078401C0949087008460078D6
:102760001F2801DD01200870FDF7BEFE022105488B
:10277000FEF7DCF8F0BB0020109010E00000002015
:102780000300002000080140020000201200002089
:102790000D98401CC0B20D900A20FFF70CF90221E1
:1027A000FE48FEF7C3F810B90D986428F0DB0D98C9
:1027B000642831DB29E0FA480078401EF8490870A7
:1027C00008460078012801DA1F2008706420FFF70E
:1027D000F2F8F34800780A2190FBF1F0C0B201460C
:1027E00001900620FEF794FFED4800780A2190FB47
:1027F000F1F200E01DE001FB1200C0B201460190C1
:102800000720FEF785FFFDF76FFE0221E348FEF784
:102810008DF80028CFD00CE0E1480078401EE04958
:10282000087008460078012801DA1F200870FDF7BB
:102830005BFE0421D948FEF779F868B90720D94929
:10284000087001200890FDF74FFE00BF0421D34817
:10285000FEF76CF80028F9D00821D048FEF766F89A
:1028600068B90020CF49087001200890FDF7BEFE2E
:1028700000BF0821C948FEF759F80028F9D012987E
:1028800007286ED11098401C80B210901098B0F5B7
:102890002F7F18DAC44800780A2190FBF1F0C0B20B
:1028A000014601900020FEF733FFBF4800780A215F
:1028B00090FBF1F201FB1200C0B201460190012031
:1028C000FEF726FF07E014210020FEF721FF142168
:1028D0000120FEF71DFF1098B0F5AF6F01DD00205D
:1028E000109017210220FEF713FFB04800780A214C
:1028F00090FBF1F0C0B2014601900320FEF708FF03
:10290000AA4800780A2190FBF1F201FB1200C0B244
:10291000014601900420FEF7FBFE17210520FEF77B
:10292000F7FEA34800780A2190FBF1F0C0B20146FF
:1029300001900620FEF7ECFE9D4800780A2190FBEE
:10294000F1F201FB1200C0B2014601900720FEF730
:10295000DFFE01219148FDF7E9FFE8BB0020109060
:1029600007E0CEE00D98401CC0B20D900A20FFF7A2
:1029700022F801218948FDF7D9FF10B90D98642884
:10298000F0DB0D98642831DB29E087480078401C93
:102990008549087008460078172801DD0020087076
:1029A0006420FFF708F8804800780A2190FBF1F0D6
:1029B000C0B2014601900020FEF7AAFE7A480078D6
:1029C0000A2190FBF1F201FB1200C0B20146019016
:1029D0000120FEF79DFE00E015E0FDF785FD0121D9
:1029E0006E48FDF7A3FF0028CFD00CE06E480078BA
:1029F000401C6D49087008460078172801DD00204A
:102A00000870FDF771FD02216448FDF78FFFE0BB00
:102A10000020109006E00D98401CC0B20D900A20D6
:102A2000FEF7C9FF02215D48FDF780FF10B90D9840
:102A30006428F0DB0D98642831DB29E05A480078DF
:102A400010B918205849087057480078401E564958
:102A500008706420FEF7AFFF534800780A2190FB0E
:102A6000F1F0C0B2014601900020FEF751FE4E4841
:102A700000780A2190FBF1F201FB1200C0B201467E
:102A800001900120FEF744FE00E015E0FDF72CFD6B
:102A900002214248FDF74AFF0028CFD00CE042480F
:102AA000007810B91820404908703F480078401E4F
:102AB0003D490870FDF718FD04213848FDF736FF41
:102AC00068B908203749087001200890FDF70CFD0F
:102AD00000BF04213148FDF729FF0028F9D0082163
:102AE0002E48FDF723FF60B901202E490870089099
:102AF000FDF77CFD00BF08212848FDF717FF0028DF
:102B0000F9D0129808287BD11098401C80B2109000
:102B10001098B0F52F7F18DA244800780A2190FB2E
:102B2000F1F0C0B2014601900320FEF7F1FD1F480D
:102B300000780A2190FBF1F201FB1200C0B20146BD
:102B400001900420FEF7E4FD07E014210320FEF7C6
:102B5000DFFD14210420FEF7DBFD1098B0F5AF6F08
:102B600001DD00201090104800780A2190FBF1F060
:102B7000C0B2014601900020FEF7CAFD0A48007865
:102B80000A2190FBF1F201FB1200C0B20146019054
:102B90000120FEF7BDFD172102200BE000080140D7
:102BA0000300002012000020040000200500002087
:102BB00006000020FEF7ACFD17210520FEF7A8FD5A
:102BC000FB4800780A2190FBF1F0C0B20146019069
:102BD0000620FEF79DFDF64800780A2190FBF1F2F1
:102BE00001FB1200C0B2014601900720FEF790FDE4
:102BF0000121F048FDF79AFEE8BB0020109007E0A5
:102C0000CEE00D98401CC0B20D900A20FEF7D3FE16
:102C10000121E848FDF78AFE10B90D986428F0DB21
:102C20000D98642831DB29E0E3480078401CE24934
:102C30000870084600783B2801DD002008706420F9
:102C4000FEF7B9FEDC4800780A2190FBF1F0C0B233
:102C5000014601900320FEF75BFDD74800780A216A
:102C600090FBF1F201FB1200C0B20146019004207A
:102C7000FEF74EFD00E015E0FDF736FC0121CD48E2
:102C8000FDF754FE0028CFD00CE0CB480078401C64
:102C9000C9490870084600783B2801DD002008700B
:102CA000FDF722FC0221C348FDF740FEF0BB0020E7
:102CB000109006E00D98401CC0B20D900A20FEF75F
:102CC0007AFE0221BB48FDF731FE10B90D98642849
:102CD000F0DB0D98642831DB27E0B748007810B9A5
:102CE0003C20B5490870B4480078401EB2490870CD
:102CF0006420FEF760FEB04800780A2190FBF1F0F6
:102D0000C0B2014601900320FEF702FDAA480078F8
:102D10000A2190FBF1F201FB1200C0B201460190C2
:102D20000420FEF7F5FCFDF7DFFB00E013E00221D5
:102D3000A048FDF7FBFD0028CFD00CE09E480078AE
:102D400010B93C209C4908709B480078401E9A4965
:102D50000870FDF7C9FB04219648FDF7E7FD68B947
:102D600009209649087001200890FDF7BDFB00BFBF
:102D700004219048FDF7DAFD0028F9D008218D489C
:102D8000FDF7D4FD60B901208C4908700890FDF76B
:102D90002DFC00BF08218748FDF7C8FD0028F9D0A9
:102DA000129809287ED11098401C80B2109010987B
:102DB000B0F52F7F18DA7E4800780A2190FBF1F0F9
:102DC000C0B2014601900620FEF7A2FC78480078C8
:102DD0000A2190FBF1F201FB1200C0B20146019002
:102DE0000720FEF795FC07E014210620FEF790FC73
:102DF00014210720FEF78CFC1098B0F5AF6F01DDB1
:102E0000002010906E4800780A2190FBF1F0C0B2CB
:102E1000014601900020FEF77BFC694800780A21FA
:102E200090FBF1F201FB1200C0B2014601900120BB
:102E3000FEF76EFC17210220FEF76AFC5E48007860
:102E40000A2190FBF1F0C0B2014601900320FEF789
:102E50005FFC594800780A2190FBF1F201FB120057
:102E6000C0B2014601900420FEF752FC1721052054
:102E7000FEF74EFC01214F48FDF758FDF0BB002046
:102E8000109006E00D98401CC0B20D900A20FEF78D
:102E900092FD01214748FDF749FD10B90D986428BE
:102EA000F0DB00E0C9E00D98642831DB29E0404800
:102EB0000078401C3E490870084600783B2801DD38
:102EC000002008706420FEF776FD394800780A215A
:102ED00090FBF1F0C0B2014601900620FEF718FC0D
:102EE000334800780A2190FBF1F201FB1200C0B2D6
:102EF000014601900720FEF70BFC00E015E0FDF70E
:102F0000F3FA01212B48FDF711FD0028CFD00CE08A
:102F100027480078401C26490870084600783B285E
:102F200001DD00200870FDF7DFFA02212148FDF7DE
:102F3000FDFCE0BB0020109006E00D98401CC0B2E4
:102F40000D900A20FEF737FD02211A48FDF7EEFC2E
:102F500010B90D986428F0DB0D9864283BDB33E052
:102F60001348007810B93C201149087010480078C7
:102F7000401E0F4908706420FEF71DFD0C480078C4
:102F80000A2190FBF1F0C0B2014601900620FEF745
:102F9000BFFB074800780A2190FBF1F201FB120009
:102FA000C0B2014601900720FEF7B2FB0AE01FE025
:102FB000060000200008014005000020120000204B
:102FC00004000020FDF790FA0221FE48FDF7AEFC58
:102FD0000028C5D00CE0FC48007810B93C20FA4924
:102FE0000870F9480078401EF7490870FDF77CFA30
:102FF0000421F448FDF79AFC68B90420F3490870ED
:1030000001200890FDF770FA00BF0421ED48FDF79C
:103010008DFC0028F9D00821EA48FDF787FC60B94B
:103020000120EA4908700890FDF7E0FA00BF082186
:10303000E448FDF77BFC0028F9D0129809287BDDD5
:103040001298142878DA1098401C80B210901298C8
:103050000A3841000F98814250D103A90F98085CAB
:1030600018284BD01098B0F52F7F19DA0F98085C0C
:103070000A2190FBF1F0C0B2014601900320FEF757
:1030800047FB03A90F98085C0A2190FBF1F201FBB2
:103090001200C0B2014601900420FEF739FB07E0A0
:1030A00014210320FEF734FB14210420FEF730FB2B
:1030B0001098B0F5AF6F01DD0020109017210520AA
:1030C000FEF726FB03A90F98401C085C0A2190FB21
:1030D000F1F0C0B2014601900620FEF719FB03A9EA
:1030E0000F98401C085C0A2190FBF1F201FB1200D2
:1030F000C0B2014601900720FEF70AFB03A90F9812
:10310000085C182833D11098B0F52F7F15DA1E21EE
:103110000320FEF7FDFA1F210420FEF7F9FA1F2114
:103120000520FEF7F5FA14210620FEF7F1FA142126
:103130000720FEF7EDFA14E007E214210320FEF762
:10314000E7FA14210420FEF7E3FA14210520FEF724
:10315000DFFA14210620FEF7DBFA14210720FEF720
:10316000D7FA1098B0F5AF6F01DD002010901298DB
:103170000A384000401C0F9988424CD11098B0F595
:103180002F7F1ADA03A90F98085C0A2190FBF1F04F
:10319000C0B2014601900620FEF7BAFA03A90F98C3
:1031A000085C0A2190FBF1F201FB1200C0B201465B
:1031B00001900720FEF7ACFA07E014210620FEF785
:1031C000A7FA14210720FEF7A3FA1098B0F5AF6F05
:1031D00001DD002010900F98401E03A9085C0A2111
:1031E00090FBF1F0C0B2014601900320FEF790FA87
:1031F0000F98401E03A9085C0A2190FBF1F201FB25
:103200001200C0B2014601900420FEF781FA172196
:103210000520FEF77DFA01216A48FDF787FBE8BB30
:103220000020109006E00D98401CC0B20D900A20BE
:10323000FEF7C1FB01216348FDF778FB10B90D983B
:103240006428F0DB0D98642866DB5EE003A90F9824
:10325000085C401CC1B203AA0F98115412980A3896
:1032600041000F98814228D103A90F98085C1828C3
:1032700002DD00210F98115403A90F98085C18284B
:103280003ED00F98085C0A2190FBF1F0C0B20146D5
:1032900001900320FEF73CFA03A900E05EE00F98DE
:1032A000085C0A2190FBF1F201FB1200C0B201465A
:1032B00001900420FEF72CFA22E003A90F98085C85
:1032C0003B2803DD002103AA0F98115403A90F988E
:1032D000085C0A2190FBF1F0C0B201460190062083
:1032E000FEF716FA03A90F98085C0A2190FBF1F289
:1032F00001FB1200C0B2014601900720FEF708FA58
:103300006420FEF758FBFDF7EFF801212D48FDF78B
:103310000DFB00289AD021E003A90F98085C401CFF
:10332000C1B203AA0F98115412980A3841000F989D
:10333000814208D103A90F98085C18280CDD0021F0
:103340000F98115408E003A90F98085C3B2803DD8F
:10335000002103AA0F981154FDF7C6F8022119485D
:10336000FDF7E4FAA0BB0020109006E00D98401C89
:10337000C0B20D900A20FEF71EFB02211148FDF796
:10338000D5FA10B90D986428F0DB0D98642874DB29
:103390006BE012980A3841000F98814236D103A998
:1033A0000F98085C18B9192103AA0F98115403A9A2
:1033B0000F98085C401EC1B203AA0F98115403A9CC
:1033C0000F9806E0000801400600002012000020CF
:1033D0007CE0085C182843D00F98085C0A2190FB19
:1033E000F1F0C0B2014601900320FEF791F903A964
:1033F0000F98085C0A2190FBF1F201FB1200C0B2A9
:10340000014601900420FEF783F929E003A90F98F3
:10341000085C18B93C2103AA0F98115403A90F980E
:10342000085C401EC1B203AA0F98115403A90F985B
:10343000085C0A2190FBF1F0C0B201460190062021
:10344000FEF766F903A90F98085C0A2190FBF1F2D8
:1034500001FB1200C0B2014601900720FEF758F9A7
:103460006420FEF7A8FAFDF73FF80221FE48FDF7B9
:103470005DFA00288DD029E0FFE712980A38410054
:103480000F98814210D103A90F98085C18B919212F
:1034900003AA0F98115403A90F98085C401EC1B2EB
:1034A00003AA0F9811540FE003A90F98085C18B9EC
:1034B0003C2103AA0F98115403A90F98085C401EE1
:1034C000C1B203AA0F981154FDF70EF80421E64883
:1034D000FDF72CFA10BB12980A3841000F98814270
:1034E0000BD103A90F98085C182806D012980A3847
:1034F0004000401CC0B20F9004E012980A38400609
:10350000000E0F9003A8FCF7A1FFFCF7EDFF00BF32
:103510000421D548FDF70AFA0028F9D00821D2483D
:10352000FDF704FA88B9002010900F900120CF49D0
:10353000087003A8FCF78AFFFDF758F800BF0821C0
:10354000C948FDF7F3F90028F9D0129814287DD165
:103550001098401C80B210901098012840DD1C216A
:103560000020FEF7D5F81D210120FEF7D1F802203A
:103570000999FEF7CDF8BE4800780A2190FBF1F0DA
:10358000C0B2014601900320FEF7C2F8B8480078A7
:103590000A2190FBF1F201FB1200C0B2014601903A
:1035A0000420FEF7B5F817210520FEF7B1F8B14861
:1035B00000780A2190FBF1F0C0B20146019006208C
:1035C000FEF7A6F8AB4800780A2190FBF1F201FB68
:1035D0001200C0B2014601900720FEF799F81FE0E3
:1035E00014210020FEF794F814210120FEF790F832
:1035F00014210220FEF78CF814210320FEF788F82E
:1036000014210420FEF784F814210520FEF780F829
:1036100014210620FEF77CF814210720FEF778F825
:103620001098032801DD00201090FCF7DFFF012136
:103630008D48FDF77BF980B901208C490870002086
:103640000A900E90FCF750FF00BF00E041E001211E
:103650008548FDF76BF90028F7D002218248FDF775
:1036600065F970B901208149087000200A900E9018
:10367000FCF73AFF00BF02217B48FDF757F900280D
:10368000F9D004217848FDF751F970B90120774944
:10369000087000200A900E90FCF726FF00BF04215E
:1036A0007148FDF743F90028F9D008216E48FDF76D
:1036B0003DF970B901206D49087000200A900E9004
:1036C000FCF712FF00BF08216748FDF72FF900281B
:1036D000F9D01298152802D0129816287DD110988A
:1036E000401C80B2109020210020FEF711F8162116
:1036F0000120FEF70DF812981538C0B2014601906E
:103700000220FEF705F814210320FEF701F8162128
:103710000720FDF7FDFF1298153841000F988142F0
:1037200041D11098B0F52F7F20DA02A90F98085CDC
:10373000642190FBF1F201FB12000A2190FBF1F0F1
:10374000C0B2014601900420FDF7E2FF02A90F98E4
:10375000085C0A2190FBF1F201FB12000A30C0B2B2
:10376000014601900520FDF7D3FF07E01421042056
:10377000FDF7CEFF14210520FDF7CAFF1098B0F524
:10378000AF6F01DD0020109002A90F98401C085C6B
:103790000A2190FBF1F201FB1200C0B20146019038
:1037A0000620FDF7B5FF129815384000401C0F9910
:1037B00088423FD11098B0F52F7F0FDA02A90F98F9
:1037C000085C0A2190FBF1F201FB1200C0B2014635
:1037D00001900620FDF79CFF04E0B6E114210620CD
:1037E000FDF796FF1098B0F5AF6F01DD0020109047
:1037F0000F98401E02A9085C642190FBF1F201FBC6
:1038000012000A2190FBF1F0C0B2014601900420A1
:10381000FDF77EFF0F98401E02A9085C0A2190FB6D
:10382000F1F201FB12000A30C0B2014601900520FE
:10383000FDF76EFF01210C48FDF778F8F0BB002082
:10384000109006E00D98401CC0B20D900A20FEF7C3
:10385000B2F801210448FDF769F810B90D98642801
:10386000F0DB0D98642807E00008014012000020FA
:10387000040000200500002062DB5AE002A90F9836
:10388000085C401CC1B202AA0F9811541298153856
:1038900041000F98814229D102A90F98085C37286E
:1038A00002DD00210F98115402A90F98085C6421D1
:1038B00090FBF1F201FB12000A2100E068E090FBAE
:1038C000F1F0C0B2014601900420FDF721FF02A9EA
:1038D0000F98085C0A2190FBF1F201FB12000A30FC
:1038E000C0B2014601900520FDF712FF129815386D
:1038F0004000401C0F99884216D102A90F98085C1D
:10390000092803DD002102AA0F98115402A90F987B
:10391000085C0A2190FBF1F201FB1200C0B20146E3
:1039200001900620FDF7F4FE6420FEF744F8FCF752
:10393000DBFD01218648FCF7F9FF00289ED027E037
:1039400002A90F98085C401CC1B202AA0F9811543A
:103950001298153841000F98814207D102A90F989B
:10396000085C372802DD00210F9811541298153891
:103970004000401C0F99884208D102A90F98085CAA
:10398000092803DD002102AA0F981154FCF7ACFDB1
:1039900002216F48FCF7CAFFF0BB0020109006E040
:1039A0000D98401CC0B20D900A20FEF704F80221C9
:1039B0006748FCF7BBFF10B90D986428F0DB0D9841
:1039C000642861DB59E01298153841000F98814254
:1039D00029D102A90F98085C18B9382102AA0F98BA
:1039E000115402A90F98085C642190FBF1F201FBCD
:1039F00012000A2190FBF1F0C0B2014601900420B0
:103A0000FDF786FE02A90F98085C0A2190FBF1F2EF
:103A100001FB12000A3000E05DE0C0B201460190F7
:103A20000520FDF775FE129815384000401C0F99CF
:103A3000884215D102A90F98085C18B90A2102AA78
:103A40000F98115402A90F98085C0A2190FBF1F21B
:103A500001FB1200C0B2014601900620FDF758FE9E
:103A600002A90F98085C401EC1B202AA0F98115417
:103A70006420FDF7A0FFFCF737FD02213448FCF776
:103A800055FF00289FD026E01298153841000F9866
:103A9000814207D102A90F98085C18B9382102AAFF
:103AA0000F981154129815384000401C0F99884205
:103AB00007D102A90F98085C18B90A2102AA0F9829
:103AC000115402A90F98085C401EC1B202AA0F98B7
:103AD0001154FCF709FD04211D48FCF727FFE8B944
:103AE0001298153841000F98814206D11298153866
:103AF0004000401CC0B20F9004E0129815384006F8
:103B0000000E0F9002A8FDF7B7FEFCF7EDFC00BF1A
:103B100004210F48FCF70AFF0028F9D008210C48BF
:103B2000FCF704FF88B9002010900F90022009498B
:103B3000087002A8FDF7A0FEFCF758FD00BF0821A1
:103B40000348FCF7F3FE0028F9D000BFFEF712B8D7
:103B500000080140120000200003030601040602D1
:103B6000050003051F1C1F1E1F1E1F1F1E1F1E1FDB
:103B7000903B0008000000202800000028010008F9
:103B8000B83B000828000020280700004401000876
:103B90000000000000000000000000000000000025
:103BA00000000000000000010203040102030406FB
:083BB0000708090204060800E1
:04000005080000ED02
:00000001FF
