:020000040800F2
:100000005007002091010008210C0008CF070008CC
:100010001D0C000861060008D5170008000000004C
:10002000000000000000000000000000E9130008CC
:100030006506000800000000310C0008D514000817
:10004000AB010008AB010008AB010008AB010008E0
:10005000AB010008AB010008AB010008AB010008D0
:10006000AB010008AB010008AB010008AB010008C0
:10007000AB010008AB010008AB010008AB010008B0
:10008000AB010008AB010008AB010008AB010008A0
:10009000AB010008AB010008AB010008AB01000890
:1000A000AB010008AB010008AB010008AB01000880
:1000B000AB010008AB010008AB010008AB01000870
:1000C000AB010008AB010008AB010008AB01000860
:1000D000AB0100081D170008AB010008AB010008C8
:1000E000AB010008AB010008AB01000800F002F80A
:1000F00000F03FF80AA090E8000C82448344AAF183
:100100000107DA4501D100F034F8AFF2090EBAE880
:100110000F0013F0010F18BFFB1A43F0010318473B
:10012000E42F000004300000103A24BF78C878C1E2
:10013000FAD8520724BF30C830C144BF04680C60ED
:10014000704700000023002400250026103A28BF35
:1001500078C1FBD8520728BF30C148BF0B60704739
:10016000632900F00781002070471FB51FBD10B53F
:1001700010BD00F039F91146FFF7F7FF01F062FBFF
:1001800000F057F903B4FFF7F2FF03BC01F024FBC2
:100190000948804709480047FEE7FEE7FEE7FEE71B
:1001A000FEE7FEE7FEE7FEE7FEE7FEE70448054957
:1001B000054A064B70470000D9140008ED000008FE
:1001C0005001002050070020500300205003002061
:1001D000704700000FB4044910B503AA029800F05C
:1001E000D5F810BC5DF814FB0C0000202DE9F0419F
:1001F0000E460446002020622046E168884730B35E
:10020000252805D0D4E901219047206A401CF2E757
:10021000E168204600278847050018D0A5F1410075
:10022000192802D820354FF4006732462946204667
:100230002760FFF795FF40B1012804D0F61D26F096
:1002400007060836D8E7361DD6E72846DAE7206ADB
:10025000BDE8F08170B50C460546012A05D0287826
:10026000800600D5EA69002302E0012305E05B1C5B
:10027000934202D2E05C0028F9D1A869E618C01ABE
:10028000A861286A184428622846AFF3008004E079
:10029000D5E9012114F8010B9047B442F8D3284660
:1002A000AFF3008070BD10B5203AC0F00B80B1E80C
:1002B0001850203AA0E81850B1E81850A0E818509B
:1002C000BFF4F5AF5FEA027C24BFB1E81850A0E8A4
:1002D000185044BF18C918C0BDE810405FEA827CBE
:1002E00024BF51F8043B40F8043B08BF7047D207D5
:1002F00028BF31F8023B48BF11F8012B28BF20F876
:10030000023B48BF00F8012B70474FF0000200B5D8
:10031000134694469646203922BFA0E80C50A0E828
:100320000C50B1F12001BFF4F7AF090728BFA0E8D6
:100330000C5048BF0CC05DF804EB890028BF40F8A2
:10034000042B08BF704748BF20F8022B11F0804FE4
:1003500018BF00F8012B704770477047704770470F
:1003600010B5436913B1AFF3008001E0FFF772FFEE
:10037000012010BD127800F124010A7000224A7099
:100380000122EDE711684FF0FF32E9E7074B70B546
:100390000D467B4400F011F80446284600F020F892
:1003A00010B14FF0FF3070BD204670BD93140000B7
:1003B00001694A1C02610878704700B58FB0CDE929
:1003C00001310021059105497944CDE90310114619
:1003D0006846FFF70BFF0FB000BD0000E5FFFFFF11
:1003E000007B00F080007047754600F02BF8AE46A9
:1003F00005006946534620F00700854618B020B531
:10040000FFF7D4FEBDE820404FF000064FF0000794
:100410004FF000084FF0000B21F00701AC46ACE8AC
:10042000C009ACE8C009ACE8C009ACE8C0098D4619
:10043000704710B50446AFF300802046BDE8104079
:10044000FFF7A0BE00487047F000002010B5012063
:1004500000F010FC002000F00DFC10BD08B50146B6
:1004600000200090034800900098084400900098F5
:10047000008808BD006C004008B500220092044AC4
:100480000092009A02440092009A116008BD000098
:10049000006C004010B5002413E0002220210A481F
:1004A00000F090F94FF4FA7001F0A6F90122202132
:1004B000054800F087F94FF4FA7001F09DF9601CCF
:1004C00084B2C82CE9DB10BD000C014010B500243B
:1004D00013E0002220210B4800F074F94FF448701B
:1004E00001F08AF901222021064800F06BF94FF44F
:1004F000487001F081F9601C84B2B4F5C87FE8DB74
:1005000010BD0000000C014010B5002411E00022D5
:100510002021204800F056F9C82001F06DF9012291
:1005200020211C4800F04EF9C82001F065F9601C3C
:1005300084B2962CEBDB002413E000222021154826
:1005400000F040F94FF4967001F056F90122202195
:10055000104800F037F94FF4967001F04DF9601C27
:1005600084B2642CE9DB002411E000222021094838
:1005700000F028F9642001F03FF90122202105480C
:1005800000F020F9642001F037F9601C84B2FA2CE5
:10059000EBDB10BD000C014010B5002411E000227F
:1005A0002021214800F00EF9C82001F025F9012290
:1005B00020211D4800F006F9C82001F01DF9601C3B
:1005C00084B2B4F5E17FEADB002413E000222021AD
:1005D000154800F0F7F84FF4C87001F00DF901224A
:1005E0002021114800F0EEF84FF4C87001F004F932
:1005F000601C84B2FA2CE9DB002411E000222021E7
:10060000094800F0DFF8642001F0F6F8012220210B
:10061000054800F0D7F8642001F0EEF8601C84B2C1
:10062000B4F5E17FEADB10BD000C014008B5012103
:10063000082000F00FFB10208DF803002020ADF8FB
:10064000000003208DF802006946044800F026F8F7
:1006500001222021014800F0B5F808BD000C01403E
:1006600000BFFEE7704700000549096821F010014E
:10067000034A116011460968014311607047000088
:100680000020024001460020034A106800F03800B4
:100690000843106070470000002002402DE9F0413F
:1006A000024600250026002000230024002791F8A0
:1006B00003C00CF00F0591F803C00CF0100CBCF156
:1006C000000F03D091F802C04CEA050591F800C074
:1006D000BCF1000F31D0146800202BE04FF0010C6A
:1006E0000CFA00F3B1F800C00CEA03069E4220D1D8
:1006F00083004FF00F0C0CFA03F7BC4305FA03FC20
:100700004CEA040491F803C0BCF1280F06D14FF065
:10071000010C0CFA00FCC2F814C00AE091F803C006
:10072000BCF1480F05D14FF0010C0CFA00FCC2F8E7
:1007300010C0401C0828D1D31460B1F800C0BCF12F
:10074000FF0F34DD546800202EE000F1080C4FF05C
:10075000010808FA0CF3B1F800C00CEA03069E4247
:1007600021D183004FF00F0C0CFA03F7BC4305FABC
:1007700003FC4CEA040491F803C0BCF1280F05D136
:1007800000F1080C08FA0CF8C2F8148091F803C0C4
:10079000BCF1480F07D100F1080C4FF0010808FA2E
:1007A0000CF8C2F81080401C0828CED35460BDE875
:1007B000F0810246002093680B400BB1012000E05D
:1007C000002070470AB1016100E04161704700BF3D
:1007D000FEE721B1028842F48062028004E00288D0
:1007E0004FF6FF331A400280704770B5024600246E
:1007F000002500230020958A138B1B0445EA03067D
:1008000026F07F4404EA01068E4201D1012000E077
:10081000002070BD21B1028842F00102028004E094
:1008200002884FF6FE731A40028070471FB500F031
:1008300021F80020ADF804004BF6FF70ADF806007B
:10084000C020ADF808004FF48060ADF80A00000148
:10085000ADF80C00054800906946054800F05AF8CC
:1008600001210348FFF7D6FF1FBD0000400D030024
:100870000054004008B50121082000F0EBF90121E7
:10088000480500F0D7F9C020ADF800001C208DF815
:10089000030003208DF8020069460248FFF7FEFEC0
:1008A00008BD0000000C014021B1028842F48072B2
:1008B000028004E002884FF6FF631A40028070470E
:1008C00021B1028842F40072028004E002884FF6EF
:1008D000FF531A40028070470CB5024600200023E7
:1008E0000193009300920B0F019321F07F41019B34
:1008F0001BB1009B1433009303E0090C009B1833D9
:100900000093009B1B680B400BB1012000E000200E
:100910000CBD00002DE9F04385B004460D460026CD
:10092000B1460427DFF8CC80A6884FF6C070064099
:10093000684600F007FADDF808802F48B8FBF0F0B1
:100940001FFA80F946EA0906A68020884FF6FE7154
:100950000840208000262949286888420CD8286849
:100960004000B8FBF0F087B2042F00DA04273E43C2
:1009700009F10100208427E0E8884BF6FF718842E6
:1009800006D1286800EB4000B8FBF0F087B209E020
:10099000286800EBC00101EB0010B8FBF0F087B253
:1009A00047F48047C7F30B0008B947F0010747F445
:1009B000004006434FF4967009FB00F04FF47A7143
:1009C00090FBF1F0401C2084A683208840F00100B9
:1009D000208026884FF6F5300640A88869890843AC
:1009E00006432680A88929890843208105B0BDE8EF
:1009F000F083000000127A0040420F00A086010040
:100A00002DE9F04106460F4615461C4600BF4FF43F
:100A100000313248FFF760FF0028F8D101212F484C
:100A2000FFF742FF00BF2E492C48FFF7DEFE0028EB
:100A3000F9D000223146294800F05AF800BF294970
:100A40002648FFF7D2FE0028F9D001212348FFF7FE
:100A5000E1FE3946214800F054F800BF2149891CC5
:100A60001E48FFF7C2FE0028F8D001211B48FFF7FF
:100A70001BFF00BF1A491948FFF7B7FE0028F9D03D
:100A800001223146154800F033F800BF1449491CD3
:100A90001248FFF7AAFE0028F8D016E0012C07D173
:100AA00000210E48FFF795FE01210C48FFF708FFD3
:100AB0000B493F310948FFF798FE30B1074800F075
:100AC00013F828706D1C601E84B2002CE6D1012141
:100AD0000248FFF77EFEBDE8F081000000540040B0
:100AE00001000300820007000146088AC0B2704777
:100AF00012B141F0010102E04FF6FE73194001828C
:100B00007047018270470146CA1701EB927292103A
:100B1000A1EB820292B9642091FBF0F200FB12106B
:100B200050B94FF4C87091FBF0F200FB121008B9F5
:100B3000012070470020FCE70120FAE70020F8E7D9
:100B400008B50121082000F085F80320ADF8000069
:100B500010208DF8030001208DF80200694602483C
:100B6000FFF79CFD08BD0000000C0140F8B50646EB
:100B70000024002502236A4600219E20FFF740FF43
:100B80009DF800400020307004F0800028B1012062
:100B90003070E043C4B2601CC4B204F0010008B17C
:100BA000681CC5B204F0020008B1A81CC5B204F06C
:100BB000040008B1281DC5B204F0080010B105F109
:100BC0000800C5B204F0100010B105F11000C5B264
:100BD00004F0200010B105F12000C5B204F040007F
:100BE00010B105F14000C5B2761C357000259DF8A6
:100BF000014004F0200010B105F10C00C5B204F072
:100C0000400010B105F11900C5B204F0800010B128
:100C100005F13200C5B2761C3570F8BD00BFFEE7A5
:100C200070470000014908627047000000000E4252
:100C30007047000029B1064AD2690243044BDA61C9
:100C400004E0034AD2698243014BDA617047000035
:100C50000010024029B1064A92690243044B9A618E
:100C600004E0034A92698243014B9A617047000095
:100C700000100240014908607047000040044242F1
:100C80000348406A40F080700149486270470000A4
:100C90000010024010B500F02FF84FF4803000F043
:100CA000EDF800F071F90446012C24D14FF4E01165
:100CB000000400F041F9002000F0D4F8A00200F098
:100CC0001DF9002000F026F90220FFF7DBFC1020C0
:100CD000FFF7CAFC012000F029F900BF392000F01D
:100CE0009BF80028FAD0022000F042F900BF00F083
:100CF000B1F80828FBD110BD0F48006840F0010092
:100D00000D490860084640680C4908400A49486097
:100D1000084600680A490840074908600846006814
:100D200020F4802008600846406820F4FE004860F7
:100D30004FF41F0088607047001002400000FFF869
:100D4000FFFFF6FE30B500210022002400232D4DC8
:100D50006D6805F00C0121B1042905D0082923D1C3
:100D600005E0294D056022E0274D05601FE0254D77
:100D70006D6805F47012234D6D6805F4803402250A
:100D800005EB92421CB9214D554305600BE01D4D0A
:100D90006D6805F400351DB11C4D5543056002E03A
:100DA000194D5543056002E0174D056000BF00BFB7
:100DB000144D6D6805F0F0010909154D6B5C05686F
:100DC000DD4045600F4D6D6805F4E061090A104D86
:100DD0006B5C4568DD4085600A4D6D6805F46051C7
:100DE000C90A0B4D6B5C4568DD40C560054D6D68FB
:100DF00005F44041890B074D6B5CC568B5FBF3F505
:100E0000056130BD0010024000127A0000093D006B
:100E1000130000202300002010B50146002200230B
:100E200000204A11012A02D1094C236806E0022A57
:100E300002D1074C236A01E0054C636A01F01F02EE
:100E4000012494401C400CB1012000E0002010BDA2
:100E5000001002400248406800F00C00704700009B
:100E60000010024001460020034A506820F0F000C4
:100E700008435060704700000010024011490968A3
:100E800021F480310F4A11601146096821F4802154
:100E90001160B0F5803F03D0B0F5802F0ED106E091
:100EA0000849096841F48031064A116007E00549A4
:100EB000096841F4A021034A116000E000BF00BFAF
:100EC000704700000010024000210B4A11700A4ACE
:100ED000203A82F82010012802D0042808D103E02B
:100EE0000121054A117004E00521034A117000E058
:100EF00000BF00BF704700002010024001460020E4
:100F0000034A506820F4E0600843506070470000D6
:100F10000010024001460020034A506820F460504F
:100F200040EAC10050607047001002400149086665
:100F3000704700000000424202460020044B5868FF
:100F400020F47C1042EA01031843014B58607047BB
:100F50000010024001490860704700003C04424212
:100F60000249096A0143014A1162704700100240B8
:100F700001460020034A506820F0030008435060F7
:100F8000704700000010024038B500200090002497
:100F9000002500BF3120FFF73FFF05460098401CA9
:100FA00000900098B0F5A06F01D0002DF2D0312054
:100FB000FFF732FF08B1012400E00024204638BDCD
:100FC00010B50420FFF74AFA4AF2A551884207D02B
:100FD00000F02AF84AF2A5510420FFF74DFA0DE07F
:100FE0007B20FFF719FF10B97A20FFF715FFFFF7F5
:100FF00047FE0120FFF7AEFF00F060F910BD0000D2
:101000000348008840F01000014908807047000044
:1010100004280040034800884FF6EF71084001495A
:10102000088070470428004010B501214FF0C050DF
:10103000FFF700FE0120FFF7F5FDFFF707FA01209B
:10104000FFF742FF00BF4120FFF7E6FE0028FAD07D
:101050004FF48070FFF784FF0120FFF77BFF00F063
:101060002DF900F021F947F6FF7000F00DF900F0BE
:101070001BF910BD70B500260024002500F08AF889
:1010800006463A48B6FBF0F439480088A0423DD005
:1010900037490C8040F2B27510E02846FFF733FD67
:1010A00040B1B4F5B77F02D3A4F5B77404E0681C6F
:1010B00085B206E0A4F26D14681C85B2B4F5B67F63
:1010C000EBD800BF2B480580002516E02948008892
:1010D000FFF719FD30B1012D04D11D2C01D31D3CAA
:1010E00009E00CE02448405DA04203D82248405D5E
:1010F000241A00E003E0681C85B21C2CE6D200BF75
:10110000681C1E490870601C1D4908701748B6FB12
:10111000F0F100FB11644FF46160B4FBF0F0194989
:1011200008704FF46160B4FBF0F100FB11403C210A
:10113000B0FBF1F0144908704FF46160B4FBF0F1BA
:1011400000FB11403C21B0FBF1F201FB12000F4902
:1011500008700B480278094801780648008800F0BA
:10116000BFF80B490870002070BD000080510100DD
:101170000800002000000020F830000802000020D5
:1011800003000020040000200500002006000020CD
:1011900007000020002103480188001F008841EA61
:1011A000004070471C2800402DE9F05F06460F46BE
:1011B00090469946DDE90AAB0024B6F5FA6F03DBE9
:1011C00040F63300864202DD0120BDE8F09F40F288
:1011D000B2750AE02846FFF796FC10B11F48044498
:1011E00001E01F480444681C85B2B542F2DB781E5A
:1011F000C7B2002510E01B48405D40F2A3214843E0
:1012000004EBC0143046FFF77EFC18B1012D01D16C
:1012100015480444681C85B2BD42ECDBA8F101000E
:1012200040F2A321484304EBC014C9EB4910C0EBC2
:10123000092004EB0014CAEB0A1004EB80045C44A0
:10124000FFF7F2FE4AF2A5510420FFF715F92046F8
:1012500000F00CF800F028F80020B6E70085E20165
:101260008033E101F83000088051010000B50246EA
:10127000FFF7C6FE100C03490880091D0A80FFF71E
:10128000C9FE00BD1828004000B50246FFF7B8FEB1
:10129000C2F3034003490880091D0A80FFF7BAFE24
:1012A00000BD00000828004000BF0348008800F08F
:1012B00020000028F9D07047042800400748008823
:1012C0004FF6F77108400549088000BF03480088C1
:1012D00000F008000028F9D0704700000428004002
:1012E00070B503461446012901DB0C2901DDFF20FE
:1012F00070BD012901D0022904D101F10C00C1B255
:10130000581E83B2481C00EB4000052590FBF5F009
:10131000022505FB0145284418441A46DD1703EB56
:10132000957500EBA500642593FBF5F5401B4FF484
:10133000C87593FBF5F52844401C072590FBF5F68E
:1013400005FB1600C01D90FBF5F605FB1600C0B2AC
:10135000CEE7000010B501212148FFF72AFA58B95D
:10136000002020490870FFF795F800BF01211C48B4
:10137000FFF71FFA0028F9D002211948FFF719FAE0
:1013800058B9012017490870FFF784F800BF0221FF
:101390001348FFF70EFA0028F9D004211048FFF790
:1013A00008FA58B902200F490870FFF773F800BF18
:1013B00004210B48FFF7FDF90028F9D0082108485F
:1013C000FFF7F7F958B9032006490870FFF762F8EC
:1013D00000BF08210248FFF7ECF90028F9D010BD42
:1013E0000008014012000020704710B500F002F81C
:1013F00010BD00000CB5002001900090334800683B
:1014000040F480303149086000BF3048006800F483
:10141000003000900198401C0190009818B9019884
:10142000B0F5A06FF1D12948006800F4003010B188
:101430000120009001E0002000900098012843D195
:101440002348006840F01000214908600846006801
:1014500020F0030008600846006840F002000860C1
:101460001A4840681949486008464068486008467C
:10147000406840F4806048600846406820F47C1072
:1014800048600846406840F4E81048600846006834
:1014900040F08070086000BF0C48006800F00070E9
:1014A0000028F9D00948406820F003000749486047
:1014B0000846406840F00200486000BF03484068AA
:1014C00000F00C000828F9D10CBD0000001002400B
:1014D000002002407047000010B51348006840F03B
:1014E00001001149086008464068104908400E494B
:1014F0004860084600680E4908400B4908600846E5
:10150000006820F4802008600846406820F4FE004F
:1015100048604FF41F008860FFF767FF4FF00060DE
:101520000449086010BD0000001002400000FFF8F0
:10153000FFFFF6FE08ED00E008B501210420FFF7EB
:1015400089FB4FF4C050ADF8000010208DF8030067
:1015500003208DF8020069460D48FFF79FF801222D
:10156000D1020B48FFF72EF9012211030848FFF7BB
:1015700029F900F037F8402000F072F800F056F832
:1015800000F030F88C2000F06BF800F04FF808BD48
:101590000008014030B589B004460D46202209A15B
:1015A00001A8FEF780FE00F01DF804F1C001C8B2EA
:1015B00000F056F801A9485D00F052F800F036F846
:1015C00009B030BD3F065B4F666D7D077F6FBF86FC
:1015D000DBCFE6EDFD87FFEF004058096D7907315D
:1015E0007738000010B50122D1020F48FFF7EAF862
:1015F000012211030C48FFF7E5F8012000F0FCF888
:1016000000224FF480510848FFF7DCF8012000F079
:10161000F3F800224FF400610348FFF7D3F80120EC
:1016200000F0EAF810BD00000008014010B50022EB
:101630004FF480510948FFF7C5F80122D10207484D
:10164000FFF7C0F8012000F0D7F80122110303488A
:10165000FFF7B8F8012000F0CFF810BD00080140F6
:1016600070B50446254600224FF480512148FFF70B
:10167000A9F800224FF400611E48FFF7A3F80026E6
:1016800028E000224FF400611A48FFF79BF8012080
:1016900000F0B2F805F0010040B101221103154835
:1016A000FFF790F8012000F0A7F808E000224FF4BF
:1016B00080511048FFF786F8012000F09DF80122C4
:1016C000D1020C48FFF77EF8012000F095F86D106C
:1016D000701CC6B2082ED4DB00224FF4805105489E
:1016E000FFF770F800224FF400610248FFF76AF834
:1016F00070BD00000008014008B501210420FFF77B
:10170000A9FA0F20ADF8000048208DF803006946C3
:101710000148FEF7C3FF08BD0008014010B540F2C4
:1017200025511F4800F044F8002838D01C4800F02C
:101730004CF8C4B221461BA0FEF74CFD1A480088A5
:1017400000F4004058BB1848008800F4804060B1A5
:101750000A2C03D000201449088020E01248008899
:1017600040F400401049088019E00D2C06D10E48C5
:10177000008840F480400C49088010E00A48008846
:10178000C0F30D0009490C5407480088401C064965
:10179000088008460088C72801DD0020088010BDA9
:1017A00000380140256300001000002028000020C0
:1017B00002460020B1F5007F00D100BF13880B4026
:1017C0000BB1012000E00020704701468888C0F37B
:1017D0000800704700BFFEE7014600BF704700B534
:1017E000034603E04FF47A7000F006F8181EA3F1E8
:1017F00001018BB2F6D100BD00EBC001C9004FF072
:10180000E0225161002191610521116100BF4FF07B
:10181000E021096901F480310029F8D004214FF05A
:10182000E02211617047000000BF054A128802F0F3
:101830004002002AF9D0C2B2014B1B1D1A8070472A
:101840000038014090B000200E900D900C900B904D
:101850000A9009900890142103A8FEF756FDFFF79F
:1018600019FAFFF76DF9FFF747FFFFF7A9FBFFF73D
:1018700063FEFEF7DBFFFFF73FFFFEF7D7FE4FF4F7
:101880007A70FFF7ACFFFEF721FE01F028BCFE489E
:1018900000780E900898012811D100200890FB488C
:1018A0000078FB490978CDE90010FA480378FA4836
:1018B0000278FA480178FA480088FFF775FC0E981C
:1018C000032802DB0E98092804DDFFF7D3FB0FA8DD
:1018D000FFF74CF90998401C80B209900E98032834
:1018E00022DA0998012801D1E749087040F6B83199
:1018F0000998884202D10020E349087041F28831FA
:101900000998884202D10220DF49087041F6583117
:101910000998884201D10020099041F65831099870
:10192000884201DD002009900E9800285BD1DC4838
:101930000088642190FBF1F201FB12000A2190FB68
:10194000F1F0C0B2014602900020FFF723FED44818
:101950000088642190FBF1F201FB12000A2190FB48
:10196000F1F201FB1200C0B2014602900120FFF724
:1019700011FE15210220FFF70DFEC84800780A214C
:1019800090FBF1F0C0B2014602900320FFF702FE87
:10199000C24800780A2190FBF1F201FB1200C0B2AC
:1019A000014602900420FFF7F5FD15210520FFF701
:1019B000F1FDB94800780A2190FBF1F0C0B2014670
:1019C00002900620FFF7E6FDB34800780A2190FB5D
:1019D000F1F201FB1200C0B2014602900720FFF7AE
:1019E000D9FDFFF7B7FC0E98012851D1A94800781E
:1019F0000A2190FBF1F0C0B2014602900020FFF7EF
:101A0000C9FDA44800780A2190FBF1F201FB120005
:101A1000C0B2014602900120FFF7BCFD1721022051
:101A2000FFF7B8FD9A4800780A2190FBF1F0C0B2A8
:101A3000014602900320FFF7ADFD954800780A218A
:101A400090FBF1F201FB1200C0B2014602900420AB
:101A5000FFF7A0FD17210520FFF79CFD8B480078BC
:101A60000A2190FBF1F0C0B2014602900620FFF778
:101A700091FD864800780A2190FBF1F201FB1200EB
:101A8000C0B2014602900720FFF784FDFFF762FC19
:101A90000E9802284BD114210020FFF77BFD142162
:101AA0000120FFF777FD14210220FFF773FD9DF859
:101AB0003C0020B115210320FFF76CFD03E0142149
:101AC0000320FFF767FD9DF83D00642190FBF1F2D4
:101AD00001FB12000A2190FBF1F0C0B20146029016
:101AE0000420FFF757FD9DF83D000A2190FBF1F21D
:101AF00001FB12000A30C0B2014602900520FFF738
:101B000049FD9DF83E00642190FBF1F201FB1200BB
:101B10000A2190FBF1F0C0B2014602900620FFF7C7
:101B200039FD16210720FFF735FDFFF713FC0E984E
:101B300003287DD114210420FFF72CFD142105205A
:101B4000FFF728FD14210620FFF724FD14210720AC
:101B5000FFF720FD0D9880B918210020FFF71AFD2E
:101B600019210120FFF716FD1A210220FFF712FDAF
:101B70001B210320FFF70EFD13E01C210020FFF7BF
:101B800009FD1D210120FFF705FD0D98401EC0B283
:101B9000014602900220FFF7FDFC14210320FFF70D
:101BA000F9FC01213F48FEF704FE88B90D98401C5E
:101BB000C0B20D900D980A2801DD00200D90FEF7AF
:101BC00069FC00BF01213748FEF7F3FD0028F9D07A
:101BD00002213448FEF7EDFD80B90D9808B90B20BD
:101BE0000D900D98401EC0B20D90FEF753FC00BF43
:101BF00002212C48FEF7DDFD0028F9D004212948F8
:101C0000FEF7D7FD60B900201F4908700D90FEF760
:101C100041FC00BF04212348FEF7CBFD0028F9D08A
:101C200008212048FEF7C5FD10B90D9828B900E03D
:101C300018E004201449087009E00D980930124991
:101C40000870084600780A384006000E0B90002005
:101C50000D90FEF759FC00BF08211248FEF7A9FDC0
:101C60000028F9D00E9804287ED10C98401C80B230
:101C70000C900C98B0F52F7F34DA09480088642165
:101C800090FBF1F210E0000012000020060000209E
:101C900005000020040000200300002002000020B6
:101CA000000000200008014001FB12000A2190FB07
:101CB000F1F0C0B2014602900020FFF76BFCFE4835
:101CC0000088642190FBF1F201FB12000A2190FBD5
:101CD000F1F201FB1200C0B2014602900120FFF7B1
:101CE00059FC07E014210020FFF754FC14210120C7
:101CF000FFF750FC0C98B0F5AF6F01DD00200C90A1
:101D000015210220FFF746FCEC4800780A2190FBE1
:101D1000F1F0C0B2014602900320FFF73BFCE74818
:101D200000780A2190FBF1F201FB1200C0B20146DB
:101D300002900420FFF72EFC15210520FFF72AFC56
:101D4000DF4800780A2190FBF1F0C0B20146029012
:101D50000620FFF71FFCDA4800780A2190FBF1F219
:101D600001FB1200C0B200E0FAE001460290072039
:101D7000FFF710FC0121D348FEF71BFD002862D1BC
:101D80000C9006E00A98401CC0B20A900A20FFF7A7
:101D900026FD0121CB48FEF70CFD10B90A986428F6
:101DA000F0DB0A9864283DDB35E0C3480088401C1E
:101DB000C14908800846008840F63301884203DDA7
:101DC00040F2B270BC4908806420FFF708FDBA48B1
:101DD0000088642190FBF1F201FB12000A2190FBC4
:101DE000F1F0C0B2014602900020FFF7D3FBB248E9
:101DF0000088642190FBF1F201FB12000A2190FBA4
:101E0000F1F201FB1200C0B2014602900120FFF77F
:101E1000C1FBFEF73FFB0121AA48FEF7CAFC0028E0
:101E2000C3D010E0A4480088401CA349088008469D
:101E3000008840F63301884203DD40F2B2709E49CB
:101E40000880FEF727FB02219E48FEF7B2FC00281F
:101E500060D10C9006E00A98401CC0B20A900A209B
:101E6000FFF7BDFC02219748FEF7A3FC10B90A98C2
:101E70006428F0DB0A9864283CDB34E08E48008854
:101E8000401E8D4908800846008840F2B2718842A1
:101E900002DA0846884908806420FFF7A0FC8648DB
:101EA0000088642190FBF1F201FB12000A2190FBF3
:101EB000F1F0C0B2014602900020FFF76BFB7E48B4
:101EC0000088642190FBF1F201FB12000A2190FBD3
:101ED000F1F201FB1200C0B2014602900120FFF7AF
:101EE00059FBFEF7D7FA02217648FEF762FC00287C
:101EF000C4D00FE070480088401E6F490880084633
:101F0000008840F2B271884202DA08466A490880C5
:101F1000FEF7C0FA04216B48FEF74BFC68B90520B8
:101F20006949087001200890FEF7B4FA00BF042147
:101F30006448FEF73EFC0028F9D008216148FEF70E
:101F400038FC68B900206049087001200890FEF74D
:101F500023FB00BF08215B48FEF72BFC0028F9D0CB
:101F60000E98052878D10C98401C80B20C900C98E3
:101F7000B0F52F7F18DA514800780A2190FBF1F074
:101F8000C0B2014602900320FFF704FB4B480078E3
:101F90000A2190FBF1F201FB1200C0B2014602904F
:101FA0000420FFF7F7FA07E014210320FFF7F2FA05
:101FB00014210420FFF7EEFA0C98B0F5AF6F01DDA5
:101FC00000200C903C480088642190FBF1F201FB5A
:101FD00012000A2190FBF1F0C0B2014602900020ED
:101FE000FFF7D8FA34480088642190FBF1F201FB36
:101FF00012000A2190FBF1F201FB1200C0B201466F
:1020000002900120FFF7C6FA15210220FFF7C2FA5D
:1020100015210520FFF7BEFA294800780A2190FB18
:10202000F1F0C0B2014602900620FFF7B3FA24484F
:1020300000780A2190FBF1F201FB1200C0B20146C8
:1020400002900720FFF7A6FA01211E48FEF7B1FB18
:10205000E0BB00200C9007E0D9E00A98401CC0B219
:102060000A900A20FFF7BBFB01211648FEF7A1FBEF
:1020700010B90A986428F0DB0A9864283BDB33E047
:102080000E480078401C0D490870084600780C285E
:1020900001DD012008706420FFF7A1FB07480078EC
:1020A0000A2190FBF1F0C0B2014602900320FFF735
:1020B00071FA024800780AE00000002002000020C7
:1020C00003000020000801401200002020E00A2147
:1020D00090FBF1F201FB1200C0B201460290042015
:1020E000FFF758FAFEF7D6F90121FE48FEF761FB2B
:1020F0000028C5D00CE0FC480078401CFA49087064
:10210000084600780C2801DD01200870FEF7C2F9AE
:102110000221F448FEF74DFBF0BB00200C9006E0D6
:102120000A98401CC0B20A900A20FFF758FB02210F
:10213000EC48FEF73EFB10B90A986428F0DB0A98D9
:10214000642831DB27E0E8480078401EE649087043
:1021500008460078012801DA0C2008706420FFF797
:102160003EFBE14800780A2190FBF1F0C0B2014645
:1021700002900320FFF70EFADB4800780A2190FB5B
:10218000F1F201FB1200C0B2014602900420FFF7F9
:1021900001FAFEF77FF900E013E00221D148FEF7D3
:1021A00008FB0028CFD00CE0CF480078401ECE4975
:1021B000087008460078012801DA0C200870FEF744
:1021C00069F90421C748FEF7F4FA68B90620C7493F
:1021D000087001200890FEF75DF900BF0421C14896
:1021E000FEF7E7FA0028F9D00821BE48FEF7E1FA29
:1021F00068B90020BD49087001200890FEF7CCF9AD
:1022000000BF0821B748FEF7D4FA0028F9D00E988D
:10221000062878D10C98401C80B20C900C98B0F530
:102220002F7F18DAB24800780A2190FBF1F0C0B293
:10223000014602900620FFF7ADF9AD4800780A216B
:1022400090FBF1F201FB1200C0B2014602900720A0
:10225000FFF7A0F907E014210620FFF79BF91421EE
:102260000720FFF797F90C98B0F5AF6F01DD00205C
:102270000C90A0480088642190FBF1F201FB120051
:102280000A2190FBF1F0C0B2014602900020FFF756
:1022900081F998480088642190FBF1F201FB12005B
:1022A0000A2190FBF1F201FB1200C0B2014602903C
:1022B0000120FFF76FF915210220FFF76BF98A481B
:1022C00000780A2190FBF1F0C0B201460290032091
:1022D000FFF760F9844800780A2190FBF1F201FBD6
:1022E0001200C0B2014602900420FFF753F91521F5
:1022F0000520FFF74FF901217A48FEF75AFAE8BBAB
:1023000000200C9007E0CFE00A98401CC0B20A9071
:102310000A20FFF764FA01217248FEF74AFA10B961
:102320000A986428F0DB0A98642831DB29E07048B9
:102330000078401C6E490870084600781F2801DDAF
:10234000012008706420FFF74AFA694800780A21E2
:1023500090FBF1F0C0B2014602900620FFF71AF997
:10236000634800780A2190FBF1F201FB1200C0B231
:10237000014602900720FFF70DF900E015E0FEF797
:1023800089F801215748FEF714FA0028CFD00CE055
:1023900057480078401C56490870084600781F28A6
:1023A00001DD01200870FEF775F802214D48FEF7A7
:1023B00000FAE0BB00200C9006E00A98401CC0B276
:1023C0000A900A20FFF70BFA02214648FEF7F1F9BE
:1023D00010B90A986428F0DB0A98642831DB29E0F8
:1023E00043480078401E424908700846007801289A
:1023F00001DA1F2008706420FFF7F1F93C480078EB
:102400000A2190FBF1F0C0B2014602900620FFF7CE
:10241000C1F8374800780A2190FBF1F201FB120065
:10242000C0B2014602900720FFF7B4F800E015E0C3
:10243000FEF730F802212B48FEF7BBF90028CFD079
:102440000CE02B480078401E2949087008460078A7
:10245000012801DA1F200870FEF71CF8042121482A
:10246000FEF7A7F968B907202049087001200890F5
:10247000FEF710F800BF04211A48FEF79AF9002869
:10248000F9D008211748FEF794F968B900201749D8
:10249000087001200890FEF77FF800BF082111485E
:1024A000FEF787F90028F9D00E9807287BD10C9801
:1024B000401C80B20C900C98B0F52F7F25DA0E48A6
:1024C00000780A2190FBF1F0C0B201460290002092
:1024D000FFF760F8084800780A2190FBF1F201FB51
:1024E00012000BE000080140020000201200002052
:1024F000030000200000002004000020C0B20146BC
:1025000002900120FFF746F807E014210020FFF7B2
:1025100041F814210120FFF73DF80C98B0F5AF6F9A
:1025200001DD00200C9017210220FFF733F8FE4850
:1025300000780A2190FBF1F0C0B20146029003201E
:10254000FFF728F8F84800780A2190FBF1F201FB28
:102550001200C0B2014602900420FFF71BF81721B9
:102560000520FFF717F8F14800780A2190FBF1F0F9
:10257000C0B2014602900620FFF70CF8EB48007845
:102580000A2190FBF1F201FB1200C0B20146029059
:102590000720FEF7FFFF0121E548FEF70AF9E8BB37
:1025A00000200C9007E0CEE00A98401CC0B20A90D0
:1025B0000A20FFF714F90121DD48FEF7FAF810B9F7
:1025C0000A986428F0DB0A98642831DB29E0D948AE
:1025D0000078401CD749087008460078172801DDAC
:1025E000002008706420FFF7FAF8D24800780A212A
:1025F00090FBF1F0C0B2014602900020FEF7CAFF46
:10260000CC4800780A2190FBF1F201FB1200C0B225
:10261000014602900120FEF7BDFF00E015E0FDF746
:1026200039FF0121C248FEF7C4F80028CFD00CE0E2
:10263000C0480078401CBF49087008460078172839
:1026400001DD00200870FDF725FF0221B848FEF7E4
:10265000B0F8E0BB00200C9006E00A98401CC0B225
:102660000A900A20FFF7BBF80221B148FEF7A1F853
:1026700010B90A986428F0DB0A98642831DB29E055
:10268000AC48007810B91820AA490870A948007809
:10269000401EA84908706420FFF7A1F8A5480078FB
:1026A0000A2190FBF1F0C0B2014602900020FEF733
:1026B00071FFA04800780A2190FBF1F201FB1200A3
:1026C000C0B2014602900120FEF764FF00E015E071
:1026D000FDF7E0FE02219648FEF76BF80028CFD008
:1026E0000CE09448007810B918209249087091487D
:1026F0000078401E8F490870FDF7CCFE04218C48FD
:10270000FEF757F868B908208B4908700120089037
:10271000FDF7C0FE00BF04218548FEF74AF80028F7
:10272000F9D008218248FEF744F860B901208249B7
:1027300008700890FDF730FF00BF08217C48FEF7C5
:1027400038F80028F9D00E9808286ED10C98401C53
:1027500080B20C900C98B0F52F7F18DA7248007890
:102760000A2190FBF1F0C0B2014602900320FEF76F
:1027700011FF6D4800780A2190FBF1F201FB120075
:10278000C0B2014602900420FEF704FF07E01421C6
:102790000320FEF7FFFE14210420FEF7FBFE0C9839
:1027A000B0F5AF6F01DD00200C90624800780A217F
:1027B00090FBF1F0C0B2014602900020FEF7EAFE65
:1027C0005C4800780A2190FBF1F201FB1200C0B2D4
:1027D000014602900120FEF7DDFE17210220FEF7E0
:1027E000D9FE17210520FEF7D5FE504800780A21B2
:1027F00090FBF1F0C0B2014602900620FEF7CAFE3F
:102800004A4800780A2190FBF1F201FB1200C0B2A5
:10281000014602900720FEF7BDFE01214448FDF766
:10282000C8FFE8BB00200C9007E0D8E00A98401CE5
:10283000C0B20A900A20FEF7D2FF01213C48FDF702
:10284000B8FF10B90A986428F0DB0A98642831DBD5
:1028500029E035480078401C334908700846007864
:102860003B2801DD002008706420FEF7B8FF2E48E9
:1028700000780A2190FBF1F0C0B2014602900320DB
:10288000FEF788FE284800780A2190FBF1F201FB50
:102890001200C0B2014602900420FEF77BFE00E069
:1028A00015E0FDF7F7FD01212148FDF782FF002823
:1028B000CFD00CE01C480078401C1B49087008462B
:1028C00000783B2801DD00200870FDF7E3FD0221C0
:1028D0001748FDF76EFF88BB00200C9006E00A98B1
:1028E000401CC0B20A900A20FEF779FF022110486E
:1028F000FDF75FFF10B90A986428F0DB0A98642896
:102900003BDB33E00848007810B93C2006490870EA
:1029100005480078401E044908706420FEF75FFFF8
:10292000014800780A210AE0050000200600002086
:102930000008014004000020120000202AE090FB63
:10294000F1F0C0B2014602900320FEF723FEFE48DC
:1029500000780A2190FBF1F201FB1200C0B201469F
:1029600002900420FEF716FEFDF794FD0221F748C1
:10297000FDF71FFF0028C5D00CE0F348007810B920
:102980003C20F1490870F0480078401EEE4908707C
:10299000FDF780FD0421ED48FDF70BFF68B9092024
:1029A000EB49087001200890FDF774FD00BF042179
:1029B000E648FDF7FEFE0028F9D00821E348FDF7C0
:1029C000F8FE60B90120E24908700890FDF7E4FDC7
:1029D00000BF0821DD48FDF7ECFE0028F9D00E9875
:1029E00009286ED10C98401C80B20C900C98B0F560
:1029F0002F7F18DAD74800780A2190FBF1F0C0B297
:102A0000014602900620FEF7C5FDD24800780A2153
:102A100090FBF1F201FB1200C0B2014602900720C8
:102A2000FEF7B8FD07E014210620FEF7B3FD1421E0
:102A30000720FEF7AFFD0C98B0F5AF6F01DD002069
:102A40000C90C54800780A2190FBF1F0C0B2014615
:102A500002900020FEF79EFDBF4800780A2190FBFF
:102A6000F1F201FB1200C0B2014602900120FEF714
:102A700091FD17210220FEF78DFDB34800780A2151
:102A800090FBF1F0C0B2014602900320FEF782FDF8
:102A9000AD4800780A2190FBF1F201FB1200C0B2B0
:102AA000014602900420FEF775FD17210520FEF770
:102AB00071FD0121A548FDF77CFEE8BB00200C90CC
:102AC00007E0CEE00A98401CC0B20A900A20FEF748
:102AD00086FE01219D48FDF76CFE10B90A98642816
:102AE000F0DB0A98642831DB29E09A480078401C22
:102AF00098490870084600783B2801DD00200870DE
:102B00006420FEF76CFE934800780A2190FBF1F0F8
:102B1000C0B2014602900620FEF73CFD8D480078C9
:102B20000A2190FBF1F201FB1200C0B201460290B3
:102B30000720FEF72FFD00E015E0FDF7ABFC0121BB
:102B40008248FDF736FE0028CFD00CE0814800789F
:102B5000401C80490870084600783B2801DD0020B1
:102B60000870FDF797FC02217848FDF722FEE0BBD4
:102B700000200C9006E00A98401CC0B20A900A207F
:102B8000FEF72DFE02217148FDF713FE10B90A98D9
:102B90006428F0DB0A98642831DB29E06D4800786E
:102BA00010B93C206B4908706A480078401E69499A
:102BB00008706420FEF713FE664800780A2190FB37
:102BC000F1F0C0B2014602900620FEF7E3FC614836
:102BD00000780A2190FBF1F201FB1200C0B201461D
:102BE00002900720FEF7D6FC00E015E0FDF752FC4E
:102BF00002215648FDF7DDFD0028CFD00CE05548F6
:102C0000007810B93C205349087052480078401EA3
:102C100050490870FDF73EFC04214C48FDF7C9FD02
:102C200068B904204A49087001200890FDF732FC79
:102C300000BF04214548FDF7BCFD0028F9D008215C
:102C40004248FDF7B6FD60B901204149087008907F
:102C5000FDF7A2FC00BF08213C48FDF7AAFD0028B3
:102C6000F9D00E98092879DD0E98142876DA0C9898
:102C7000401C80B20C900E980A3841000B9881429B
:102C80004CD10C98B0F52F7F1ADA03A90B98085C89
:102C90000A2190FBF1F0C0B2014602900320FEF73A
:102CA00079FC03A90B98085C0A2190FBF1F201FB67
:102CB0001200C0B2014602900420FEF76BFC07E050
:102CC00014210320FEF766FC14210420FEF762FCA9
:102CD0000C98B0F5AF6F01DD00200C901721052096
:102CE000FEF758FC03A90B98401C085C0A2190FBD6
:102CF000F1F0C0B2014602900620FEF74BFC03A99A
:102D00000B98401C085C0A2190FBF1F201FB1200B9
:102D1000C0B2014602900720FEF73CFC0E980A382C
:102D20004000401C0B99884258D10C98B0F52F7F79
:102D300026DA03A90B98085C0A2190FBF1F0C0B2D7
:102D40000146029006200AE005000020000801402C
:102D5000120000200600002004000020BEE1FEF763
:102D600019FC03A90B98085C0A2190FBF1F201FB06
:102D70001200C0B2014602900720FEF70BFC07E0EC
:102D800014210620FEF706FC14210720FEF702FCA2
:102D90000C98B0F5AF6F01DD00200C900B98401E31
:102DA00003A9085C0A2190FBF1F0C0B20146029031
:102DB0000320FEF7EFFB0B98401E03A9085C0A21D5
:102DC00090FBF1F201FB1200C0B201460290042018
:102DD000FEF7E0FB17210520FEF7DCFB0121C148CF
:102DE000FDF7E7FCF0BB00200C9006E00A98401CC1
:102DF000C0B20A900A20FEF7F2FC0121B948FDF7A3
:102E0000D8FC10B90A986428F0DB0A98642862DBC1
:102E10005AE003A90B98085C401CC1B203AA0B98A6
:102E200011540E980A3841000B98814224D103A90D
:102E30000B98085C172802DD00210B98115403A998
:102E40000B98085C0A2190FBF1F0C0B20146029099
:102E50000320FEF79FFB03A90B98085C0A2190FB57
:102E6000F1F200E059E001FB1200C0B2014602900D
:102E70000420FEF78FFB22E003A90B98085C3B2897
:102E800003DD002103AA0B98115403A90B98085CD9
:102E90000A2190FBF1F0C0B2014602900620FEF735
:102EA00079FB03A90B98085C0A2190FBF1F201FB66
:102EB0001200C0B2014602900720FEF76BFB6420AF
:102EC000FEF78DFCFDF7E6FA01218648FDF771FC5F
:102ED00000289ED021E003A90B98085C401CC1B2D9
:102EE00003AA0B9811540E980A3841000B9881429E
:102EF00008D103A90B98085C17280CDD00210B985A
:102F0000115408E003A90B98085C3B2803DD00215D
:102F100003AA0B981154FDF7BDFA02217148FDF781
:102F200048FCE0BB00200C9006E00A98401CC0B2B0
:102F30000A900A20FEF753FC02216A48FDF739FC8B
:102F400010B90A986428F0DB0A98642869DB61E00C
:102F50000E980A3841000B9881422CD103A90B9896
:102F6000085C18B9182103AA0B98115403A90B98EF
:102F7000085C401EC1B203AA0B98115403A90B9818
:102F8000085C0A2190FBF1F0C0B2014602900320D8
:102F9000FEF700FB03A90B98085C0A2100E069E03A
:102FA00090FBF1F201FB1200C0B201460290042036
:102FB000FEF7F0FA29E003A90B98085C18B93C2148
:102FC00003AA0B98115403A90B98085C401EC1B2C8
:102FD00003AA0B98115403A90B98085C0A2190FBD3
:102FE000F1F0C0B2014602900620FEF7D3FA03A921
:102FF0000B98085C0A2190FBF1F201FB1200C0B2B1
:10300000014602900720FEF7C5FA6420FEF7E7FBB1
:10301000FDF740FA02213348FDF7CBFB002897D09B
:1030200028E00E980A3841000B98814210D103A97C
:103030000B98085C18B9182103AA0B98115403A91E
:103040000B98085C401EC1B203AA0B9811540FE004
:1030500003A90B98085C18B93C2103AA0B981154DA
:1030600003A90B98085C401EC1B203AA0B98115427
:10307000FDF710FA04211B48FDF79BFBD0B90E9811
:103080000A3841000B98814206D10E980A38400058
:10309000401CC0B20B9004E00E980A384006000EA7
:1030A0000B90FDF7F7F900BF04210E48FDF781FBF7
:1030B0000028F9D008210B48FDF77BFB70B90020F0
:1030C0000C900B90012008490870FDF765FA00BFCD
:1030D00008210448FDF76DFB0028F9D000BFFEF77A
:1030E000D6BB0000000801401200002000030306C8
:1030F00001040602050003051F1C1F1E1F1E1F1FC3
:103100001E1F1E1F243100080000002028000000A0
:10311000280100084C310008280000202807000082
:103120004401000800000000000000000000000052
:103130000000000000000000000000010203040184
:0C31400002030406070809020406080048
:04000005080000ED02
:00000001FF
