:020000040800F2
:100000005007002091010008450B0008F306000886
:10001000410B000885050008F916000800000000E3
:100020000000000000000000000000000D130008A8
:100030008905000800000000550B0008F9130008AE
:10004000AB010008AB010008AB010008AB010008E0
:10005000AB010008AB010008AB010008AB010008D0
:10006000AB010008AB010008AB010008AB010008C0
:10007000AB010008AB010008AB010008AB010008B0
:10008000AB010008AB010008AB010008AB010008A0
:10009000AB010008AB010008AB010008AB01000890
:1000A000AB010008AB010008AB010008AB01000880
:1000B000AB010008AB010008AB010008AB01000870
:1000C000AB010008AB010008AB010008AB01000860
:1000D000AB01000841160008AB010008AB010008A5
:1000E000AB010008AB010008AB01000800F002F80A
:1000F00000F03FF80AA090E8000C82448344AAF183
:100100000107DA4501D100F034F8AFF2090EBAE880
:100110000F0013F0010F18BFFB1A43F0010318473B
:100120007C2900009C290000103A24BF78C878C1BF
:10013000FAD8520724BF30C830C144BF04680C60ED
:10014000704700000023002400250026103A28BF35
:1001500078C1FBD8520728BF30C148BF0B60704739
:10016000632900F0E080002070471FB51FBD10B567
:1001700010BD00F013F91146FFF7F7FF01F0F4FA94
:1001800000F031F903B4FFF7F2FF03BC01F0B6FA57
:100190000948804709480047FEE7FEE7FEE7FEE71B
:1001A000FEE7FEE7FEE7FEE7FEE7FEE70448054957
:1001B000054A064B70470000FD130008ED000008DB
:1001C0005001002050070020500300205003002061
:1001D000704700000FB4044910B503AA029800F05C
:1001E000AFF810BC5DF814FB0C0000202DE9F041C5
:1001F0000E460446002020622046E168884730B35E
:10020000252805D0D4E901219047206A401CF2E757
:10021000E168204600278847050018D0A5F1410075
:10022000192802D820354FF4006732462946204667
:100230002760FFF795FF40B1012804D0F61D26F096
:1002400007060836D8E7361DD6E72846DAE7206ADB
:10025000BDE8F08170B50C460546012A05D0287826
:10026000800600D5EA69002302E0012305E05B1C5B
:10027000934202D2E05C0028F9D1A869E618C01ABE
:10028000A861286A184428622846AFF3008004E079
:10029000D5E9012114F8010B9047B442F8D3284660
:1002A000AFF3008070BD10B5203AC0F00B80B1E80C
:1002B0001850203AA0E81850B1E81850A0E818509B
:1002C000BFF4F5AF5FEA027C24BFB1E81850A0E8A4
:1002D000185044BF18C918C0BDE810405FEA827CBE
:1002E00024BF51F8043B40F8043B08BF7047D207D5
:1002F00028BF31F8023B48BF11F8012B28BF20F876
:10030000023B48BF00F8012B7047704770477047A9
:10031000704710B5436913B1AFF3008001E0FFF7F8
:1003200099FF012010BD127800F124010A7000220B
:100330004A700122EDE711684FF0FF32E9E7000053
:10034000074B70B50D467B4400F011F80446284673
:1003500000F020F810B14FF0FF3070BD204670BDA6
:100360000314000001694A1C02610878704700B557
:100370008FB0CDE901310021059105497944CDE9DE
:10038000031011466846FFF731FF0FB000BD0000B3
:10039000E5FFFFFF007B00F080007047754600F02E
:1003A0002BF8AE4605006946534620F00700854607
:1003B00018B020B5FFF7FAFEBDE820404FF0000668
:1003C0004FF000074FF000084FF0000B21F007013D
:1003D000AC46ACE8C009ACE8C009ACE8C009ACE880
:1003E000C0098D46704710B50446AFF30080204623
:1003F000BDE81040FFF7C6BE00487047F00000207F
:1004000010B5012000F0C8FB002000F0C5FB10BDB6
:1004100008B5014600200090034800900098084469
:1004200000900098008808BD006C004008B50022CC
:100430000092044A0092009A02440092009A1160CD
:1004400008BD0000006C004010B5002413E000223D
:1004500020210A4800F048F94FF4FA7001F05EF9E3
:1004600001222021054800F03FF94FF4FA7001F015
:1004700055F9601C84B2C82CE9DB10BD000C0140AA
:1004800010B5002413E0002220210B4800F02CF9C5
:100490004FF4487001F042F901222021064800F093
:1004A00023F94FF4487001F039F9601C84B2B4F5B7
:1004B000C87FE8DB10BD0000000C014010B500242F
:1004C00011E000222021214800F00EF9C82001F09F
:1004D00025F9012220211D4800F006F9C82001F06D
:1004E0001DF9601C84B2B4F5E17FEADB002413E05F
:1004F00000222021154800F0F7F84FF4C87001F0F1
:100500000DF901222021114800F0EEF84FF4C870D7
:1005100001F004F9601C84B2FA2CE9DB002411E03C
:1005200000222021094800F0DFF8642001F0F6F8ED
:1005300001222021054800F0D7F8642001F0EEF8F0
:10054000601C84B2B4F5E17FEADB10BD000C014011
:1005500008B50121082000F00FFB10208DF80300E2
:100560002020ADF8000003208DF802006946044801
:1005700000F026F801222021014800F0B5F808BD5E
:10058000000C014000BFFEE7704700000549096804
:1005900021F01001034A11601146096801431160FE
:1005A000704700000020024001460020034A106806
:1005B00000F038000843106070470000002002403F
:1005C0002DE9F041024600250026002000230024EA
:1005D000002791F803C00CF00F0591F803C00CF050
:1005E000100CBCF1000F03D091F802C04CEA0505D5
:1005F00091F800C0BCF1000F31D0146800202BE04E
:100600004FF0010C0CFA00F3B1F800C00CEA03063D
:100610009E4220D183004FF00F0C0CFA03F7BC432D
:1006200005FA03FC4CEA040491F803C0BCF1280F5E
:1006300006D14FF0010C0CFA00FCC2F814C00AE01D
:1006400091F803C0BCF1480F05D14FF0010C0CFA32
:1006500000FCC2F810C0401C0828D1D31460B1F8C7
:1006600000C0BCF1FF0F34DD546800202EE000F123
:10067000080C4FF0010808FA0CF3B1F800C00CEABE
:1006800003069E4221D183004FF00F0C0CFA03F7B2
:10069000BC4305FA03FC4CEA040491F803C0BCF126
:1006A000280F05D100F1080C08FA0CF8C2F81480E4
:1006B00091F803C0BCF1480F07D100F1080C4FF0CE
:1006C000010808FA0CF8C2F81080401C0828CED3A4
:1006D0005460BDE8F0810246002093680B400BB1E6
:1006E000012000E0002070470AB1016100E0416193
:1006F000704700BFFEE721B1028842F480620280A9
:1007000004E002884FF6FF331A400280704770B54C
:1007100002460024002500230020958A138B1B0429
:1007200045EA030626F07F4404EA01068E4201D121
:10073000012000E0002070BD21B1028842F00102DA
:10074000028004E002884FF6FE731A400280704770
:100750001FB500F021F80020ADF804004BF6FF7043
:10076000ADF80600C020ADF808004FF48060ADF889
:100770000A000001ADF80C000548009069460548E4
:1007800000F05AF801210348FFF7D6FF1FBD000013
:10079000400D03000054004008B50121082000F07E
:1007A000EBF90121480500F0D7F9C020ADF80000B1
:1007B0001C208DF8030003208DF8020069460248D2
:1007C000FFF7FEFE08BD0000000C014021B10288C9
:1007D00042F48072028004E002884FF6FF631A4000
:1007E0000280704721B1028842F40072028004E066
:1007F00002884FF6FF531A40028070470CB502463C
:10080000002000230193009300920B0F019321F02D
:100810007F41019B1BB1009B1433009303E0090C43
:10082000009B18330093009B1B680B400BB1012009
:1008300000E000200CBD00002DE9F04385B0044627
:100840000D460026B1460427DFF8CC80A6884FF677
:10085000C0700640684600F007FADDF808802F48AF
:10086000B8FBF0F01FFA80F946EA0906A680208856
:100870004FF6FE71084020800026294928688842EA
:100880000CD828684000B8FBF0F087B2042F00DADB
:1008900004273E4309F10100208427E0E8884BF655
:1008A000FF71884206D1286800EB4000B8FBF0F0E9
:1008B00087B209E0286800EBC00101EB0010B8FB2B
:1008C000F0F087B247F48047C7F30B0008B947F050
:1008D000010747F4004006434FF4967009FB00F00F
:1008E0004FF47A7190FBF1F0401C2084A68320889D
:1008F00040F00100208026884FF6F5300640A88899
:100900006989084306432680A889298908432081EC
:1009100005B0BDE8F083000000127A0040420F00ED
:10092000A08601002DE9F04106460F4615461C46FB
:1009300000BF4FF400313248FFF760FF0028F8D1C4
:1009400001212F48FFF742FF00BF2E492C48FFF737
:10095000DEFE0028F9D000223146294800F05AF87E
:1009600000BF29492648FFF7D2FE0028F9D001210F
:100970002348FFF7E1FE3946214800F054F800BF54
:100980002149891C1E48FFF7C2FE0028F8D001212A
:100990001B48FFF71BFF00BF1A491948FFF7B7FEB6
:1009A0000028F9D001223146154800F033F800BF85
:1009B0001449491C1248FFF7AAFE0028F8D016E097
:1009C000012C07D100210E48FFF795FE01210C48AC
:1009D000FFF708FF0B493F310948FFF798FE30B198
:1009E000074800F013F828706D1C601E84B2002CBC
:1009F000E6D101210248FFF77EFEBDE8F08100004C
:100A00000054004001000300820007000146088AEC
:100A1000C0B2704712B141F0010102E04FF6FE731F
:100A2000194001827047018270470146CA1701EBE5
:100A300092729210A1EB820292B9642091FBF0F2C3
:100A400000FB121050B94FF4C87091FBF0F200FB9C
:100A5000121008B9012070470020FCE70120FAE7D6
:100A60000020F8E708B50121082000F085F80320F0
:100A7000ADF8000010208DF8030001208DF8020071
:100A800069460248FFF79CFD08BD0000000C0140CC
:100A9000F8B506460024002502236A4600219E2060
:100AA000FFF740FF9DF800400020307004F0800008
:100AB00028B101203070E043C4B2601CC4B204F01D
:100AC000010008B1681CC5B204F0020008B1A81CFE
:100AD000C5B204F0040008B1281DC5B204F0080036
:100AE00010B105F10800C5B204F0100010B105F115
:100AF0001000C5B204F0200010B105F12000C5B20D
:100B000004F0400010B105F14000C5B2761C35700C
:100B100000259DF8014004F0200010B105F10C0003
:100B2000C5B204F0400010B105F11900C5B204F0DF
:100B3000800010B105F13200C5B2761C3570F8BDE9
:100B400000BFFEE7704700000149086270470000DF
:100B500000000E427047000029B1064AD2690243E4
:100B6000044BDA6104E0034AD2698243014BDA6143
:100B7000704700000010024029B1064A9269024302
:100B8000044B9A6104E0034A92698243014B9A61E3
:100B900070470000001002400149086070470000E3
:100BA000400442420348406A40F080700149486274
:100BB000704700000010024010B500F02FF84FF40D
:100BC000803000F0EDF800F071F90446012C24D1DA
:100BD0004FF4E011000400F041F9002000F0D4F8D7
:100BE000A00200F01DF9002000F026F90220FFF716
:100BF000DBFC1020FFF7CAFC012000F029F900BF40
:100C0000392000F09BF80028FAD0022000F042F9C9
:100C100000BF00F0B1F80828FBD110BD0F480068F4
:100C200040F001000D490860084640680C49084042
:100C30000A494860084600680A49084007490860B0
:100C40000846006820F4802008600846406820F4C8
:100C5000FE0048604FF41F0088607047001002409B
:100C60000000FFF8FFFFF6FE30B50021002200244F
:100C700000232D4D6D6805F00C0121B1042905D02C
:100C8000082923D105E0294D056022E0274D0560A4
:100C90001FE0254D6D6805F47012234D6D6805F455
:100CA0008034022505EB92421CB9214D5543056065
:100CB0000BE01D4D6D6805F400351DB11C4D55430D
:100CC000056002E0194D5543056002E0174D0560CF
:100CD00000BF00BF144D6D6805F0F0010909154D06
:100CE0006B5C0568DD4045600F4D6D6805F4E061A3
:100CF000090A104D6B5C4568DD4085600A4D6D68E2
:100D000005F46051C90A0B4D6B5C4568DD40C56058
:100D1000054D6D6805F44041890B074D6B5CC56856
:100D2000B5FBF3F5056130BD0010024000127A00FA
:100D300000093D00130000202300002010B50146EB
:100D40000022002300204A11012A02D1094C236805
:100D500006E0022A02D1074C236A01E0054C636ACF
:100D600001F01F02012494401C400CB1012000E05E
:100D7000002010BD001002400248406800F00C0046
:100D8000704700000010024001460020034A5068EE
:100D900020F0F0000843506070470000001002404F
:100DA0001149096821F480310F4A11601146096820
:100DB00021F480211160B0F5803F03D0B0F5802F81
:100DC0000ED106E00849096841F48031064A1160F5
:100DD00007E00549096841F4A021034A116000E0D9
:100DE00000BF00BF704700000010024000210B4A06
:100DF00011700A4A203A82F82010012802D00428F3
:100E000008D103E00121054A117004E00521034ADD
:100E1000117000E000BF00BF7047000020100240CA
:100E200001460020034A506820F4E0600843506007
:100E3000704700000010024001460020034A50683D
:100E400020F4605040EAC10050607047001002403A
:100E50000149086670470000000042420246002037
:100E6000044B586820F47C1042EA01031843014BFC
:100E70005860704700100240014908607047000048
:100E80003C0442420249096A0143014A1162704727
:100E90000010024001460020034A506820F0030081
:100EA00008435060704700000010024038B5002031
:100EB00000900024002500BF3120FFF73FFF0546CA
:100EC0000098401C00900098B0F5A06F01D0002D54
:100ED000F2D03120FFF732FF08B1012400E00024F6
:100EE000204638BD10B50420FFF792FA4AF2A5510A
:100EF000884207D000F02AF84AF2A5510420FFF7F3
:100F000095FA0DE07B20FFF719FF10B97A20FFF763
:100F100015FFFFF747FE0120FFF7AEFF00F060F975
:100F200010BD00000348008840F01000014908800F
:100F30007047000004280040034800884FF6EF7116
:100F400008400149088070470428004010B501217D
:100F50004FF0C050FFF700FE0120FFF7F5FDFFF74F
:100F60004FFA0120FFF742FF00BF4120FFF7E6FEE6
:100F70000028FAD04FF48070FFF784FF0120FFF7BC
:100F80007BFF00F02DF900F021F947F6FF7000F02B
:100F90000DF900F01BF910BD70B5002600240025E6
:100FA00000F08AF806463A48B6FBF0F43948008863
:100FB000A0423DD037490C8040F2B27510E028467F
:100FC000FFF733FD40B1B4F5B77F02D3A4F5B77492
:100FD00004E0681C85B206E0A4F26D14681C85B2BA
:100FE000B4F5B67FEBD800BF2B480580002516E08E
:100FF00029480088FFF719FD30B1012D04D11D2CBF
:1010000001D31D3C09E00CE02448405DA04203D818
:101010002248405D241A00E003E0681C85B21C2CC5
:10102000E6D200BF681C1E490870601C1D4908708C
:101030001748B6FBF0F100FB11644FF46160B4FB9C
:10104000F0F0194908704FF46160B4FBF0F100FB57
:1010500011403C21B0FBF1F0144908704FF461607D
:10106000B4FBF0F100FB11403C21B0FBF1F201FBBD
:1010700012000F4908700B480278094801780648A9
:10108000008800F0BFF80B490870002070BD000018
:10109000805101000800002000000020902A000874
:1010A00002000020030000200400002005000020B2
:1010B0000600002007000020002103480188001FCF
:1010C000008841EA004070471C2800402DE9F05F8D
:1010D00006460F4690469946DDE90AAB0024B6F570
:1010E000FA6F03DB40F63300864202DD0120BDE8E3
:1010F000F09F40F2B2750AE02846FFF796FC10B167
:101100001F48044401E01F480444681C85B2B542EE
:10111000F2DB781EC7B2002510E01B48405D40F2AC
:10112000A321484304EBC0143046FFF77EFC18B1FE
:10113000012D01D115480444681C85B2BD42ECDB89
:10114000A8F1010040F2A321484304EBC014C9EB0D
:101150004910C0EB092004EB0014CAEB0A1004EBA1
:1011600080045C44FFF7F2FE4AF2A5510420FFF729
:101170005DF9204600F00CF800F028F80020B6E7F2
:101180000085E2018033E101902A000880510100CE
:1011900000B50246FFF7C6FE100C03490880091D82
:1011A0000A80FFF7C9FE00BD1828004000B50246BE
:1011B000FFF7B8FEC2F3034003490880091D0A8007
:1011C000FFF7BAFE00BD00000828004000BF03483A
:1011D000008800F020000028F9D070470428004063
:1011E000074800884FF6F77108400549088000BF9E
:1011F0000348008800F008000028F9D0704700007C
:101200000428004070B503461446012901DB0C296F
:1012100001DDFF2070BD012901D0022904D101F1B7
:101220000C00C1B2581E83B2481C00EB40000525DB
:1012300090FBF5F0022505FB0145284418441A46A9
:10124000DD1703EB957500EBA500642593FBF5F521
:10125000401B4FF4C87593FBF5F52844401C072547
:1012600090FBF5F605FB1600C01D90FBF5F605FB9F
:101270001600C0B2CEE7000010B501212148FFF7EB
:101280002AFA58B9002020490870FFF7DDF800BF9E
:1012900001211C48FFF71FFA0028F9D00221194844
:1012A000FFF719FA58B9012017490870FFF7CCF871
:1012B00000BF02211348FFF70EFA0028F9D00421DD
:1012C0001048FFF708FA58B902200F490870FFF7D5
:1012D000BBF800BF04210B48FFF7FDF90028F9D047
:1012E00008210848FFF7F7F958B9032006490870A4
:1012F000FFF7AAF800BF08210248FFF7ECF9002821
:10130000F9D010BD0008014012000020704710B550
:1013100000F002F810BD00000CB500200190009014
:101320003348006840F480303149086000BF3048DD
:10133000006800F4003000900198401C0190009873
:1013400018B90198B0F5A06FF1D12948006800F4F0
:10135000003010B10120009001E0002000900098C2
:10136000012843D12348006840F01000214908605B
:101370000846006820F0030008600846006840F056
:10138000020008601A4840681949486008464068E9
:1013900048600846406840F48060486008464068FD
:1013A00020F47C1048600846406840F4E81048602B
:1013B0000846006840F08070086000BF0C48006874
:1013C00000F000700028F9D00948406820F00300C0
:1013D000074948600846406840F00200486000BF86
:1013E0000348406800F00C000828F9D10CBD00004B
:1013F00000100240002002407047000010B5134862
:10140000006840F001001149086008464068104932
:1014100008400E494860084600680E4908400B49DC
:1014200008600846006820F480200860084640688C
:1014300020F4FE0048604FF41F008860FFF767FF4C
:101440004FF000600449086010BD00000010024029
:101450000000FFF8FFFFF6FE08ED00E008B50121EF
:101460000420FFF789FB4FF4C050ADF800001020B6
:101470008DF8030003208DF8020069460D48FFF740
:101480009FF80122D1020B48FFF72EF90122110328
:101490000848FFF729F900F037F8402000F072F80B
:1014A00000F056F800F030F88C2000F06BF800F0F7
:1014B0004FF808BD0008014030B589B004460D461C
:1014C000202209A101A8FEF7EEFE00F01DF804F1AC
:1014D000C001C8B200F056F801A9485D00F052F80A
:1014E00000F036F809B030BD3F065B4F666D7D07F2
:1014F0007F6FBF86DBCFE6EDFD87FFEF0040580929
:101500006D7907317738000010B50122D1020F48FC
:10151000FFF7EAF8012211030C48FFF7E5F8012074
:1015200000F0FCF800224FF480510848FFF7DCF887
:10153000012000F0F3F800224FF400610348FFF7A8
:10154000D3F8012000F0EAF810BD000000080140C7
:1015500010B500224FF480510948FFF7C5F8012269
:10156000D1020748FFF7C0F8012000F0D7F80122A8
:1015700011030348FFF7B8F8012000F0CFF810BDC1
:101580000008014070B50446254600224FF4805102
:101590002148FFF7A9F800224FF400611E48FFF729
:1015A000A3F8002628E000224FF400611A48FFF754
:1015B0009BF8012000F0B2F805F0010040B10122D3
:1015C00011031548FFF790F8012000F0A7F808E094
:1015D00000224FF480511048FFF786F8012000F0F8
:1015E0009DF80122D1020C48FFF77EF8012000F09F
:1015F00095F86D10701CC6B2082ED4DB00224FF493
:1016000080510548FFF770F800224FF4006102484E
:10161000FFF76AF870BD00000008014008B501211D
:101620000420FFF7A9FA0F20ADF8000048208DF83C
:10163000030069460148FEF7C3FF08BD00080140EA
:1016400010B540F225511F4800F044F8002838D06A
:101650001C4800F04CF8C4B221461BA0FEF7BAFDAE
:101660001A48008800F4004058BB1848008800F46D
:10167000804060B10A2C03D000201449088020E08B
:101680001248008840F400401049088019E00D2CF1
:1016900006D10E48008840F480400C49088010E0D4
:1016A0000A480088C0F30D0009490C540748008817
:1016B000401C0649088008460088C72801DD002034
:1016C000088010BD00380140256300001000002094
:1016D0002800002002460020B1F5007F00D100BFA5
:1016E00013880B400BB1012000E000207047014639
:1016F0008888C0F30800704700BFFEE7014600BFBE
:10170000704700B5034603E04FF47A7000F006F826
:10171000181EA3F101018BB2F6D100BD00EBC00190
:10172000C9004FF0E0225161002191610521116152
:1017300000BF4FF0E021096901F480310029F8D0A1
:1017400004214FF0E02211617047000000BF054AFC
:10175000128802F04002002AF9D0C2B2014B1B1DD0
:101760001A807047003801400EB5002600BF0025E2
:1017700000240027A046FFF71FFAFFF773F9FFF7D1
:101780004DFFFFF7AFFBFFF769FEFEF7E1FFFFF745
:1017900045FFFEF7DDFE4FF47A70FFF7B2FFFEF76C
:1017A0006FFE01F063B9FE480678B8F1010F11D160
:1017B0004FF00008FB480078FB490978CDE900109C
:1017C000FA480378FA480278FA480178FA4800881B
:1017D000FFF77CFC032E01DB092E04DDFFF7DCFBA9
:1017E00002A8FFF755F9781C87B2032E1CDA012FE7
:1017F00002D10120EA49087040F6B830874202D190
:101800000020E749087041F28830874202D1022067
:10181000E349087041F65830874200D1002741F66D
:101820005830874200DD0027002E5BD1E248008857
:10183000642190FBF1F201FB12000A2190FBF1F010
:1018400000F0FF0949460020FFF736FEDA4800881D
:10185000642190FBF1F201FB12000A2190FBF1F2EE
:1018600001FB120000F0FF0949460120FFF724FEAA
:1018700015210220FFF720FECE4800780A2190FBB8
:10188000F1F000F0FF0949460320FFF715FEC948B3
:1018900000780A2190FBF1F201FB120000F0FF0931
:1018A00049460420FFF708FE15210520FFF704FE36
:1018B000BF4800780A2190FBF1F000F0FF0949468B
:1018C0000620FFF7F9FDBA4800780A2190FBF1F2F3
:1018D00001FB120000F0FF0949460720FFF7ECFD6D
:1018E000FFF7CAFC012E51D1B04800780A2190FBC5
:1018F000F1F000F0FF0949460020FFF7DDFDAB489D
:1019000000780A2190FBF1F201FB120000F0FF09C0
:1019100049460120FFF7D0FD17210220FFF7CCFD3B
:10192000A14800780A2190FBF1F000F0FF09494638
:101930000320FFF7C1FD9C4800780A2190FBF1F2DB
:1019400001FB120000F0FF0949460420FFF7B4FD37
:1019500017210520FFF7B0FD924800780A2190FB7F
:10196000F1F000F0FF0949460620FFF7A5FD8D487C
:1019700000780A2190FBF1F201FB120000F0FF0950
:1019800049460720FFF798FDFFF776FC022E4BD162
:1019900014210020FFF790FD14210120FFF78CFD9A
:1019A00014210220FFF788FD9DF8080020B11521C1
:1019B0000320FFF781FD03E014210320FFF77CFDE6
:1019C0009DF80900642190FBF1F201FB12000A214D
:1019D00090FBF1F000F0FF0949460420FFF76CFD91
:1019E0009DF809000A2190FBF1F201FB12000A3078
:1019F00000F0FF0949460520FFF75EFD9DF80A004B
:101A0000642190FBF1F201FB12000A2190FBF1F03E
:101A100000F0FF0949460620FFF74EFD162107207A
:101A2000FFF74AFDFFF728FC032E78D1182100208C
:101A3000FFF742FD19210120FFF73EFD1A21022088
:101A4000FFF73AFD1B210320FFF736FD1421042088
:101A5000FFF732FD14210520FFF72EFD142106208B
:101A6000FFF72AFD14210720FFF726FD00BF012103
:101A70005248FEF730FEA8B918210020FFF71CFDE0
:101A800019210120FFF718FD1A210220FFF714FD8C
:101A900000BFFEF7D9FC00BF01214848FEF71BFE3E
:101AA0000028F9D002214548FEF715FEA8B91C21EF
:101AB0000020FFF701FD1D210120FFF7FDFC14218F
:101AC0000220FFF7F9FC00BFFEF7BEFC00BF0221B9
:101AD0003A48FEF700FE0028F9D004213748FEF707
:101AE000FAFD58B900202E490870FEF7ADFC00BF82
:101AF00004213248FEF7EFFD0028F9D008212F48D5
:101B0000FEF7E9FD58B9002025490870FEF79CFC56
:101B100000BF08212948FEF7DEFD0028F9D0042E79
:101B20007ED1681C85B2B5F52F7F22DA2248008865
:101B3000642190FBF1F201FB12000A2190FBF1F00D
:101B400000F0FF0949460020FFF7B6FC1A4800885C
:101B5000642190FBF1F201FB12000A2190FBF1F2EB
:101B600001FB120000F0FF0949460120FFF7A4FC29
:101B700007E014210020FFF79FFC14210120FFF74C
:101B80009BFCB5F5AF6F00DD002515210220FFF7A6
:101B900093FC084800780A2190FBF1F010E0000067
:101BA0001200002006000020050000200400002094
:101BB0000300002002000020000000200008014077
:101BC00000F0FF0949460320FFF776FCF84800784B
:101BD0000A2190FBF1F201FB120000F0FF094946D7
:101BE0000420FFF769FC15210520FFF765FCF1488B
:101BF00000780A2190FBF1F000F0FF094946062029
:101C0000FFF75AFCEB4800780A2190FBF1F201FB48
:101C1000120000F0FF0949460720FFF74DFC00E0E5
:101C2000EDE00121E448FEF756FD00285ED10025D5
:101C300004E0601CC4B20A20FFF763FD0121DE4806
:101C4000FEF749FD08B9642CF3DB642C3DDB35E07D
:101C5000DA480088401CD94908800846008840F6C8
:101C60003301884203DD40F2B270D4490880642019
:101C7000FFF747FDD1480088642190FBF1F201FB9A
:101C800012000A2190FBF1F000F0FF094946002004
:101C9000FFF712FCC9480088642190FBF1F201FBB8
:101CA00012000A2190FBF1F201FB120000F0FF0983
:101CB00049460120FFF700FCFEF7C6FB0121BE48A4
:101CC000FEF709FD0028C3D010E0BC480088401C86
:101CD000BA4908800846008840F63301884203DD8F
:101CE00040F2B270B5490880FEF7AEFB0221B2485F
:101CF000FEF7F1FC00285CD1002504E0601CC4B2B2
:101D00000A20FFF7FEFC0221AB48FEF7E4FC08B90D
:101D1000642CF3DB642C3CDB34E0A8480088401ED4
:101D2000A64908800846008840F2B271884202DA6B
:101D30000846A24908806420FFF7E3FC9F4800881A
:101D4000642190FBF1F201FB12000A2190FBF1F0FB
:101D500000F0FF0949460020FFF7AEFB97480088D6
:101D6000642190FBF1F201FB12000A2190FBF1F2D9
:101D700001FB120000F0FF0949460120FFF79CFB20
:101D8000FEF762FB02218C48FEF7A5FC0028C4D0B8
:101D90000FE08A480088401E88490880084600886D
:101DA00040F2B271884202DA084684490880FEF7A0
:101DB0004BFB04218048FEF78EFC68B90520804962
:101DC00008704FF00108FEF73FFB00BF04217A487E
:101DD000FEF781FC0028F9D008217748FEF77BFC4C
:101DE00068B90020764908704FF00108FEF766FBDD
:101DF00000BF08217048FEF76EFC0028F9D0052EC0
:101E000072D1681C85B2B5F52F7F18DA6848007862
:101E10000A2190FBF1F000F0FF0949460320FFF78B
:101E20004BFB634800780A2190FBF1F201FB1200A2
:101E300000F0FF0949460420FFF73EFB07E01421AC
:101E40000320FFF739FB14210420FFF735FBB5F51C
:101E5000AF6F00DD002559480088642190FBF1F246
:101E600001FB12000A2190FBF1F000F0FF09494646
:101E70000020FFF721FB51480088642190FBF1F21C
:101E800001FB12000A2190FBF1F201FB120000F0AD
:101E9000FF0949460120FFF70FFB15210220FFF73C
:101EA0000BFB15210520FFF707FB424800780A21AC
:101EB00090FBF1F000F0FF0949460620FFF7FCFA1D
:101EC0003C4800780A2190FBF1F201FB120000F07F
:101ED000FF0949460720FFF7EFFA01213648FEF7D0
:101EE000FAFBE0BB002505E0D0E0601CC4B20A208C
:101EF000FFF707FC01213048FEF7EDFB08B9642C21
:101F0000F3DB642C31DB27E029480078401C2849AA
:101F10000870084600780C2801DD01200870642054
:101F2000FFF7EFFB224800780A2190FBF1F000F068
:101F3000FF0949460320FFF7BFFA1D4800780A2130
:101F400090FBF1F201FB120000F0FF09494604206A
:101F5000FFF7B2FAFEF778FA0121174800E011E026
:101F6000FEF7B9FB0028CFD00CE011480078401CE8
:101F70000F490870084600780C2801DD0120087020
:101F8000FEF762FA02210C48FEF7A5FBF0BB002524
:101F900004E0601CC4B20A20FFF7B3FB022106482C
:101FA000FEF799FB08B9642CF3DB642C3BDB33E0D0
:101FB0000200002003000020000801400000002073
:101FC00012000020FE480078401EFD4908700846B7
:101FD0000078012801DA0C2008706420FFF791FBDB
:101FE000F74800780A2190FBF1F000F0FF0949461C
:101FF0000320FFF761FAF24800780A2190FBF1F222
:1020000001FB120000F0FF09494600E018E004203F
:10201000FFF752FAFEF718FA0221EA48FEF75BFBD7
:102020000028CFD00CE0E6480078401EE449087054
:1020300008460078012801DA0C200870FEF704FA3F
:102040000421E048FEF747FB68B90620DE49087026
:102050004FF00108FEF7F8F900BF0421D948FEF758
:102060003AFB0028F9D00821D648FEF734FB68B9BE
:102070000020D54908704FF00108FEF71FFA00BF95
:102080000821D048FEF727FB0028F9D0062E72D190
:10209000681C85B2B5F52F7F18DACC4800780A2184
:1020A00090FBF1F000F0FF0949460620FFF704FA23
:1020B000C64800780A2190FBF1F201FB120000F003
:1020C000FF0949460720FFF7F7F907E0142106202A
:1020D000FFF7F2F914210720FFF7EEF9B5F5AF6F1E
:1020E00000DD0025BA480088642190FBF1F201FB75
:1020F00012000A2190FBF1F000F0FF094946002090
:10210000FFF7DAF9B2480088642190FBF1F201FB95
:1021100012000A2190FBF1F201FB120000F0FF090E
:1021200049460120FFF7C8F915210220FFF7C4F93D
:10213000A34800780A2190FBF1F000F0FF0949461E
:102140000320FFF7B9F99E4800780A2190FBF1F2CD
:1021500001FB120000F0FF0949460420FFF7ACF92B
:1021600015210520FFF7A8F901219648FEF7B3FADB
:10217000F0BB002505E0C6E0601CC4B20A20FFF7F2
:10218000C0FA01218F48FEF7A6FA08B9642CF3DBE8
:10219000642C31DB27E08D480078401C8B490870A7
:1021A000084600781F2801DD012008706420FFF731
:1021B000A8FA864800780A2190FBF1F000F0FF09A8
:1021C00049460620FFF778F9804800780A2190FBFD
:1021D000F1F201FB120000F0FF0949460720FFF76A
:1021E0006BF9FEF731F901217648FEF774FA00E049
:1021F0000FE00028CFD00CE074480078401C7349F1
:102200000870084600781F2801DD01200870FEF7DD
:102210001BF902216B48FEF75EFAE8BB002504E0DB
:10222000601CC4B20A20FFF76CFA02216548FEF771
:1022300052FA08B9642CF3DB642C31DB27E06348E5
:102240000078401E6149087008460078012801DACC
:102250001F2008706420FFF754FA5C4800780A21B8
:1022600090FBF1F000F0FF0949460620FFF724F942
:10227000564800780A2190FBF1F201FB120000F0B1
:10228000FF0949460720FFF717F9FEF7DDF802219D
:102290004C48FEF720FA00E00FE00028CFD00CE019
:1022A0004A480078401E49490870084600780128CD
:1022B00001DA1F200870FEF7C7F804214148FEF735
:1022C0000AFA68B90720404908704FF00108FEF784
:1022D000BBF800BF04213B48FEF7FDF90028F9D008
:1022E00008213848FEF7F7F968B900203649087028
:1022F0004FF00108FEF7E2F800BF08213148FEF771
:10230000EAF90028F9D0072E6AD1681C85B2B5F524
:102310002F7F18DA2F4800780A2190FBF1F000F0A7
:10232000FF0949460020FFF7C7F82A4800780A212C
:1023300090FBF1F201FB120000F0FF094946012079
:10234000FFF7BAF807E014210020FFF7B5F81421D1
:102350000120FFF7B1F8B5F5AF6F00DD00251721BB
:102360000220FFF7A9F81C4800780A2190FBF1F041
:1023700000F0FF0949460320FFF79EF81648007851
:102380000A2190FBF1F201FB120000F0FF0949461F
:102390000420FFF791F817210520FFF78DF80F486B
:1023A00000780A2190FBF1F000F0FF094946062071
:1023B000FFF782F8094800780A2190FBF1F210E05B
:1023C000020000200008014012000020030000204D
:1023D000000000200400002005000020060000206E
:1023E000D4E001FB120000F0FF0949460720FFF787
:1023F00063F80121FE48FEF76EF9E8BB002504E012
:10240000601CC4B20A20FFF77CF90121F848FEF7EE
:1024100062F908B9642CF3DB642C31DB27E0F54862
:102420000078401CF349087008460078172801DD41
:10243000002008706420FFF764F9EE4800780A2154
:1024400090FBF1F000F0FF0949460020FFF734F857
:10245000E84800780A2190FBF1F201FB120000F03D
:10246000FF0949460120FFF727F8FDF7EDFF01219D
:10247000DF48FEF730F900E00FE00028CFD00CE095
:10248000DC480078401CDB490870084600781728B3
:1024900001DD00200870FDF7D7FF0221D448FEF7C8
:1024A0001AF9E8BB002504E0601CC4B20A20FFF75B
:1024B00028F90221CE48FEF70EF908B9642CF3DBA7
:1024C000642C31DB27E0CB48007810B91820C949CB
:1024D0000870C8480078401EC64908706420FFF79D
:1024E00010F9C44800780A2190FBF1F000F0FF09D0
:1024F00049460020FEF7E0FFBE4800780A2190FB25
:10250000F1F201FB120000F0FF0949460120FEF73D
:10251000D3FFFDF799FF0221B548FEF7DCF800E094
:102520000FE00028CFD00CE0B248007810B9182096
:10253000B0490870AF480078401EAE490870FDF7FA
:1025400083FF0421AA48FEF7C6F868B90820AA4903
:1025500008704FF00108FDF777FF00BF0421A44881
:10256000FEF7B9F80028F9D00821A148FEF7B3F822
:1025700060B90120A04908708046FDF79FFF00BFA9
:1025800008219B48FEF7A7F80028F9D0082E77D13C
:10259000681C85B2B5F52F7F18DA984800780A21B3
:1025A00090FBF1F000F0FF0949460320FEF784FF9D
:1025B000924800780A2190FBF1F201FB120000F032
:1025C000FF0949460420FEF777FF07E014210320A6
:1025D000FEF772FF14210420FEF76EFFB5F5AF6F12
:1025E00000DD0025834800780A2190FBF1F000F01F
:1025F000FF0949460020FEF75FFF7E4800780A2168
:1026000090FBF1F201FB120000F0FF0949460120A6
:10261000FEF752FF17210220FEF74EFF172105207B
:10262000FEF74AFF764800780A2190FBF1F000F0AF
:10263000FF0949460620FEF73FFF714800780A214E
:1026400090FBF1F201FB120000F0FF094946072060
:10265000FEF732FF01216648FEF73DF8F0BB00258A
:1026600004E0601CC4B20A20FFF74BF80121604867
:10267000FEF731F808B9642CF3DB642C32DB28E078
:10268000C1E05E480078401C5C490870084600784C
:102690003B2801DD002008706420FFF732F857481E
:1026A00000780A2190FBF1F000F0FF094946032071
:1026B000FEF702FF514800780A2190FBF1F201FB7E
:1026C000120000F0FF0949460420FEF7F5FEFDF771
:1026D000BBFE01214648FDF7FEFF00E00FE00028A9
:1026E000CFD00CE045480078401C444908700846AB
:1026F00000783B2801DD00200870FDF7A5FE0221CF
:102700003B48FDF7E8FFE8BB002504E0601CC4B2CD
:102710000A20FEF7F6FF02213548FDF7DCFF08B975
:10272000642CF3DB642C31DB27E03448007810B9EB
:102730003C203249087031480078401E2F4908700B
:102740006420FEF7DEFF2D4800780A2190FBF1F0AF
:1027500000F0FF0949460320FEF7AEFE2748007847
:102760000A2190FBF1F201FB120000F0FF0949463B
:102770000420FEF7A1FEFDF767FE02211C48FDF7CD
:10278000AAFF00E00FE00028CFD00CE01B48007843
:1027900010B93C201949087018480078401E1749A4
:1027A0000870FDF751FE04211148FDF794FF68B948
:1027B0000920114908704FF00108FDF745FE00BFE0
:1027C00004210B48FDF787FF0028F9D008210848AD
:1027D000FDF781FFB8B90120074908708046FDF771
:1027E0006DFE00BF08210248FDF775FF002809E0D3
:1027F0000008014004000020120000200500002015
:1028000006000020EED0092E77D1681C85B2B5F500
:102810002F7F18DA964800780A2190FBF1F000F03B
:10282000FF0949460620FEF747FE914800780A2135
:1028300090FBF1F201FB120000F0FF09494607206E
:10284000FEF73AFE07E014210620FEF735FE1421BC
:102850000720FEF731FEB5F5AF6F00DD0025854896
:1028600000780A2190FBF1F000F0FF0949460020B2
:10287000FEF722FE7F4800780A2190FBF1F201FB6F
:10288000120000F0FF0949460120FEF715FE17214E
:102890000220FEF711FE784800780A2190FBF1F043
:1028A00000F0FF0949460320FEF706FE7248007853
:1028B0000A2190FBF1F201FB120000F0FF094946EA
:1028C0000420FEF7F9FD17210520FEF7F5FD012193
:1028D0006A48FDF700FFE0BB002504E0601CC4B2BD
:1028E0000A20FEF70EFF01216448FDF7F4FE08B947
:1028F000642CF3DB642C32DB28E0B6E05C48007823
:10290000401C5B490870084600783B2801DD002028
:1029100008706420FEF7F5FE554800780A2190FB08
:10292000F1F000F0FF0949460620FEF7C5FD5048CA
:1029300000780A2190FBF1F201FB120000F0FF0980
:1029400049460720FEF7B8FDFDF77EFD01214B4803
:1029500000E011E0FDF7BFFE0028CFD00CE04448B6
:102960000078401C42490870084600783B2801DD89
:1029700000200870FDF768FD02214048FDF7ABFE1E
:10298000F0BB002504E0601CC4B20A20FEF7B9FECB
:1029900002213A48FDF79FFE08B9642CF3DB642C52
:1029A00031DB27E03248007810B93C20304908700C
:1029B0002F480078401E2E4908706420FEF7A1FEC3
:1029C0002B4800780A2190FBF1F000F0FF094946FE
:1029D0000620FEF771FD264800780A2190FBF1F2EF
:1029E00001FB120000F0FF0949460720FEF764FDD5
:1029F000FDF72AFD02212148FDF76DFE002800E0C9
:102A00000EE0CFD00CE01A48007810B93C201849ED
:102A1000087017480078401E15490870FDF714FD2E
:102A200004211648FDF757FE68B9042014490870C0
:102A30004FF00108FDF708FD00BF04210F48FDF726
:102A40004AFE0028F9D008210C48FDF744FE60B981
:102A500001200B4908708046FDF730FD00BF0821BA
:102A60000648FDF738FE0028F9D000BFFEF79BBEF0
:102A7000060000200400002005000020000801409E
:102A800012000020000303060104060205000305EE
:102A90001F1C1F1E1F1E1F1F1E1F1E1FBC2A0008DB
:102AA000000000202800000028010008E42A000897
:102AB0002800002028070000440100080000000052
:102AC0000000000000000000000000000000000006
:102AD00000000001020304010203040607080902C2
:042AE00004060800E0
:04000005080000ED02
:00000001FF
