:020000040800F2
:1000000050070020910100089D0D000849090008D3
:10001000990D0008B50600085119000800000000FD
:10002000000000000000000000000000651500084E
:10003000B906000800000000AD0D000851160008C8
:10004000AB010008AB010008AB010008AB010008E0
:10005000AB010008AB010008AB010008AB010008D0
:10006000AB010008AB010008AB010008AB010008C0
:10007000AB010008AB010008AB010008AB010008B0
:10008000AB010008AB010008AB010008AB010008A0
:10009000AB010008AB010008AB010008AB01000890
:1000A000AB010008AB010008AB010008AB01000880
:1000B000AB010008AB010008AB010008AB01000870
:1000C000AB010008AB010008AB010008AB01000860
:1000D000AB01000899180008AB010008AB0100084B
:1000E000AB010008AB010008AB01000800F002F80A
:1000F00000F03FF80AA090E8000C82448344AAF183
:100100000107DA4501D100F034F8AFF2090EBAE880
:100110000F0013F0010F18BFFB1A43F0010318473B
:10012000AC340000CC340000103A24BF78C878C149
:10013000FAD8520724BF30C830C144BF04680C60ED
:10014000704700000023002400250026103A28BF35
:1001500078C1FBD8520728BF30C148BF0B60704739
:10016000632900F00781002070471FB51FBD10B53F
:1001700010BD00F039F91146FFF7F7FF01F020FC40
:1001800000F057F903B4FFF7F2FF03BC01F0E2FB04
:100190000948804709480047FEE7FEE7FEE7FEE71B
:1001A000FEE7FEE7FEE7FEE7FEE7FEE70448054957
:1001B000054A064B7047000055160008ED00000880
:1001C0005001002050070020500300205003002061
:1001D000704700000FB4044910B503AA029800F05C
:1001E000D5F810BC5DF814FB0C0000202DE9F0419F
:1001F0000E460446002020622046E168884730B35E
:10020000252805D0D4E901219047206A401CF2E757
:10021000E168204600278847050018D0A5F1410075
:10022000192802D820354FF4006732462946204667
:100230002760FFF795FF40B1012804D0F61D26F096
:1002400007060836D8E7361DD6E72846DAE7206ADB
:10025000BDE8F08170B50C460546012A05D0287826
:10026000800600D5EA69002302E0012305E05B1C5B
:10027000934202D2E05C0028F9D1A869E618C01ABE
:10028000A861286A184428622846AFF3008004E079
:10029000D5E9012114F8010B9047B442F8D3284660
:1002A000AFF3008070BD10B5203AC0F00B80B1E80C
:1002B0001850203AA0E81850B1E81850A0E818509B
:1002C000BFF4F5AF5FEA027C24BFB1E81850A0E8A4
:1002D000185044BF18C918C0BDE810405FEA827CBE
:1002E00024BF51F8043B40F8043B08BF7047D207D5
:1002F00028BF31F8023B48BF11F8012B28BF20F876
:10030000023B48BF00F8012B70474FF0000200B5D8
:10031000134694469646203922BFA0E80C50A0E828
:100320000C50B1F12001BFF4F7AF090728BFA0E8D6
:100330000C5048BF0CC05DF804EB890028BF40F8A2
:10034000042B08BF704748BF20F8022B11F0804FE4
:1003500018BF00F8012B704770477047704770470F
:1003600010B5436913B1AFF3008001E0FFF772FFEE
:10037000012010BD127800F124010A7000224A7099
:100380000122EDE711684FF0FF32E9E7074B70B546
:100390000D467B4400F011F80446284600F020F892
:1003A00010B14FF0FF3070BD204670BD0F16000039
:1003B00001694A1C02610878704700B58FB0CDE929
:1003C00001310021059105497944CDE90310114619
:1003D0006846FFF70BFF0FB000BD0000E5FFFFFF11
:1003E000007B00F080007047754600F02BF8AE46A9
:1003F00005006946534620F00700854618B020B531
:10040000FFF7D4FEBDE820404FF000064FF0000794
:100410004FF000084FF0000B21F00701AC46ACE8AC
:10042000C009ACE8C009ACE8C009ACE8C0098D4619
:10043000704710B50446AFF300802046BDE8104079
:10044000FFF7A0BE00487047F000002070B50546D9
:100450000024002600F0C0F9352000F02FF90F48E5
:1004600000F032F900BF13E06000401C295C15F871
:10047000140001EB002086B20849022202FB04109E
:10048000314600F079F9352000F018F9601CC4B24B
:100490000A2CE9DB00F058F970BD000000F00108FB
:1004A00010B5012000F0A4FC002000F0A1FC10BD5C
:1004B00008B50146002000900348009000980844C9
:1004C00000900098008808BD006C004008B500222C
:1004D0000092044A0092009A02440092009A11602D
:1004E00008BD0000006C004010B5002413E000229D
:1004F00020210A4800F023FA4FF4FA7001F03AFA8A
:1005000001222021054800F01AFA4FF4FA7001F098
:1005100031FA601C84B2C82CE9DB10BD000C01402C
:1005200010B5002413E0002220210B4800F007FA48
:100530004FF4487001F01EFA01222021064800F015
:10054000FEF94FF4487001F015FA601C84B2B4F55E
:10055000C87FE8DB10BD0000000C014010B500248E
:1005600011E000222021204800F0E9F9C82001F024
:1005700001FA012220211C4800F0E1F9C82001F015
:10058000F9F9601C84B2962CEBDB002413E0002206
:100590002021154800F0D3F94FF4967001F0EAF9E4
:1005A00001222021104800F0CAF94FF4967001F0A2
:1005B000E1F9601C84B2642CE9DB002411E0002224
:1005C0002021094800F0BBF9642001F0D3F9012291
:1005D0002021054800F0B3F9642001F0CBF9601C3C
:1005E00084B2FA2CEBDB10BD000C014010B50024E6
:1005F00011E000222021214800F0A1F9C82001F0DB
:10060000B9F9012220211D4800F099F9C82001F014
:10061000B1F9601C84B2B4F5E17FEADB002413E099
:1006200000222021154800F08AF94FF4C87001F02B
:10063000A1F901222021114800F081F94FF4C8707E
:1006400001F098F9601C84B2FA2CE9DB002411E077
:1006500000222021094800F072F9642001F08AF993
:1006600001222021054800F06AF9642001F082F996
:10067000601C84B2B4F5E17FEADB10BD000C0140E0
:1006800008B50121082000F0A3FB10208DF803001D
:100690002020ADF8000003208DF8020069460448D0
:1006A00000F0B9F801222021014800F048F908BD06
:1006B000000C014000BFFEE7704700000149C86020
:1006C000704700000020024030B5044604254FF476
:1006D000302000F08DF80546042D17D10C48006934
:1006E00040F002000A49086108464461006940F090
:1006F000400008614FF4302000F07AF805460448C5
:10070000006941F6FD71084001490861284630BD85
:100710000020024004200B49C96801F0010109B121
:1007200001200EE00749C96801F0040109B1022067
:1007300007E00449C96801F0100109B1032000E095
:1007400004207047002002400348006940F0800008
:10075000014908617047000000200240054909680E
:1007600021F01001034A116011460968014311602C
:10077000704700000020024070B504460D46042674
:10078000F00200F035F80646042E11D10948006940
:1007900040F00100074908612580F00200F028F8C8
:1007A00006460448006941F6FE71084001490861A7
:1007B000304670BD002002400146088870470000A6
:1007C00001460020034A106800F03800084310601A
:1007D0007047000000200240024803494860034877
:1007E000486070472301674500200240AB89EFCD88
:1007F00000B502460423FFF78DFF034603E0FFF731
:1008000089FF0346521E012B01D1002AF7D102B9FC
:100810000523184600BD2DE9F041024600250026BB
:10082000002000230024002791F803C00CF00F05DE
:1008300091F803C00CF0100CBCF1000F03D091F83C
:1008400002C04CEA050591F800C0BCF1000F31D0A0
:10085000146800202BE04FF0010C0CFA00F3B1F803
:1008600000C00CEA03069E4220D183004FF00F0C1B
:100870000CFA03F7BC4305FA03FC4CEA040491F8B4
:1008800003C0BCF1280F06D14FF0010C0CFA00FC9C
:10089000C2F814C00AE091F803C0BCF1480F05D1BA
:1008A0004FF0010C0CFA00FCC2F810C0401C0828E4
:1008B000D1D31460B1F800C0BCF1FF0F34DD54682F
:1008C00000202EE000F1080C4FF0010808FA0CF3AC
:1008D000B1F800C00CEA03069E4221D183004FF01C
:1008E0000F0C0CFA03F7BC4305FA03FC4CEA0404B2
:1008F00091F803C0BCF1280F05D100F1080C08FAEB
:100900000CF8C2F8148091F803C0BCF1480F07D16D
:1009100000F1080C4FF0010808FA0CF8C2F810803A
:10092000401C0828CED35460BDE8F0810246002068
:1009300093680B400BB1012000E0002070470AB122
:10094000016100E04161704700BFFEE721B102880C
:1009500042F48062028004E002884FF6FF331A40BE
:100960000280704770B50246002400250023002055
:10097000958A138B1B0445EA030626F07F4404EA9C
:1009800001068E4201D1012000E0002070BD21B19E
:10099000028842F00102028004E002884FF6FE73F2
:1009A0001A400280704700001FB500F021F80020B7
:1009B000ADF804004BF6FF70ADF80600C020ADF8AE
:1009C00008004FF48060ADF80A000001ADF80C009B
:1009D000054800906946054800F05AF8012103488F
:1009E000FFF7D5FF1FBD0000400D0300005400407D
:1009F00008B50121082000F0EBF90121480500F0BD
:100A0000D7F9C020ADF800001C208DF803000320AA
:100A10008DF8020069460248FFF7FDFE08BD0000A0
:100A2000000C014021B1028842F48072028004E08F
:100A300002884FF6FF631A400280704721B1028896
:100A400042F40072028004E002884FF6FF531A401D
:100A5000028070470CB502460020002301930093EA
:100A600000920B0F019321F07F41019B1BB1009B72
:100A70001433009303E0090C009B18330093009B90
:100A80001B680B400BB1012000E000200CBD0000F2
:100A90002DE9F04385B004460D460026B1460427F3
:100AA000DFF8CC80A6884FF6C0700640684600F09C
:100AB00007FADDF808802F48B8FBF0F01FFA80F93C
:100AC00046EA0906A68020884FF6FE71084020807D
:100AD00000262949286888420CD828684000B8FBBD
:100AE000F0F087B2042F00DA04273E4309F1010039
:100AF000208427E0E8884BF6FF71884206D12868F9
:100B000000EB4000B8FBF0F087B209E0286800EB8A
:100B1000C00101EB0010B8FBF0F087B247F480474A
:100B2000C7F30B0008B947F0010747F4004006433C
:100B30004FF4967009FB00F04FF47A7190FBF1F0DE
:100B4000401C2084A683208840F001002080268855
:100B50004FF6F5300640A888698908430643268089
:100B6000A88929890843208105B0BDE8F0830000E9
:100B700000127A0040420F00A08601002DE9F041EA
:100B800006460F4615461C4600BF4FF4003132485A
:100B9000FFF760FF0028F8D101212F48FFF742FF3F
:100BA00000BF2E492C48FFF7DDFE0028F9D00022B7
:100BB0003146294800F05AF800BF29492648FFF776
:100BC000D1FE0028F9D001212348FFF7E0FE394685
:100BD000214800F054F800BF2149891C1E48FFF746
:100BE000C1FE0028F8D001211B48FFF71BFF00BF02
:100BF0001A491948FFF7B6FE0028F9D001223146FC
:100C0000154800F033F800BF1449491C1248FFF79B
:100C1000A9FE0028F8D016E0012C07D100210E48CB
:100C2000FFF794FE01210C48FFF708FF0B493F3105
:100C30000948FFF797FE30B1074800F013F8287015
:100C40006D1C601E84B2002CE6D101210248FFF722
:100C50007DFEBDE8F081000000540040010003006B
:100C6000820007000146088AC0B2704712B141F005
:100C7000010102E04FF6FE731940018270470182C4
:100C800070470146CA1701EB92729210A1EB8202E3
:100C900092B9642091FBF0F200FB121050B94FF4AE
:100CA000C87091FBF0F200FB121008B901207047E8
:100CB0000020FCE70120FAE70020F8E708B5012151
:100CC000082000F085F80320ADF8000010208DF812
:100CD000030001208DF8020069460248FFF79BFDE2
:100CE00008BD0000000C0140F8B5064600240025B0
:100CF00002236A4600219E20FFF740FF9DF8004036
:100D00000020307004F0800028B101203070E043F2
:100D1000C4B2601CC4B204F0010008B1681CC5B2C2
:100D200004F0020008B1A81CC5B204F0040008B128
:100D3000281DC5B204F0080010B105F10800C5B2C5
:100D400004F0100010B105F11000C5B204F020004D
:100D500010B105F12000C5B204F0400010B105F15A
:100D60004000C5B2761C357000259DF8014004F0A6
:100D7000200010B105F10C00C5B204F0400010B124
:100D800005F11900C5B204F0800010B105F1320080
:100D9000C5B2761C3570F8BD00BFFEE77047000095
:100DA000014908627047000000000E4270470000D1
:100DB00029B1064AD2690243044BDA6104E0034ACE
:100DC000D2698243014BDA61704700000010024093
:100DD00029B1064A92690243044B9A6104E0034A2E
:100DE00092698243014B9A617047000000100240F3
:100DF0000149086070470000400442420348406ACD
:100E000040F08070014948627047000000100240C5
:100E100010B500F02FF84FF4803000F0EDF800F03E
:100E200071F90446012C24D14FF4E011000400F0C4
:100E300041F9002000F0D4F8A00200F01DF90020D4
:100E400000F026F90220FFF7BBFC1020FFF786FC1C
:100E5000012000F029F900BF392000F09BF800289C
:100E6000FAD0022000F042F900BF00F0B1F80828E3
:100E7000FBD110BD0F48006840F001000D4908602B
:100E8000084640680C4908400A494860084600681E
:100E90000A490840074908600846006820F4802095
:100EA00008600846406820F4FE0048604FF41F00C8
:100EB00088607047001002400000FFF8FFFFF6FE58
:100EC00030B500210022002400232D4D6D6805F06F
:100ED0000C0121B1042905D0082923D105E0294DB1
:100EE000056022E0274D05601FE0254D6D6805F483
:100EF0007012234D6D6805F48034022505EB924293
:100F00001CB9214D554305600BE01D4D6D6805F47E
:100F100000351DB11C4D5543056002E0194D554388
:100F2000056002E0174D056000BF00BF144D6D68FD
:100F300005F0F0010909154D6B5C0568DD40456061
:100F40000F4D6D6805F4E061090A104D6B5C456852
:100F5000DD4085600A4D6D6805F46051C90A0B4D8E
:100F60006B5C4568DD40C560054D6D6805F440412A
:100F7000890B074D6B5CC568B5FBF3F5056130BDAA
:100F80000010024000127A0000093D00130000200A
:100F90002300002010B501460022002300204A1142
:100FA000012A02D1094C236806E0022A02D1074C2B
:100FB000236A01E0054C636A01F01F02012494409A
:100FC0001C400CB1012000E0002010BD00100240C8
:100FD0000248406800F00C0070470000001002401A
:100FE00001460020034A506820F0F000084350609A
:100FF00070470000001002401149096821F4803157
:101000000F4A11601146096821F480211160B0F582
:10101000803F03D0B0F5802F0ED106E00849096863
:1010200041F48031064A116007E00549096841F43E
:10103000A021034A116000E000BF00BF704700001C
:101040000010024000210B4A11700A4A203A82F82F
:101050002010012802D0042808D103E00121054A0C
:10106000117004E00521034A117000E000BF00BFC9
:10107000704700002010024001460020034A5068DB
:1010800020F4E06008435060704700000010024008
:1010900001460020034A506820F4605040EAC10035
:1010A0005060704700100240014908667047000018
:1010B0000000424202460020044B586820F47C1095
:1010C00042EA01031843014B586070470010024088
:1010D00001490860704700003C0442420249096A25
:1010E0000143014A1162704700100240014600208E
:1010F000034A506820F00300084350607047000026
:101100000010024038B5002000900024002500BFE8
:101110003120FFF73FFF05460098401C00900098E3
:10112000B0F5A06F01D0002DF2D03120FFF732FFD3
:1011300008B1012400E00024204638BD10B5042089
:10114000FFF7B6F94AF2A551884207D000F02AF815
:101150004AF2A5510420FFF7B9F90DE07B20FFF713
:1011600019FF10B97A20FFF715FFFFF747FE01209E
:10117000FFF7AEFF00F060F910BD000003480088E3
:1011800040F010000149088070470000042800402A
:10119000034800884FF6EF71084001490880704706
:1011A0000428004010B501214FF0C050FFF700FEA9
:1011B0000120FFF7F5FDFFF773F90120FFF742FF6C
:1011C00000BF4120FFF7E6FE0028FAD04FF4807000
:1011D000FFF784FF0120FFF77BFF00F02DF900F0FF
:1011E00021F947F6FF7000F00DF900F01BF910BD72
:1011F00070B500260024002500F08AF806463A481B
:10120000B6FBF0F439480088A0423DD037490C8045
:1012100040F2B27510E02846FFF733FD40B1B4F557
:10122000B77F02D3A4F5B77404E0681C85B206E06A
:10123000A4F26D14681C85B2B4F5B67FEBD800BF7C
:101240002B480580002516E029480088FFF719FD86
:1012500030B1012D04D11D2C01D31D3C09E00CE05F
:101260002448405DA04203D82248405D241A00E093
:1012700003E0681C85B21C2CE6D200BF681C1E4926
:101280000870601C1D4908701748B6FBF0F100FBA0
:1012900011644FF46160B4FBF0F0194908704FF429
:1012A0006160B4FBF0F100FB11403C21B0FBF1F0B8
:1012B000144908704FF46160B4FBF0F100FB114079
:1012C0003C21B0FBF1F201FB12000F4908700B4802
:1012D0000278094801780648008800F0BFF80B49F9
:1012E0000870002070BD000080510100080000203F
:1012F00000000020C035000802000020030000208C
:101300000400002005000020060000200700002047
:10131000002103480188001F008841EA004070470F
:101320001C2800402DE9F05F06460F46904699467E
:10133000DDE90AAB0024B6F5FA6F03DB40F63300B3
:10134000864202DD0120BDE8F09F40F2B2750AE05E
:101350002846FFF796FC10B11F48044401E01F48DF
:101360000444681C85B2B542F2DB781EC7B2002582
:1013700010E01B48405D40F2A321484304EBC01439
:101380003046FFF77EFC18B1012D01D11548044409
:10139000681C85B2BD42ECDBA8F1010040F2A3213C
:1013A000484304EBC014C9EB4910C0EB092004EB1F
:1013B0000014CAEB0A1004EB80045C44FFF7F2FE51
:1013C0004AF2A5510420FFF781F8204600F00CF8FE
:1013D00000F028F80020B6E70085E2018033E10143
:1013E000C03500088051010000B50246FFF7C6FE77
:1013F000100C03490880091D0A80FFF7C9FE00BDD3
:101400001828004000B50246FFF7B8FEC2F30340BB
:1014100003490880091D0A80FFF7BAFE00BD0000DD
:101420000828004000BF0348008800F02000002882
:10143000F9D0704704280040074800884FF6F7713C
:1014400008400549088000BF0348008800F00800F4
:101450000028F9D0704700000428004070B503460A
:101460001446012901DB0C2901DDFF2070BD012993
:1014700001D0022904D101F10C00C1B2581E83B27F
:10148000481C00EB4000052590FBF5F0022505FB0C
:101490000145284418441A46DD1703EB957500EB07
:1014A000A500642593FBF5F5401B4FF4C87593FB2D
:1014B000F5F52844401C072590FBF5F605FB1600C2
:1014C000C01D90FBF5F605FB1600C0B2CEE700008C
:1014D00010B501212148FFF729FA58B90020204909
:1014E0000870FFF701F800BF01211C48FFF71EFA42
:1014F0000028F9D002211948FFF718FA58B901203D
:1015000017490870FEF7F0FF00BF02211348FFF7EC
:101510000DFA0028F9D004211048FFF707FA58B94E
:1015200002200F490870FEF7DFFF00BF04210B48BF
:10153000FFF7FCF90028F9D008210848FFF7F6F971
:1015400058B9032006490870FEF7CEFF00BF0821F6
:101550000248FFF7EBF90028F9D010BD0008014060
:1015600012000020704710B500F002F810BD000016
:101570000CB50020019000903348006840F48030A2
:101580003149086000BF3048006800F40030009026
:101590000198401C0190009818B90198B0F5A06F0F
:1015A000F1D12948006800F4003010B1012000900A
:1015B00001E0002000900098012843D123480068F2
:1015C00040F01000214908600846006820F0030040
:1015D00008600846006840F0020008601A48406849
:1015E000194948600846406848600846406840F429
:1015F000806048600846406820F47C1048600846D7
:10160000406840F4E81048600846006840F0807088
:10161000086000BF0C48006800F000700028F9D096
:101620000948406820F003000749486008464068C0
:1016300040F00200486000BF0348406800F00C0022
:101640000828F9D10CBD0000001002400020024023
:101650007047000010B51348006840F001001149C0
:10166000086008464068104908400E49486008462E
:1016700000680E4908400B4908600846006820F4DD
:10168000802008600846406820F4FE0048604FF45F
:101690001F008860FFF767FF4FF000600449086093
:1016A00010BD0000001002400000FFF8FFFFF6FE32
:1016B00008ED00E008B501210420FFF789FB4FF495
:1016C000C050ADF8000010208DF8030003208DF805
:1016D000020069460D48FFF79EF80122D1020B482F
:1016E000FFF72DF9012211030848FFF728F900F050
:1016F00037F8402000F072F800F056F800F030F8AB
:101700008C2000F06BF800F04FF808BD0008014095
:1017100030B589B004460D46202209A101A8FEF784
:10172000C2FD00F01DF804F1C001C8B200F056F887
:1017300001A9485D00F052F800F036F809B030BD5C
:101740003F065B4F666D7D077F6FBF86DBCFE6EDA3
:10175000FD87FFEF004058096D79073177385C71DC
:1017600010B50122D1020F48FFF7E9F80122110359
:101770000C48FFF7E4F8012000F0FCF800224FF4D9
:1017800080510848FFF7DBF8012000F0F3F8002251
:101790004FF400610348FFF7D2F8012000F0EAF8A7
:1017A00010BD00000008014010B500224FF4805128
:1017B0000948FFF7C4F80122D1020748FFF7BFF834
:1017C000012000F0D7F8012211030348FFF7B7F812
:1017D000012000F0CFF810BD0008014070B50446AC
:1017E000254600224FF480512148FFF7A8F8002237
:1017F0004FF400611E48FFF7A2F8002628E00022FF
:101800004FF400611A48FFF79AF8012000F0B2F88F
:1018100005F0010040B1012211031548FFF78FF8D0
:10182000012000F0A7F808E000224FF48051104892
:10183000FFF785F8012000F09DF80122D1020C4845
:10184000FFF77DF8012000F095F86D10701CC6B20E
:10185000082ED4DB00224FF480510548FFF76FF8C3
:1018600000224FF400610248FFF769F870BD0000E4
:101870000008014008B501210420FFF7A9FA0F2054
:10188000ADF8000048208DF8030069460148FEF7D6
:10189000C2FF08BD0008014010B540F225511F48A5
:1018A00000F044F8002838D01C4800F04CF8C4B2CE
:1018B00021461BA0FEF78EFC1A48008800F4004069
:1018C00058BB1848008800F4804060B10A2C03D04F
:1018D00000201449088020E01248008840F40040AD
:1018E0001049088019E00D2C06D10E48008840F4FC
:1018F00080400C49088010E00A480088C0F30D00C1
:1019000009490C5407480088401C064908800846CD
:101910000088C72801DD0020088010BD0038014084
:10192000256300001000002028000020024600204F
:10193000B1F5007F00D100BF13880B400BB101202F
:1019400000E00020704701468888C0F30800704717
:1019500000BFFEE7014600BF704700B5034603E045
:101960004FF47A7000F006F8181EA3F101018BB253
:10197000F6D100BD00EBC001C9004FF0E02251617B
:10198000002191610521116100BF4FF0E02109693B
:1019900001F480310029F8D004214FF0E0221161D8
:1019A0007047000000BF054A128802F04002002A7A
:1019B000F9D0C2B2014B1B1D1A807047003801409C
:1019C00094B000201290119010900F900E900D90F6
:1019D0000C900B900A9009900890142103A8FEF730
:1019E00094FCFFF715FAFFF769F9FFF743FFFFF7DC
:1019F000A5FBFFF75FFEFEF7D7FFFFF73BFFFEF704
:101A00003FFE4FF47A70FFF7A8FFFEF789FD002034
:101A1000109024E0FB49109801EB40000290FEF783
:101A2000CBFE0B900B98C117029000EB1160C0F336
:101A3000072103AA109802F810100B98C117029002
:101A400000EB116001120298A0EB0120C1B21098C6
:101A50004000401C11541098401C80B21090109807
:101A60000A28D7DB9DF80C00182813DD0020109001
:101A70000DE0182103AA109802F810100021109808
:101A80004000401C11541098401C80B210901098D7
:101A90000A28EEDB03A8FEF7D9FC01F081BDDA4885
:101AA000007812900898012811D100200890D7489A
:101AB0000078D7490978CDE90010D6480378D64890
:101AC0000278D6480178D6480088FFF72BFC129898
:101AD000032802DB1298142804DDFFF789FB13A802
:101AE000FFF702F90C98401C80B20C901298032862
:101AF00022DA0C98012801D1C349087040F6B831A8
:101B00000C98884202D10020BF49087041F2883108
:101B10000C98884202D10220BB49087041F6583126
:101B20000C98884201D100200C9041F658310C9855
:101B3000884201DD00200C901298032827DA0A98C9
:101B400028BB002010901FE003A9109811F8100086
:101B5000B0490978884213D110984000401C03A96D
:101B6000085CAB49097888420AD1A848007838B99E
:101B700001200A901098C0B209901420A249087060
:101B80001098401C80B2109010980A28DCDB0A984C
:101B900001280DD10E98401C80B20E900E98B0F521
:101BA0007A7F05DD01209849087000200A900E9088
:101BB0001298E0BB9A480088642190FBF1F201FB87
:101BC00012000A2190FBF1F0C0B201460290002001
:101BD000FFF79EFD92480088642190FBF1F201FB23
:101BE00012000A2190FBF1F201FB1200C0B2014683
:101BF00002900120FFF78CFD15210220FFF788FDE0
:101C0000864800780A2190FBF1F0C0B201460290AC
:101C10000320FFF77DFD814800780A2190FBF1F257
:101C200001FB1200C0B201460290042000E01FE058
:101C3000FFF76EFD15210520FFF76AFD7648007855
:101C40000A2190FBF1F0C0B2014602900620FFF796
:101C50005FFD714800780A2190FBF1F201FB120050
:101C6000C0B2014602900720FFF752FDFFF730FC9B
:101C70001298012851D1674800780A2190FBF1F0B1
:101C8000C0B2014602900020FFF742FD6148007893
:101C90000A2190FBF1F201FB1200C0B20146029052
:101CA0000120FFF735FD17210220FFF731FD5848CD
:101CB00000780A2190FBF1F0C0B2014602900320A7
:101CC000FFF726FD524800780A2190FBF1F201FB54
:101CD0001200C0B2014602900420FFF719FD17213F
:101CE0000520FFF715FD494800780A2190FBF1F027
:101CF000C0B2014602900620FFF70AFD4348007873
:101D00000A2190FBF1F201FB1200C0B201460290E1
:101D10000720FFF7FDFCFFF7DBFB129802284BD1F1
:101D200014210020FFF7F4FC14210120FFF7F0FC40
:101D300014210220FFF7ECFC9DF84C0020B1152186
:101D40000320FFF7E5FC03E014210320FFF7E0FC8C
:101D50009DF84D00642190FBF1F201FB12000A2175
:101D600090FBF1F0C0B2014602900420FFF7D0FCD6
:101D70009DF84D000A2190FBF1F201FB12000A30A0
:101D8000C0B2014602900520FFF7C2FC9DF84E004C
:101D9000642190FBF1F201FB12000A2190FBF1F0AB
:101DA000C0B2014602900620FFF7B2FC16210720C0
:101DB000FFF7AEFCFFF78CFB129803287DD11421AE
:101DC0000420FFF7A5FC14210520FFF7A1FC142136
:101DD0000620FFF79DFC14210720FFF799FC1198BE
:101DE00000BB18210020FFF793FC19210120FFF709
:101DF0008FFC1A210220FFF78BFC1B210320FFF729
:101E000087FC23E000F001081200002006000020FB
:101E10000500002004000020030000200200002034
:101E2000000000201C210020FFF772FC1D21012072
:101E3000FFF76EFC1198401EC0B2014602900220CE
:101E4000FFF766FC14210320FFF762FC0121F9482B
:101E5000FEF76CFD88B91198401CC0B21190119822
:101E60000A2801DD00201190FEF73EFB00BF012192
:101E7000F048FEF75BFD0028F9D00221ED48FEF79F
:101E800055FD80B9119808B90B2011901198401E8A
:101E9000C0B21190FEF728FB00BF0221E548FEF713
:101EA00045FD0028F9D00421E248FEF73FFD70B956
:101EB0000020E1490870119000E028E0FEF714FBD3
:101EC00000BF0421DB48FEF731FD0028F9D00821CE
:101ED000D848FEF72BFDD0B9119818B90420D6497F
:101EE000087009E011980930D34908700846007855
:101EF0000A384006000E0F9000201190FEF72EFBCE
:101F000000BF0821CB48FEF711FD0028F9D0129838
:101F1000042878D11098401C80B210901098B0F529
:101F20002F7F22DAC5480088642190FBF1F201FB83
:101F300012000A2190FBF1F0C0B20146029000208D
:101F4000FFF7E6FBBD480088642190FBF1F201FB3E
:101F500012000A2190FBF1F201FB1200C0B201460F
:101F600002900120FFF7D4FB07E014210020FFF7C7
:101F7000CFFB14210120FFF7CBFB1098B0F5AF6F1A
:101F800001DD0020109015210220FFF7C1FBAC48B5
:101F900000780A2190FBF1F0C0B2014602900320C4
:101FA000FFF7B6FBA64800780A2190FBF1F201FB8F
:101FB0001200C0B2014602900420FFF7A9FB1521D0
:101FC0000520FFF7A5FB9F4800780A2190FBF1F060
:101FD000C0B2014602900620FFF79AFB99480078AC
:101FE0000A2190FBF1F201FB1200C0B201460290FF
:101FF0000720FFF78DFB01218E48FEF797FCE0BB21
:102000000020109007E0F1E00D98401CC0B20D9048
:102010000A20FFF7A2FC01218648FEF787FC10B9D1
:102020000D986428F0DB0D9864283FDB37E0834887
:102030000088401C814908800846008840F633012A
:10204000884203DD40F2B2707C4908806420FFF7CB
:1020500084FC7A480088642190FBF1F201FB1200B5
:102060000A2190FBF1F0C0B2014602900020FFF778
:102070004FFB72480088642100E028E090FBF1F2F9
:1020800001FB12000A2190FBF1F201FB1200C0B229
:10209000014602900120FFF73BFBFEF725FA0121E4
:1020A0006448FEF743FC0028C1D010E06348008874
:1020B000401C624908800846008840F63301884287
:1020C00003DD40F2B2705D490880FEF70DFA02218F
:1020D0005848FEF72BFCE0BB0020109006E00D985E
:1020E000401CC0B20D900A20FFF737FC0221514876
:1020F000FEF71CFC10B90D986428F0DB0D986428DD
:102100003EDB36E04D480088401E4C4908800846BA
:10211000008840F2B271884202DA084647490880D6
:102120006420FFF71AFC45480088642190FBF1F217
:1021300001FB12000A2190FBF1F0C0B201460290AF
:102140000020FFF7E5FA3D480088642190FBF1F29A
:1021500000E025E001FB12000A2190FBF1F201FBF7
:102160001200C0B2014602900120FFF7D1FAFEF73B
:10217000BBF902212F48FEF7D9FB0028C2D00FE09F
:102180002E480088401E2D4908800846008840F2ED
:10219000B271884202DA084628490880FEF7A4F99D
:1021A00004212448FEF7C2FB68B9052022490870C3
:1021B00001200890FEF798F900BF04211D48FEF7A2
:1021C000B5FB0028F9D008211A48FEF7AFFB68B923
:1021D00000201949087001200890FEF707FA00BF97
:1021E00008211448FEF7A2FB0028F9D01298052810
:1021F0007DD11098401C80B210901098B0F52F7FC0
:1022000022DA0F4800780A2190FBF1F0C0B20146B3
:1022100002900320FFF77CFA094800780A2190FB1E
:10222000F1F201FB1200C0B2014602900420FFF758
:102230006FFA11E0000801401200002000000020A9
:10224000020000200300002014210320FFF760FAA1
:1022500014210420FFF75CFA1098B0F5AF6F01DD90
:1022600000201090F8480088642190FBF1F201FBF7
:1022700012000A2190FBF1F0C0B20146029000204A
:10228000FFF746FAF0480088642190FBF1F201FB69
:1022900012000A2190FBF1F201FB1200C0B20146CC
:1022A00002900120FFF734FA15210220FFF730FADF
:1022B00015210520FFF72CFAE44800780A2190FB4D
:1022C000F1F0C0B2014602900620FFF721FADF4884
:1022D00000780A2190FBF1F201FB1200C0B2014626
:1022E00002900720FFF714FA0121D94800E0D5E059
:1022F000FEF71CFBF0BB0020109006E00D98401C80
:10230000C0B20D900A20FFF728FB0121D048FEF74C
:102310000DFB10B90D986428F0DB0D98642831DBB3
:1023200027E0CC480078401CCA490870084600786D
:102330000C2801DD012008706420FFF70EFBC54862
:1023400000780A2190FBF1F0C0B201460290032010
:10235000FFF7DEF9BF4800780A2190FBF1F201FB9C
:102360001200C0B2014602900420FFF7D1F9FEF737
:10237000BBF800E013E00121B548FEF7D7FA0028CA
:10238000CFD00CE0B3480078401CB2490870084632
:1023900000780C2801DD01200870FEF7A5F8022165
:1023A000AB48FEF7C3FAE0BB0020109006E00D98A2
:1023B000401CC0B20D900A20FFF7CFFA0221A448BA
:1023C000FEF7B4FA10B90D986428F0DB0D98642874
:1023D00031DB29E09F480078401E9E49087008467E
:1023E0000078012801DA0C2008706420FFF7B5FAA4
:1023F000984800780A2190FBF1F0C0B201460290A3
:102400000320FFF785F9934800780A2190FBF1F249
:1024100001FB1200C0B2014602900420FFF778F9D8
:1024200000E015E0FEF760F802218948FEF77EFA29
:102430000028CFD00CE087480078401E85490870FE
:1024400008460078012801DA0C200870FEF74CF8E5
:1024500004217F48FEF76AFA68B906207E490870B1
:1024600001200890FEF740F800BF04217848FEF7ED
:102470005DFA0028F9D008217548FEF757FA68B9C7
:1024800000207549087001200890FEF7AFF800BFE2
:1024900008216F48FEF74AFA0028F9D0129806285A
:1024A00078D11098401C80B210901098B0F52F7F12
:1024B00018DA664800780A2190FBF1F0C0B20146B4
:1024C00002900620FFF724F9604800780A2190FB6B
:1024D000F1F201FB1200C0B2014602900720FFF7A3
:1024E00017F907E014210620FFF712F9142107203D
:1024F000FFF70EF91098B0F5AF6F01DD00201090D6
:1025000051480088642190FBF1F201FB12000A217E
:1025100090FBF1F0C0B2014602900020FFF7F8F8FE
:1025200049480088642190FBF1F201FB12000A2166
:1025300090FBF1F201FB1200C0B2014602900120B3
:10254000FFF7E6F815210220FFF7E2F8414800788E
:102550000A2190FBF1F0C0B2014602900320FFF780
:10256000D7F83C4800780A2190FBF1F201FB1200F9
:10257000C0B2014602900420FFF7CAF815210520D9
:10258000FFF7C6F801213248FEF7D0F9E8BB00207A
:10259000109007E0D9E00D98401CC0B20D900A20C1
:1025A000FFF7DBF901212A48FEF7C0F910B90D98B1
:1025B0006428F0DB0D98642831DB29E0234800789B
:1025C000401C22490870084600781F2801DD0120C0
:1025D00008706420FFF7C1F91C4800780A2190FBBD
:1025E000F1F0C0B2014602900620FFF791F81748BB
:1025F00000780A2190FBF1F201FB1200C0B2014603
:1026000002900720FFF784F800E015E0FDF76CFF6B
:1026100001210F48FEF78AF90028CFD00CE00B48C3
:102620000078401C09490870084600781F2801DD21
:1026300001200870FDF758FF02210548FEF776F9E2
:10264000F0BB0020109010E00000002003000020EC
:102650000008014002000020120000200D98401CDC
:10266000C0B20D900A20FFF778F90221FE48FEF76C
:102670005DF910B90D986428F0DB0D98642831DB02
:1026800029E0FA480078401EF849087008460078AA
:10269000012801DA1F2008706420FFF75EF9F34873
:1026A00000780A2190FBF1F0C0B2014602900620AA
:1026B000FFF72EF8ED4800780A2190FBF1F200E0D8
:1026C0001DE001FB1200C0B2014602900720FFF797
:1026D0001FF8FDF709FF0221E348FEF727F900285C
:1026E000CFD00CE0E1480078401EE0490870084671
:1026F0000078012801DA1F200870FDF7F5FE04219B
:10270000D948FEF713F968B90720D94908700120A4
:102710000890FDF7E9FE00BF0421D348FEF706F953
:102720000028F9D00821D048FEF700F968B9002048
:10273000CF49087001200890FDF758FF00BF08211D
:10274000C948FEF7F3F80028F9D0129807286ED18F
:102750001098401C80B210901098B0F52F7F18DAB6
:10276000C44800780A2190FBF1F0C0B20146029003
:102770000020FEF7CDFFBF4800780A2190FBF1F260
:1027800001FB1200C0B2014602900120FEF7C0FF1B
:1027900007E014210020FEF7BBFF14210120FEF703
:1027A000B7FF1098B0F5AF6F01DD00201090172132
:1027B0000220FEF7ADFFB04800780A2190FBF1F04F
:1027C000C0B2014602900320FEF7A2FFAA4800789B
:1027D0000A2190FBF1F201FB1200C0B20146029007
:1027E0000420FEF795FF17210520FEF791FFA3486F
:1027F00000780A2190FBF1F0C0B201460290062059
:10280000FEF786FF9D4800780A2190FBF1F201FB5C
:102810001200C0B2014602900720FEF779FF0121A5
:102820009148FEF783F8E8BB0020109007E0CEE067
:102830000D98401CC0B20D900A20FFF78EF80121C0
:102840008948FEF773F810B90D986428F0DB0D98ED
:10285000642831DB29E087480078401C85490870EE
:1028600008460078172801DD002008706420FFF773
:1028700074F8804800780A2190FBF1F0C0B201465C
:1028800002900020FEF744FF7A4800780A2190FB6E
:10289000F1F201FB1200C0B2014602900120FEF7E6
:1028A00037FF00E015E0FDF71FFE01216E48FEF73F
:1028B0003DF80028CFD00CE06E480078401C6D49F0
:1028C000087008460078172801DD00200870FDF721
:1028D0000BFE02216448FEF729F8E0BB00201090AF
:1028E00006E00D98401CC0B20D900A20FFF735F8A5
:1028F00002215D48FEF71AF810B90D986428F0DB44
:102900000D98642831DB29E05A48007810B9182066
:102910005849087057480078401E5649087064208E
:10292000FFF71BF8534800780A2190FBF1F0C0B282
:10293000014602900020FEF7EBFE4E4800780A2187
:1029400090FBF1F201FB1200C0B20146029001209F
:10295000FEF7DEFE00E015E0FDF7C6FD022142486D
:10296000FDF7E4FF0028CFD00CE04248007810B912
:102970001820404908703F480078401E3D490870C3
:10298000FDF7B2FD04213848FDF7D0FF68B90820F3
:102990003749087001200890FDF7A6FD00BF04210B
:1029A0003148FDF7C3FF0028F9D008212E48FDF774
:1029B000BDFF60B901202E4908700890FDF716FE92
:1029C00000BF08212848FDF7B1FF0028F9D0129870
:1029D00008287BD11098401C80B210901098B0F558
:1029E0002F7F18DA244800780A2190FBF1F0C0B25A
:1029F000014602900320FEF78BFE1F4800780A2153
:102A000090FBF1F201FB1200C0B2014602900420DB
:102A1000FEF77EFE07E014210320FEF779FE142165
:102A20000420FEF775FE1098B0F5AF6F01DD0020B1
:102A30001090104800780A2190FBF1F0C0B20146D6
:102A400002900020FEF764FE0A4800780A2190FBFD
:102A5000F1F201FB1200C0B2014602900120FEF724
:102A600057FE172102200BE0000801400300002060
:102A700012000020040000200500002006000020B5
:102A8000FEF746FE17210520FEF742FEFB480078C0
:102A90000A2190FBF1F0C0B2014602900620FEF739
:102AA00037FEF64800780A2190FBF1F201FB120094
:102AB000C0B2014602900720FEF72AFE0121F0482D
:102AC000FDF734FFE8BB0020109007E0CEE00D9842
:102AD000401CC0B20D900A20FEF73FFF0121E848DC
:102AE000FDF724FF10B90D986428F0DB0D986428D9
:102AF00031DB29E0E3480078401CE24908700846D1
:102B000000783B2801DD002008706420FEF725FFD7
:102B1000DC4800780A2190FBF1F0C0B20146029037
:102B20000320FEF7F5FDD74800780A2190FBF1F26B
:102B300001FB1200C0B2014602900420FEF7E8FD3E
:102B400000E015E0FDF7D0FC0121CD48FDF7EEFED9
:102B50000028CFD00CE0CB480078401CC949087051
:102B6000084600783B2801DD00200870FDF7BCFC1A
:102B70000221C348FDF7DAFEF0BB0020109006E00A
:102B80000D98401CC0B20D900A20FEF7E6FE02210F
:102B9000BB48FDF7CBFE10B90D986428F0DB0D980B
:102BA000642831DB27E0B748007810B93C20B549EC
:102BB0000870B4480078401EB24908706420FEF7DF
:102BC000CCFEB04800780A2190FBF1F0C0B201467B
:102BD00002900320FEF79CFDAA4800780A2190FB92
:102BE000F1F201FB1200C0B2014602900420FEF790
:102BF0008FFDFDF779FC00E013E00221A048FDF70E
:102C000095FE0028CFD00CE09E48007810B93C20FB
:102C10009C4908709B480078401E9A490870FDF74F
:102C200063FC04219648FDF781FE68B909209649A6
:102C3000087001200890FDF757FC00BF0421904860
:102C4000FDF774FE0028F9D008218D48FDF76EFECF
:102C500060B901208C4908700890FDF7C7FC00BFDF
:102C600008218748FDF762FE0028F9D0129809284C
:102C70007ED11098401C80B210901098B0F52F7F34
:102C800018DA7E4800780A2190FBF1F0C0B20146C4
:102C900002900620FEF73CFD784800780A2190FB60
:102CA000F1F201FB1200C0B2014602900720FEF7CC
:102CB0002FFD07E014210620FEF72AFD142107202E
:102CC000FEF726FD1098B0F5AF6F01DD00201090E3
:102CD0006E4800780A2190FBF1F0C0B201460290E4
:102CE0000020FEF715FD694800780A2190FBF1F2FB
:102CF00001FB1200C0B2014602900120FEF708FD60
:102D000017210220FEF704FD5E4800780A2190FB9F
:102D1000F1F0C0B2014602900320FEF7F9FC5948D9
:102D200000780A2190FBF1F201FB1200C0B20146CB
:102D300002900420FEF7ECFC17210520FEF7E8FCCA
:102D400001214F48FDF7F2FDF0BB0020109006E096
:102D50000D98401CC0B20D900A20FEF7FEFD012127
:102D60004748FDF7E3FD10B90D986428F0DB00E05B
:102D7000C9E00D98642831DB29E040480078401C08
:102D80003E490870084600783B2801DD00200870A5
:102D90006420FEF7E2FD394800780A2190FBF1F04B
:102DA000C0B2014602900620FEF7B2FC334800781C
:102DB0000A2190FBF1F201FB1200C0B20146029021
:102DC0000720FEF7A5FC00E015E0FDF78DFB0121D3
:102DD0002B48FDF7ABFD0028CFD00CE0274800784A
:102DE000401C26490870084600783B2801DD002079
:102DF0000870FDF779FB02212148FDF797FDE0BB44
:102E00000020109006E00D98401CC0B20D900A20E2
:102E1000FEF7A3FD02211A48FDF788FD10B90D98B1
:102E20006428F0DB0D9864283BDB33E0134800781E
:102E300010B93C201149087010480078401E0F4915
:102E400008706420FEF789FD0C4800780A2190FB89
:102E5000F1F0C0B2014602900620FEF759FC074887
:102E600000780A2190FBF1F201FB1200C0B201468A
:102E700002900720FEF74CFC0AE01FE0060000204D
:102E8000000801400500002012000020040000207E
:102E9000FDF72AFB0221FE48FDF748FD0028C5D0BA
:102EA0000CE0FC48007810B93C20FA490870F94859
:102EB0000078401EF7490870FDF716FB0421F4481E
:102EC000FDF734FD68B90420F3490870012008902B
:102ED000FDF70AFB00BF0421ED48FDF727FD0028A0
:102EE000F9D00821EA48FDF721FD60B90120EA493F
:102EF00008700890FDF77AFB00BF0821E448FDF751
:102F000015FD0028F9D0129809287BDD12981428A5
:102F100078DA1098401C80B2109012980A3841005C
:102F20000F98814250D103A90F98085C18284BD004
:102F30001098B0F52F7F19DA0F98085C0A2190FBE2
:102F4000F1F0C0B2014602900320FEF7E1FB03A9B5
:102F50000F98085C0A2190FBF1F201FB1200C0B24D
:102F6000014602900420FEF7D3FB07E01421032062
:102F7000FEF7CEFB14210420FEF7CAFB1098B0F533
:102F8000AF6F01DD0020109017210520FEF7C0FB78
:102F900003A90F98401C085C0A2190FBF1F0C0B215
:102FA000014602900620FEF7B3FB03A90F98401CD0
:102FB000085C0A2190FBF1F201FB1200C0B201464D
:102FC00002900720FEF7A4FB03A90F98085C1828BD
:102FD00033D11098B0F52F7F15DA1E210320FEF7AC
:102FE00097FB1F210420FEF793FB1F210520FEF70E
:102FF0008FFB14210620FEF78BFB14210720FEF720
:1030000087FB14E007E214210320FEF781FB142163
:103010000420FEF77DFB14210520FEF779FB142127
:103020000620FEF775FB14210720FEF771FB1098B0
:10303000B0F5AF6F01DD0020109012980A38400003
:10304000401C0F9988424CD11098B0F52F7F1ADAA6
:1030500003A90F98085C0A2190FBF1F0C0B2014669
:1030600002900620FEF754FB03A90F98085C0A2182
:1030700090FBF1F201FB1200C0B201460290072062
:10308000FEF746FB07E014210620FEF741FB142162
:103090000720FEF73DFB1098B0F5AF6F01DD002073
:1030A00010900F98401E03A9085C0A2190FBF1F0D4
:1030B000C0B2014602900320FEF72AFB0F98401E83
:1030C00003A9085C0A2190FBF1F201FB1200C0B2D7
:1030D000014602900420FEF71BFB17210520FEF796
:1030E00017FB01216A48FDF721FCE8BB0020109086
:1030F00006E00D98401CC0B20D900A20FEF72DFC92
:1031000001216348FDF712FC10B90D986428F0DB2B
:103110000D98642866DB5EE003A90F98085C401CEC
:10312000C1B203AA0F98115412980A3841000F989F
:10313000814228D103A90F98085C182802DD0021DC
:103140000F98115403A90F98085C18283ED00F98C7
:10315000085C0A2190FBF1F0C0B201460290032006
:10316000FEF7D6FA03A900E05EE00F98085C0A219A
:1031700090FBF1F201FB1200C0B201460290042064
:10318000FEF7C6FA22E003A90F98085C3B2803DD8E
:10319000002103AA0F98115403A90F98085C0A2173
:1031A00090FBF1F0C0B2014602900620FEF7B0FAA3
:1031B00003A90F98085C0A2190FBF1F201FB1200B1
:1031C000C0B2014602900720FEF7A2FA6420FEF783
:1031D000C4FBFDF789F901212D48FDF7A7FB002865
:1031E0009AD021E003A90F98085C401CC1B203AA41
:1031F0000F98115412980A3841000F98814208D153
:1032000003A90F98085C18280CDD00210F981154B1
:1032100008E003A90F98085C3B2803DD002103AAFE
:103220000F981154FDF760F902211948FDF77EFB54
:10323000A0BB0020109006E00D98401CC0B20D907D
:103240000A20FEF78AFB02211148FDF76FFB10B937
:103250000D986428F0DB0D98642874DB6BE01298FD
:103260000A3841000F98814236D103A90F98085CB3
:1032700018B9192103AA0F98115403A90F98085CD3
:10328000401EC1B203AA0F98115403A90F9806E07B
:103290000008014006000020120000207CE0085CCD
:1032A000182843D00F98085C0A2190FBF1F0C0B2B7
:1032B000014602900320FEF72BFA03A90F98085C41
:1032C0000A2190FBF1F201FB1200C0B2014602900C
:1032D0000420FEF71DFA29E003A90F98085C18B92D
:1032E0003C2103AA0F98115403A90F98085C401EB3
:1032F000C1B203AA0F98115403A90F98085C0A21C0
:1033000090FBF1F0C0B2014602900620FEF700FAF1
:1033100003A90F98085C0A2190FBF1F201FB12004F
:10332000C0B2014602900720FEF7F2F96420FEF7D2
:1033300014FBFDF7D9F802219A48FDF7F7FA0028A7
:103340008DD029E0FFE712980A3841000F9881429A
:1033500010D103A90F98085C18B9192103AA0F9876
:10336000115403A90F98085C401EC1B203AA0F981C
:1033700011540FE003A90F98085C18B93C2103AA67
:103380000F98115403A90F98085C401EC1B203AAFC
:103390000F981154FDF7A8F804218248FDF7C6FAEA
:1033A00010BB12980A3841000F9881420BD103A933
:1033B0000F98085C182806D012980A384000401C64
:1033C000C0B20F9004E012980A384006000E0F9029
:1033D00003A8FDF73BF8FDF787F800BF042171480B
:1033E000FDF7A4FA0028F9D008216E48FDF79EFAEF
:1033F00088B9002010900F9001206B49087003A835
:10340000FDF724F8FDF7F2F800BF08216548FDF745
:103410008DFA0028F9D0129814287DD11098401CFC
:1034200080B210901098012840DD1C210020FEF78A
:103430006FF91D210120FEF76BF902200999FEF7B3
:1034400067F95A4800780A2190FBF1F0C0B20146B2
:1034500002900320FEF75CF9544800780A2190FBA3
:10346000F1F201FB1200C0B2014602900420FEF707
:103470004FF917210520FEF74BF94D4800780A2136
:1034800090FBF1F0C0B2014602900620FEF740F931
:10349000474800780A2190FBF1F201FB1200C0B20C
:1034A000014602900720FEF733F91FE014210020A7
:1034B000FEF72EF914210120FEF72AF9142102202B
:1034C000FEF726F914210320FEF722F91421042027
:1034D000FEF71EF914210520FEF71AF91421062023
:1034E000FEF716F914210720FEF712F910980328A9
:1034F00001DD00201090FDF779F801212948FDF742
:1035000015FA80B901202849087000200A900E9011
:10351000FCF7EAFF00BF00E041E001212148FDF790
:1035200005FA0028F7D002211E48FDF7FFF970B90F
:1035300001201D49087000200A900E90FCF7D4FF6E
:1035400000BF02211748FDF7F1F90028F9D0042146
:103550001448FDF7EBF970B90120134908700020F9
:103560000A900E90FCF7C0FF00BF04210D48FDF744
:10357000DDF90028F9D008210A48FDF7D7F970B91C
:1035800001200949087000200A900E90FCF7ACFF5A
:1035900000BF08210348FDF7C9F90028F9D000BF92
:1035A000FEF77DBA00080140120000200400002050
:1035B00005000020000303060104060205000305C0
:1035C0001F1C1F1E1F1E1F1F1E1F1E1FEC35000865
:1035D0000000002028000000280100081436000820
:1035E0002800002028070000440100080000000017
:1035F00000000000000000000000000000000000CB
:103600000000000102030401020304060708090286
:0436100004060800A4
:04000005080000ED02
:00000001FF
