:020000040800F2
:1000000050070020910100089D0D000849090008D3
:10001000990D0008B50600085119000800000000FD
:10002000000000000000000000000000651500084E
:10003000B906000800000000AD0D000851160008C8
:10004000AB010008AB010008AB010008AB010008E0
:10005000AB010008AB010008AB010008AB010008D0
:10006000AB010008AB010008AB010008AB010008C0
:10007000AB010008AB010008AB010008AB010008B0
:10008000AB010008AB010008AB010008AB010008A0
:10009000AB010008AB010008AB010008AB01000890
:1000A000AB010008AB010008AB010008AB01000880
:1000B000AB010008AB010008AB010008AB01000870
:1000C000AB010008AB010008AB010008AB01000860
:1000D000AB01000899180008AB010008AB0100084B
:1000E000AB010008AB010008AB01000800F002F80A
:1000F00000F03FF80AA090E8000C82448344AAF183
:100100000107DA4501D100F034F8AFF2090EBAE880
:100110000F0013F0010F18BFFB1A43F0010318473B
:100120000032000020320000103A24BF78C878C1A5
:10013000FAD8520724BF30C830C144BF04680C60ED
:10014000704700000023002400250026103A28BF35
:1001500078C1FBD8520728BF30C148BF0B60704739
:10016000632900F00781002070471FB51FBD10B53F
:1001700010BD00F039F91146FFF7F7FF01F020FC40
:1001800000F057F903B4FFF7F2FF03BC01F0E2FB04
:100190000948804709480047FEE7FEE7FEE7FEE71B
:1001A000FEE7FEE7FEE7FEE7FEE7FEE70448054957
:1001B000054A064B7047000055160008ED00000880
:1001C0005001002050070020500300205003002061
:1001D000704700000FB4044910B503AA029800F05C
:1001E000D5F810BC5DF814FB0C0000202DE9F0419F
:1001F0000E460446002020622046E168884730B35E
:10020000252805D0D4E901219047206A401CF2E757
:10021000E168204600278847050018D0A5F1410075
:10022000192802D820354FF4006732462946204667
:100230002760FFF795FF40B1012804D0F61D26F096
:1002400007060836D8E7361DD6E72846DAE7206ADB
:10025000BDE8F08170B50C460546012A05D0287826
:10026000800600D5EA69002302E0012305E05B1C5B
:10027000934202D2E05C0028F9D1A869E618C01ABE
:10028000A861286A184428622846AFF3008004E079
:10029000D5E9012114F8010B9047B442F8D3284660
:1002A000AFF3008070BD10B5203AC0F00B80B1E80C
:1002B0001850203AA0E81850B1E81850A0E818509B
:1002C000BFF4F5AF5FEA027C24BFB1E81850A0E8A4
:1002D000185044BF18C918C0BDE810405FEA827CBE
:1002E00024BF51F8043B40F8043B08BF7047D207D5
:1002F00028BF31F8023B48BF11F8012B28BF20F876
:10030000023B48BF00F8012B70474FF0000200B5D8
:10031000134694469646203922BFA0E80C50A0E828
:100320000C50B1F12001BFF4F7AF090728BFA0E8D6
:100330000C5048BF0CC05DF804EB890028BF40F8A2
:10034000042B08BF704748BF20F8022B11F0804FE4
:1003500018BF00F8012B704770477047704770470F
:1003600010B5436913B1AFF3008001E0FFF772FFEE
:10037000012010BD127800F124010A7000224A7099
:100380000122EDE711684FF0FF32E9E7074B70B546
:100390000D467B4400F011F80446284600F020F892
:1003A00010B14FF0FF3070BD204670BD0F16000039
:1003B00001694A1C02610878704700B58FB0CDE929
:1003C00001310021059105497944CDE90310114619
:1003D0006846FFF70BFF0FB000BD0000E5FFFFFF11
:1003E000007B00F080007047754600F02BF8AE46A9
:1003F00005006946534620F00700854618B020B531
:10040000FFF7D4FEBDE820404FF000064FF0000794
:100410004FF000084FF0000B21F00701AC46ACE8AC
:10042000C009ACE8C009ACE8C009ACE8C0098D4619
:10043000704710B50446AFF300802046BDE8104079
:10044000FFF7A0BE00487047F000002070B50546D9
:100450000024002600F0C0F9352000F02FF90F48E5
:1004600000F032F900BF13E06000401C295C15F871
:10047000140001EB002086B20849022202FB04109E
:10048000314600F079F9352000F018F9601CC4B24B
:100490000A2CE9DB00F058F970BD000000F00108FB
:1004A00010B5012000F0A4FC002000F0A1FC10BD5C
:1004B00008B50146002000900348009000980844C9
:1004C00000900098008808BD006C004008B500222C
:1004D0000092044A0092009A02440092009A11602D
:1004E00008BD0000006C004010B5002413E000229D
:1004F00020210A4800F023FA4FF4FA7001F03AFA8A
:1005000001222021054800F01AFA4FF4FA7001F098
:1005100031FA601C84B2C82CE9DB10BD000C01402C
:1005200010B5002413E0002220210B4800F007FA48
:100530004FF4487001F01EFA01222021064800F015
:10054000FEF94FF4487001F015FA601C84B2B4F55E
:10055000C87FE8DB10BD0000000C014010B500248E
:1005600011E000222021204800F0E9F9C82001F024
:1005700001FA012220211C4800F0E1F9C82001F015
:10058000F9F9601C84B2962CEBDB002413E0002206
:100590002021154800F0D3F94FF4967001F0EAF9E4
:1005A00001222021104800F0CAF94FF4967001F0A2
:1005B000E1F9601C84B2642CE9DB002411E0002224
:1005C0002021094800F0BBF9642001F0D3F9012291
:1005D0002021054800F0B3F9642001F0CBF9601C3C
:1005E00084B2FA2CEBDB10BD000C014010B50024E6
:1005F00011E000222021214800F0A1F9C82001F0DB
:10060000B9F9012220211D4800F099F9C82001F014
:10061000B1F9601C84B2B4F5E17FEADB002413E099
:1006200000222021154800F08AF94FF4C87001F02B
:10063000A1F901222021114800F081F94FF4C8707E
:1006400001F098F9601C84B2FA2CE9DB002411E077
:1006500000222021094800F072F9642001F08AF993
:1006600001222021054800F06AF9642001F082F996
:10067000601C84B2B4F5E17FEADB10BD000C0140E0
:1006800008B50121082000F0A3FB10208DF803001D
:100690002020ADF8000003208DF8020069460448D0
:1006A00000F0B9F801222021014800F048F908BD06
:1006B000000C014000BFFEE7704700000149C86020
:1006C000704700000020024030B5044604254FF476
:1006D000302000F08DF80546042D17D10C48006934
:1006E00040F002000A49086108464461006940F090
:1006F000400008614FF4302000F07AF805460448C5
:10070000006941F6FD71084001490861284630BD85
:100710000020024004200B49C96801F0010109B121
:1007200001200EE00749C96801F0040109B1022067
:1007300007E00449C96801F0100109B1032000E095
:1007400004207047002002400348006940F0800008
:10075000014908617047000000200240054909680E
:1007600021F01001034A116011460968014311602C
:10077000704700000020024070B504460D46042674
:10078000F00200F035F80646042E11D10948006940
:1007900040F00100074908612580F00200F028F8C8
:1007A00006460448006941F6FE71084001490861A7
:1007B000304670BD002002400146088870470000A6
:1007C00001460020034A106800F03800084310601A
:1007D0007047000000200240024803494860034877
:1007E000486070472301674500200240AB89EFCD88
:1007F00000B502460423FFF78DFF034603E0FFF731
:1008000089FF0346521E012B01D1002AF7D102B9FC
:100810000523184600BD2DE9F041024600250026BB
:10082000002000230024002791F803C00CF00F05DE
:1008300091F803C00CF0100CBCF1000F03D091F83C
:1008400002C04CEA050591F800C0BCF1000F31D0A0
:10085000146800202BE04FF0010C0CFA00F3B1F803
:1008600000C00CEA03069E4220D183004FF00F0C1B
:100870000CFA03F7BC4305FA03FC4CEA040491F8B4
:1008800003C0BCF1280F06D14FF0010C0CFA00FC9C
:10089000C2F814C00AE091F803C0BCF1480F05D1BA
:1008A0004FF0010C0CFA00FCC2F810C0401C0828E4
:1008B000D1D31460B1F800C0BCF1FF0F34DD54682F
:1008C00000202EE000F1080C4FF0010808FA0CF3AC
:1008D000B1F800C00CEA03069E4221D183004FF01C
:1008E0000F0C0CFA03F7BC4305FA03FC4CEA0404B2
:1008F00091F803C0BCF1280F05D100F1080C08FAEB
:100900000CF8C2F8148091F803C0BCF1480F07D16D
:1009100000F1080C4FF0010808FA0CF8C2F810803A
:10092000401C0828CED35460BDE8F0810246002068
:1009300093680B400BB1012000E0002070470AB122
:10094000016100E04161704700BFFEE721B102880C
:1009500042F48062028004E002884FF6FF331A40BE
:100960000280704770B50246002400250023002055
:10097000958A138B1B0445EA030626F07F4404EA9C
:1009800001068E4201D1012000E0002070BD21B19E
:10099000028842F00102028004E002884FF6FE73F2
:1009A0001A400280704700001FB500F021F80020B7
:1009B000ADF804004BF6FF70ADF80600C020ADF8AE
:1009C00008004FF48060ADF80A000001ADF80C009B
:1009D000054800906946054800F05AF8012103488F
:1009E000FFF7D5FF1FBD0000400D0300005400407D
:1009F00008B50121082000F0EBF90121480500F0BD
:100A0000D7F9C020ADF800001C208DF803000320AA
:100A10008DF8020069460248FFF7FDFE08BD0000A0
:100A2000000C014021B1028842F48072028004E08F
:100A300002884FF6FF631A400280704721B1028896
:100A400042F40072028004E002884FF6FF531A401D
:100A5000028070470CB502460020002301930093EA
:100A600000920B0F019321F07F41019B1BB1009B72
:100A70001433009303E0090C009B18330093009B90
:100A80001B680B400BB1012000E000200CBD0000F2
:100A90002DE9F04385B004460D460026B1460427F3
:100AA000DFF8CC80A6884FF6C0700640684600F09C
:100AB00007FADDF808802F48B8FBF0F01FFA80F93C
:100AC00046EA0906A68020884FF6FE71084020807D
:100AD00000262949286888420CD828684000B8FBBD
:100AE000F0F087B2042F00DA04273E4309F1010039
:100AF000208427E0E8884BF6FF71884206D12868F9
:100B000000EB4000B8FBF0F087B209E0286800EB8A
:100B1000C00101EB0010B8FBF0F087B247F480474A
:100B2000C7F30B0008B947F0010747F4004006433C
:100B30004FF4967009FB00F04FF47A7190FBF1F0DE
:100B4000401C2084A683208840F001002080268855
:100B50004FF6F5300640A888698908430643268089
:100B6000A88929890843208105B0BDE8F0830000E9
:100B700000127A0040420F00A08601002DE9F041EA
:100B800006460F4615461C4600BF4FF4003132485A
:100B9000FFF760FF0028F8D101212F48FFF742FF3F
:100BA00000BF2E492C48FFF7DDFE0028F9D00022B7
:100BB0003146294800F05AF800BF29492648FFF776
:100BC000D1FE0028F9D001212348FFF7E0FE394685
:100BD000214800F054F800BF2149891C1E48FFF746
:100BE000C1FE0028F8D001211B48FFF71BFF00BF02
:100BF0001A491948FFF7B6FE0028F9D001223146FC
:100C0000154800F033F800BF1449491C1248FFF79B
:100C1000A9FE0028F8D016E0012C07D100210E48CB
:100C2000FFF794FE01210C48FFF708FF0B493F3105
:100C30000948FFF797FE30B1074800F013F8287015
:100C40006D1C601E84B2002CE6D101210248FFF722
:100C50007DFEBDE8F081000000540040010003006B
:100C6000820007000146088AC0B2704712B141F005
:100C7000010102E04FF6FE731940018270470182C4
:100C800070470146CA1701EB92729210A1EB8202E3
:100C900092B9642091FBF0F200FB121050B94FF4AE
:100CA000C87091FBF0F200FB121008B901207047E8
:100CB0000020FCE70120FAE70020F8E708B5012151
:100CC000082000F085F80320ADF8000010208DF812
:100CD000030001208DF8020069460248FFF79BFDE2
:100CE00008BD0000000C0140F8B5064600240025B0
:100CF00002236A4600219E20FFF740FF9DF8004036
:100D00000020307004F0800028B101203070E043F2
:100D1000C4B2601CC4B204F0010008B1681CC5B2C2
:100D200004F0020008B1A81CC5B204F0040008B128
:100D3000281DC5B204F0080010B105F10800C5B2C5
:100D400004F0100010B105F11000C5B204F020004D
:100D500010B105F12000C5B204F0400010B105F15A
:100D60004000C5B2761C357000259DF8014004F0A6
:100D7000200010B105F10C00C5B204F0400010B124
:100D800005F11900C5B204F0800010B105F1320080
:100D9000C5B2761C3570F8BD00BFFEE77047000095
:100DA000014908627047000000000E4270470000D1
:100DB00029B1064AD2690243044BDA6104E0034ACE
:100DC000D2698243014BDA61704700000010024093
:100DD00029B1064A92690243044B9A6104E0034A2E
:100DE00092698243014B9A617047000000100240F3
:100DF0000149086070470000400442420348406ACD
:100E000040F08070014948627047000000100240C5
:100E100010B500F02FF84FF4803000F0EDF800F03E
:100E200071F90446012C24D14FF4E011000400F0C4
:100E300041F9002000F0D4F8A00200F01DF90020D4
:100E400000F026F90220FFF7BBFC1020FFF786FC1C
:100E5000012000F029F900BF392000F09BF800289C
:100E6000FAD0022000F042F900BF00F0B1F80828E3
:100E7000FBD110BD0F48006840F001000D4908602B
:100E8000084640680C4908400A494860084600681E
:100E90000A490840074908600846006820F4802095
:100EA00008600846406820F4FE0048604FF41F00C8
:100EB00088607047001002400000FFF8FFFFF6FE58
:100EC00030B500210022002400232D4D6D6805F06F
:100ED0000C0121B1042905D0082923D105E0294DB1
:100EE000056022E0274D05601FE0254D6D6805F483
:100EF0007012234D6D6805F48034022505EB924293
:100F00001CB9214D554305600BE01D4D6D6805F47E
:100F100000351DB11C4D5543056002E0194D554388
:100F2000056002E0174D056000BF00BF144D6D68FD
:100F300005F0F0010909154D6B5C0568DD40456061
:100F40000F4D6D6805F4E061090A104D6B5C456852
:100F5000DD4085600A4D6D6805F46051C90A0B4D8E
:100F60006B5C4568DD40C560054D6D6805F440412A
:100F7000890B074D6B5CC568B5FBF3F5056130BDAA
:100F80000010024000127A0000093D00130000200A
:100F90002300002010B501460022002300204A1142
:100FA000012A02D1094C236806E0022A02D1074C2B
:100FB000236A01E0054C636A01F01F02012494409A
:100FC0001C400CB1012000E0002010BD00100240C8
:100FD0000248406800F00C0070470000001002401A
:100FE00001460020034A506820F0F000084350609A
:100FF00070470000001002401149096821F4803157
:101000000F4A11601146096821F480211160B0F582
:10101000803F03D0B0F5802F0ED106E00849096863
:1010200041F48031064A116007E00549096841F43E
:10103000A021034A116000E000BF00BF704700001C
:101040000010024000210B4A11700A4A203A82F82F
:101050002010012802D0042808D103E00121054A0C
:10106000117004E00521034A117000E000BF00BFC9
:10107000704700002010024001460020034A5068DB
:1010800020F4E06008435060704700000010024008
:1010900001460020034A506820F4605040EAC10035
:1010A0005060704700100240014908667047000018
:1010B0000000424202460020044B586820F47C1095
:1010C00042EA01031843014B586070470010024088
:1010D00001490860704700003C0442420249096A25
:1010E0000143014A1162704700100240014600208E
:1010F000034A506820F00300084350607047000026
:101100000010024038B5002000900024002500BFE8
:101110003120FFF73FFF05460098401C00900098E3
:10112000B0F5A06F01D0002DF2D03120FFF732FFD3
:1011300008B1012400E00024204638BD10B5042089
:10114000FFF7B6F94AF2A551884207D000F02AF815
:101150004AF2A5510420FFF7B9F90DE07B20FFF713
:1011600019FF10B97A20FFF715FFFFF747FE01209E
:10117000FFF7AEFF00F060F910BD000003480088E3
:1011800040F010000149088070470000042800402A
:10119000034800884FF6EF71084001490880704706
:1011A0000428004010B501214FF0C050FFF700FEA9
:1011B0000120FFF7F5FDFFF773F90120FFF742FF6C
:1011C00000BF4120FFF7E6FE0028FAD04FF4807000
:1011D000FFF784FF0120FFF77BFF00F02DF900F0FF
:1011E00021F947F6FF7000F00DF900F01BF910BD72
:1011F00070B500260024002500F08AF806463A481B
:10120000B6FBF0F439480088A0423DD037490C8045
:1012100040F2B27510E02846FFF733FD40B1B4F557
:10122000B77F02D3A4F5B77404E0681C85B206E06A
:10123000A4F26D14681C85B2B4F5B67FEBD800BF7C
:101240002B480580002516E029480088FFF719FD86
:1012500030B1012D04D11D2C01D31D3C09E00CE05F
:101260002448405DA04203D82248405D241A00E093
:1012700003E0681C85B21C2CE6D200BF681C1E4926
:101280000870601C1D4908701748B6FBF0F100FBA0
:1012900011644FF46160B4FBF0F0194908704FF429
:1012A0006160B4FBF0F100FB11403C21B0FBF1F0B8
:1012B000144908704FF46160B4FBF0F100FB114079
:1012C0003C21B0FBF1F201FB12000F4908700B4802
:1012D0000278094801780648008800F0BFF80B49F9
:1012E0000870002070BD000080510100080000203F
:1012F000000000201433000802000020030000203A
:101300000400002005000020060000200700002047
:10131000002103480188001F008841EA004070470F
:101320001C2800402DE9F05F06460F46904699467E
:10133000DDE90AAB0024B6F5FA6F03DB40F63300B3
:10134000864202DD0120BDE8F09F40F2B2750AE05E
:101350002846FFF796FC10B11F48044401E01F48DF
:101360000444681C85B2B542F2DB781EC7B2002582
:1013700010E01B48405D40F2A321484304EBC01439
:101380003046FFF77EFC18B1012D01D11548044409
:10139000681C85B2BD42ECDBA8F1010040F2A3213C
:1013A000484304EBC014C9EB4910C0EB092004EB1F
:1013B0000014CAEB0A1004EB80045C44FFF7F2FE51
:1013C0004AF2A5510420FFF781F8204600F00CF8FE
:1013D00000F028F80020B6E70085E2018033E10143
:1013E000143300088051010000B50246FFF7C6FE25
:1013F000100C03490880091D0A80FFF7C9FE00BDD3
:101400001828004000B50246FFF7B8FEC2F30340BB
:1014100003490880091D0A80FFF7BAFE00BD0000DD
:101420000828004000BF0348008800F02000002882
:10143000F9D0704704280040074800884FF6F7713C
:1014400008400549088000BF0348008800F00800F4
:101450000028F9D0704700000428004070B503460A
:101460001446012901DB0C2901DDFF2070BD012993
:1014700001D0022904D101F10C00C1B2581E83B27F
:10148000481C00EB4000052590FBF5F0022505FB0C
:101490000145284418441A46DD1703EB957500EB07
:1014A000A500642593FBF5F5401B4FF4C87593FB2D
:1014B000F5F52844401C072590FBF5F605FB1600C2
:1014C000C01D90FBF5F605FB1600C0B2CEE700008C
:1014D00010B501212148FFF729FA58B90020204909
:1014E0000870FFF701F800BF01211C48FFF71EFA42
:1014F0000028F9D002211948FFF718FA58B901203D
:1015000017490870FEF7F0FF00BF02211348FFF7EC
:101510000DFA0028F9D004211048FFF707FA58B94E
:1015200002200F490870FEF7DFFF00BF04210B48BF
:10153000FFF7FCF90028F9D008210848FFF7F6F971
:1015400058B9032006490870FEF7CEFF00BF0821F6
:101550000248FFF7EBF90028F9D010BD0008014060
:1015600012000020704710B500F002F810BD000016
:101570000CB50020019000903348006840F48030A2
:101580003149086000BF3048006800F40030009026
:101590000198401C0190009818B90198B0F5A06F0F
:1015A000F1D12948006800F4003010B1012000900A
:1015B00001E0002000900098012843D123480068F2
:1015C00040F01000214908600846006820F0030040
:1015D00008600846006840F0020008601A48406849
:1015E000194948600846406848600846406840F429
:1015F000806048600846406820F47C1048600846D7
:10160000406840F4E81048600846006840F0807088
:10161000086000BF0C48006800F000700028F9D096
:101620000948406820F003000749486008464068C0
:1016300040F00200486000BF0348406800F00C0022
:101640000828F9D10CBD0000001002400020024023
:101650007047000010B51348006840F001001149C0
:10166000086008464068104908400E49486008462E
:1016700000680E4908400B4908600846006820F4DD
:10168000802008600846406820F4FE0048604FF45F
:101690001F008860FFF767FF4FF000600449086093
:1016A00010BD0000001002400000FFF8FFFFF6FE32
:1016B00008ED00E008B501210420FFF789FB4FF495
:1016C000C050ADF8000010208DF8030003208DF805
:1016D000020069460D48FFF79EF80122D1020B482F
:1016E000FFF72DF9012211030848FFF728F900F050
:1016F00037F8402000F072F800F056F800F030F8AB
:101700008C2000F06BF800F04FF808BD0008014095
:1017100030B589B004460D46202209A101A8FEF784
:10172000C2FD00F01DF804F1C001C8B200F056F887
:1017300001A9485D00F052F800F036F809B030BD5C
:101740003F065B4F666D7D077F6FBF86DBCFE6EDA3
:10175000FD87FFEF004058096D79073177380000A9
:1017600010B50122D1020F48FFF7E9F80122110359
:101770000C48FFF7E4F8012000F0FCF800224FF4D9
:1017800080510848FFF7DBF8012000F0F3F8002251
:101790004FF400610348FFF7D2F8012000F0EAF8A7
:1017A00010BD00000008014010B500224FF4805128
:1017B0000948FFF7C4F80122D1020748FFF7BFF834
:1017C000012000F0D7F8012211030348FFF7B7F812
:1017D000012000F0CFF810BD0008014070B50446AC
:1017E000254600224FF480512148FFF7A8F8002237
:1017F0004FF400611E48FFF7A2F8002628E00022FF
:101800004FF400611A48FFF79AF8012000F0B2F88F
:1018100005F0010040B1012211031548FFF78FF8D0
:10182000012000F0A7F808E000224FF48051104892
:10183000FFF785F8012000F09DF80122D1020C4845
:10184000FFF77DF8012000F095F86D10701CC6B20E
:10185000082ED4DB00224FF480510548FFF76FF8C3
:1018600000224FF400610248FFF769F870BD0000E4
:101870000008014008B501210420FFF7A9FA0F2054
:10188000ADF8000048208DF8030069460148FEF7D6
:10189000C2FF08BD0008014010B540F225511F48A5
:1018A00000F044F8002838D01C4800F04CF8C4B2CE
:1018B00021461BA0FEF78EFC1A48008800F4004069
:1018C00058BB1848008800F4804060B10A2C03D04F
:1018D00000201449088020E01248008840F40040AD
:1018E0001049088019E00D2C06D10E48008840F4FC
:1018F00080400C49088010E00A480088C0F30D00C1
:1019000009490C5407480088401C064908800846CD
:101910000088C72801DD0020088010BD0038014084
:10192000256300001000002028000020024600204F
:10193000B1F5007F00D100BF13880B400BB101202F
:1019400000E00020704701468888C0F30800704717
:1019500000BFFEE7014600BF704700B5034603E045
:101960004FF47A7000F006F8181EA3F101018BB253
:10197000F6D100BD00EBC001C9004FF0E02251617B
:10198000002191610521116100BF4FF0E02109693B
:1019900001F480310029F8D004214FF0E0221161D8
:1019A0007047000000BF054A128802F04002002A7A
:1019B000F9D0C2B2014B1B1D1A807047003801409C
:1019C00090B000200E900D900C900B900A90099012
:1019D00008900790142102A8FEF797FCFFF718FA69
:1019E000FFF76CF9FFF746FFFFF7A8FBFFF762FE72
:1019F000FEF7DAFFFFF73EFFFEF742FE4FF47A7084
:101A0000FFF7ABFFFEF78CFD00200C9024E0FE49B1
:101A10000C9801EB40000190FEF7CEFE089008986C
:101A2000C117019000EB1160C0F3072102AA0C98C6
:101A300002F810100898C117019000EB1160011214
:101A40000198A0EB0120C1B20C984000401C115439
:101A50000C98401C80B20C900C980A28D7DB9DF89B
:101A6000080017280DDD00200C9007E0002102AAD5
:101A70000C9811540C98401C80B20C900C981428AF
:101A8000F4DB02A8FEF7E2FC01F037BCDF48007887
:101A90000E900798012811D100200790DC480078AB
:101AA000DC490978CDE90010DB480378DB4802788F
:101AB000DB480178DB480088FFF734FC0E980328E8
:101AC00002DB0E98092804DDFFF792FB0FA8FFF751
:101AD0000BF90998401C80B209900E98032822DA6D
:101AE0000998012801D1C949087040F6B831099810
:101AF000884202D10020C549087041F28831099816
:101B0000884202D10220C149087041F65831099833
:101B1000884201D10020099041F658310998884245
:101B200001DD002009900E9800285BD1BD48008897
:101B3000642190FBF1F201FB12000A2190FBF1F00D
:101B4000C0B2014601900020FFF7E2FDB5480088D1
:101B5000642190FBF1F201FB12000A2190FBF1F2EB
:101B600001FB1200C0B2014601900120FFF7D0FD39
:101B700015210220FFF7CCFDA94800780A2190FB2F
:101B8000F1F0C0B2014601900320FFF7C1FDA44867
:101B900000780A2190FBF1F201FB1200C0B201466D
:101BA00001900420FFF7B4FD15210520FFF7B0FDDB
:101BB0009A4800780A2190FBF1F0C0B201460190EA
:101BC0000620FFF7A5FD954800780A2190FBF1F269
:101BD00001FB1200C0B2014601900720FFF798FDFB
:101BE000FFF776FC0E98012851D18B4800780A2126
:101BF00090FBF1F0C0B2014601900020FFF788FD94
:101C0000854800780A2190FBF1F201FB1200C0B276
:101C1000014601900120FFF77BFD17210220FFF70D
:101C200077FD7C4800780A2190FBF1F0C0B20146B4
:101C300001900320FFF76CFD764800780A2190FBA5
:101C4000F1F201FB1200C0B2014601900420FFF73F
:101C50005FFD17210520FFF75BFD6D4800780A2125
:101C600090FBF1F0C0B2014601900620FFF750FD55
:101C7000674800780A2190FBF1F201FB1200C0B224
:101C8000014601900720FFF743FDFFF721FC0E9866
:101C900002284BD114210020FFF73AFD1421012026
:101CA000FFF736FD14210220FFF732FD9DF83C00BE
:101CB00020B115210320FFF72BFD03E014210320A1
:101CC000FFF726FD9DF83D00642190FBF1F201FB3A
:101CD00012000A2190FBF1F0C0B2014601900420ED
:101CE000FFF716FD9DF83D000A2190FBF1F201FB84
:101CF00012000A30C0B2014601900520FFF708FD2E
:101D00009DF83E00642190FBF1F201FB12000A21D4
:101D100090FBF1F0C0B2014601900620FFF7F8FCFD
:101D200016210720FFF7F4FCFFF7D2FB0E980328DB
:101D30007CD114210420FFF7EBFC14210520FFF7D0
:101D4000E7FC14210620FFF7E3FC14210720FFF72E
:101D5000DFFC0D9880B918210020FFF7D9FC19216C
:101D60000120FFF7D5FC1A210220FFF7D1FC1B212F
:101D70000320FFF7CDFC13E01C210020FFF7C8FC77
:101D80001D210120FFF7C4FC0D98401EC0B2014682
:101D900001900220FFF7BCFC14210320FFF7B8FCE0
:101DA00001212148FEF7C2FD88B90D98401CC0B240
:101DB0000D900D980A2801DD00200D90FEF794FB90
:101DC00000BF01211848FEF7B1FD0028F9D002211B
:101DD0001548FEF7ABFD80B90D9808B90B200D90A2
:101DE0000D98401EC0B20D90FEF77EFB00BF022191
:101DF0000D48FEF79BFD0028F9D004210A48FEF7A4
:101E000095FD00BB002012E000F001081200002048
:101E10000600002005000020040000200300002030
:101E20000200002000000020000801402BE0FE49D5
:101E300008700D90FEF758FB00BF0421FB48FEF729
:101E400075FD0028F9D00821F848FEF76FFDD0B9DC
:101E50000D9818B90420F449087009E00D9809306C
:101E6000F1490870084600780A384006000E0B90C9
:101E700000200D90FEF772FB00BF0821EB48FEF733
:101E800055FD0028F9D00E98042878D10C98401CF4
:101E900080B20C900C98B0F52F7F22DAE4480088CD
:101EA000642190FBF1F201FB12000A2190FBF1F09A
:101EB000C0B2014601900020FFF72AFCDC480088F0
:101EC000642190FBF1F201FB12000A2190FBF1F278
:101ED00001FB1200C0B2014601900120FFF718FC7F
:101EE00007E014210020FFF713FC14210120FFF765
:101EF0000FFC0C98B0F5AF6F01DD00200C901521A0
:101F00000220FFF705FCCB4800780A2190FBF1F096
:101F1000C0B2014601900320FFF7FAFBC5480078E4
:101F20000A2190FBF1F201FB1200C0B201460190C0
:101F30000420FFF7EDFB15210520FFF7E9FBBE4864
:101F400000780A2190FBF1F0C0B201460190062012
:101F5000FFF7DEFBB84800780A2190FBF1F201FBA5
:101F60001200C0B2014601900720FFF7D1FB01210A
:101F7000AE48FEF7DBFC002863D10C9007E0EFE0F1
:101F80000A98401CC0B20A900A20FFF7E6FC012123
:101F9000A648FEF7CBFC10B90A986428F0DB0A9833
:101FA00064283DDB35E0A2480088401CA049088039
:101FB0000846008840F63301884203DD40F2B270E3
:101FC0009B4908806420FFF7C8FC99480088642179
:101FD00090FBF1F201FB12000A2190FBF1F0C0B27C
:101FE000014601900020FFF793FB9148008864218F
:101FF00090FBF1F201FB12000A2190FBF1F201FBD0
:102000001200C0B2014601900120FFF781FBFEF7EC
:102010006BFA01218548FEF789FC0028C3D010E047
:1020200083480088401C824908800846008840F6A2
:102030003301884203DD40F2B2707D490880FEF72B
:1020400053FA02217948FEF771FCE0BB00200C90A6
:1020500006E00A98401CC0B20A900A20FFF77DFCF7
:1020600002217248FEF762FC10B90A986428F0DB7E
:102070000A9864283EDB36E06D480088401E6C49B3
:1020800008800846008840F2B271884202DA0846A9
:10209000674908806420FFF760FC65480088642178
:1020A00090FBF1F201FB12000A2190FBF1F0C0B2AB
:1020B000014601900020FFF72BFB5D48008864215A
:1020C00090FBF1F200E025E001FB12000A2190FBF9
:1020D000F1F201FB1200C0B2014601900120FFF7AE
:1020E00017FBFEF701FA02215048FEF71FFC0028FB
:1020F000C2D00FE04E480088401E4D490880084677
:10210000008840F2B271884202DA084648490880E5
:10211000FEF7EAF904214548FEF708FC68B90520F6
:102120004149087001200790FEF7DEF900BF042145
:102130003E48FEF7FBFB0028F9D008213B48FEF79C
:10214000F5FB68B900203849087001200790FEF7B8
:102150004DFA00BF08213548FEF7E8FB0028F9D00A
:102160000E9805286AD10C98401C80B20C900C98EF
:10217000B0F52F7F18DA2F4800780A2190FBF1F094
:10218000C0B2014601900320FFF7C2FA2948007847
:102190000A2190FBF1F201FB1200C0B2014601904E
:1021A0000420FFF7B5FA07E014210320FFF7B0FA87
:1021B00014210420FFF7ACFA0C98B0F5AF6F01DDE5
:1021C00000200C901A480088642190FBF1F201FB7A
:1021D00012000A2190FBF1F0C0B2014601900020EC
:1021E000FFF796FA12480088642190FBF1F201FB98
:1021F00012000A2190FBF1F201FB1200C0B201466D
:1022000001900120FFF784FA15210220FFF780FAE0
:1022100015210520FFF77CFA074800780A2190FB7A
:10222000F1F0C0B201460AE01200002000080140AF
:10223000000000200200002003000020E8E00190E0
:102240000620FFF765FAFC4800780A2190FBF1F2BE
:1022500001FB1200C0B2014601900720FFF758FAB7
:102260000121F648FEF762FBF0BB00200C9006E06F
:102270000A98401CC0B20A900A20FFF76EFB0121A9
:10228000EE48FEF753FB10B90A986428F0DB0A9871
:10229000642831DB27E0EA480078401CE8490870F0
:1022A000084600780C2801DD012008706420FFF743
:1022B00054FBE34800780A2190FBF1F0C0B20146DC
:1022C00001900320FFF724FADD4800780A2190FBF3
:1022D000F1F201FB1200C0B2014601900420FFF7A9
:1022E00017FAFEF701F900E013E00121D348FEF7E9
:1022F0001DFB0028CFD00CE0D1480078401CD0490D
:102300000870084600780C2801DD01200870FEF7EF
:10231000EBF80221C948FEF709FBE0BB00200C9056
:1023200006E00A98401CC0B20A900A20FFF715FB8D
:102330000221C248FEF7FAFA10B90A986428F0DBC5
:102340000A98642831DB29E0BD480078401EBC496A
:10235000087008460078012801DA0C200870642013
:10236000FFF7FBFAB64800780A2190FBF1F0C0B203
:10237000014601900320FFF7CBF9B14800780A210C
:1023800090FBF1F201FB1200C0B201460190042063
:10239000FFF7BEF900E015E0FEF7A6F80221A74816
:1023A000FEF7C4FA0028CFD00CE0A5480078401E04
:1023B000A349087008460078012801DA0C2008704B
:1023C000FEF792F804219D48FEF7B0FA68B906209E
:1023D0009C49087001200790FEF786F800BF042191
:1023E0009648FEF7A3FA0028F9D008219348FEF793
:1023F0009DFA68B900209349087001200790FEF704
:10240000F5F800BF08218D48FEF790FA0028F9D0B2
:102410000E98062878D10C98401C80B20C900C982D
:10242000B0F52F7F18DA844800780A2190FBF1F08C
:10243000C0B2014601900620FFF76AF97E48007895
:102440000A2190FBF1F201FB1200C0B2014601909B
:102450000720FFF75DF907E014210620FFF758F980
:1024600014210720FFF754F90C98B0F5AF6F01DD88
:1024700000200C9074480088642190FBF1F201FB6D
:1024800012000A2190FBF1F0C0B201460190002039
:10249000FFF73EF96C480088642190FBF1F201FBE4
:1024A00012000A2190FBF1F201FB1200C0B20146BA
:1024B00001900120FFF72CF915210220FFF728F9E0
:1024C0005F4800780A2190FBF1F0C0B2014601900C
:1024D0000320FFF71DF95A4800780A2190FBF1F21A
:1024E00001FB1200C0B2014601900420FFF710F971
:1024F00015210520FFF70CF901215048FEF716FAC7
:10250000E8BB00200C9007E0DAE00A98401CC0B25B
:102510000A900A20FFF721FA01214848FEF706FA3F
:1025200010B90A986428F0DB0A98642831DB29E0A6
:1025300041480078401C40490870084600781F2830
:1025400001DD012008706420FFF707FA3A4800789F
:102550000A2190FBF1F0C0B2014601900620FFF77E
:10256000D7F8354800780A2190FBF1F201FB120000
:10257000C0B2014601900720FFF7CAF800E015E05D
:10258000FDF7B2FF01212D48FEF7D0F90028CFD08A
:102590000CE029480078401C27490870084600785C
:1025A0001F2801DD01200870FDF79EFF022123484E
:1025B000FEF7BCF9F0BB00200C9006E00A98401C26
:1025C000C0B20A900A20FFF7C8F902211B48FEF7A3
:1025D000ADF910B90A986428F0DB0A9864283CDB4E
:1025E00027E015480078401E134908700846007817
:1025F000012801DA1F2008706420FFF7AEF90E48A9
:1026000000780A2190FBF1F0C0B20146019006204B
:10261000FFF77EF8084800780A2190FBF1F201FBF1
:102620001200C0B2014601900720FFF771F8FDF7D4
:102630005BFF0BE01EE000000300002000080140EB
:102640000200002012000020000000200221F748B4
:10265000FEF76CF90028C4D00CE0F5480078401E65
:10266000F349087008460078012801DA1F20087035
:10267000FDF73AFF0421ED48FEF758F968B9072045
:10268000EC49087001200790FDF72EFF00BF0421E0
:10269000E648FEF74BF90028F9D00821E348FEF799
:1026A00045F968B90020E349087001200790FDF75B
:1026B0009DFF00BF0821DD48FEF738F90028F9D05A
:1026C0000E9807287ED10C98401C80B20C900C9874
:1026D000B0F52F7F18DAD84800780A2190FBF1F086
:1026E000C0B2014601900020FFF712F8D2480078EE
:1026F0000A2190FBF1F201FB1200C0B201460190E9
:102700000120FFF705F807E014210020FFF700F88B
:1027100014210120FEF7FCFF0C98B0F5AF6F01DD2E
:1027200000200C9017210220FEF7F2FFC34800782A
:102730000A2190FBF1F0C0B2014601900320FEF7A0
:10274000E7FFBE4800780A2190FBF1F201FB12007E
:10275000C0B2014601900420FEF7DAFF17210520E0
:10276000FEF7D6FFB64800780A2190FBF1F0C0B220
:10277000014601900620FEF7CBFFB14800780A2100
:1027800090FBF1F201FB1200C0B20146019007205C
:10279000FEF7BEFF0121A548FEF7C8F8F0BB0020F8
:1027A0000C9006E00A98401CC0B20A900A20FFF77D
:1027B000D4F801219D48FEF7B9F810B90A986428A9
:1027C000F0DB00E0BFE00A98642831DB29E09A489A
:1027D0000078401C9849087008460078172801DDE9
:1027E000002008706420FFF7B8F8934800780A21A9
:1027F00090FBF1F0C0B2014601900020FEF788FF87
:102800008D4800780A2190FBF1F201FB1200C0B262
:10281000014601900120FEF77BFF00E015E0FDF787
:1028200063FE01218148FEF781F80028CFD00CE03B
:1028300081480078401C80490870084600781728B5
:1028400001DD00200870FDF74FFE02217748FEF7FA
:102850006DF8E0BB00200C9006E00A98401CC0B266
:102860000A900A20FFF779F802217048FEF75EF817
:1028700010B90A986428F0DB0A98642831DB29E053
:102880006D48007810B918206B4908706A480078C4
:10289000401E694908706420FFF75FF866480078B9
:1028A0000A2190FBF1F0C0B2014601900020FEF732
:1028B0002FFF614800780A2190FBF1F201FB120022
:1028C000C0B2014601900120FEF722FF00E015E0B2
:1028D000FDF70AFE02215548FEF728F80028CFD060
:1028E0000CE05548007810B9182053490870524838
:1028F0000078401E50490870FDF7F6FD04214B4852
:10290000FEF714F868B908204A49087001200790BA
:10291000FDF7EAFD00BF04214448FEF707F8002850
:10292000F9D008214148FEF701F860B9012041497A
:1029300008700790FDF75AFE00BF08213B48FDF7DD
:10294000F5FF0028F9D00E9808286ED10C98401C8D
:1029500080B20C900C98B0F52F7F18DA37480078C9
:102960000A2190FBF1F0C0B2014601900320FEF76E
:10297000CFFE324800780A2190FBF1F201FB1200F1
:10298000C0B2014601900420FEF7C2FE07E0142108
:102990000320FEF7BDFE14210420FEF7B9FE0C98BB
:1029A000B0F5AF6F01DD00200C90234800780A21BC
:1029B00090FBF1F0C0B2014601900020FEF7A8FEA6
:1029C0001D4800780A2190FBF1F201FB1200C0B211
:1029D000014601900120FEF79BFE17210220FEF721
:1029E00097FE17210520FEF793FE154800780A216F
:1029F00090FBF1F0C0B2014601900620FEF788FE80
:102A00000F4800780A2190FBF1F201FB1200C0B2DE
:102A1000014601900720FEF77BFE01210348FDF7E8
:102A200085FFE8BB00200C9013E0DAE000080140CD
:102A300003000020120000200400002005000020F8
:102A4000060000200A98401CC0B20A900A20FEF737
:102A500084FF0121FE48FDF769FF10B90A98642838
:102A6000F0DB0A98642831DB29E0FA480078401C42
:102A7000F8490870084600783B2801DD00200870FE
:102A80006420FEF76AFFF34800780A2190FBF1F01A
:102A9000C0B2014601900320FEF73AFEED4800E087
:102AA00021E000780A2190FBF1F201FB1200C0B294
:102AB000014601900420FEF72BFEFDF715FD0121D4
:102AC000E348FDF733FF0028CFD00CE0E148007861
:102AD000401CE0490870084600783B2801DD0020D2
:102AE0000870FDF701FD0221D948FDF71FFFE0BB8B
:102AF00000200C9006E00A98401CC0B20A900A2000
:102B0000FEF72BFF0221D248FDF710FF10B90A98FB
:102B10006428F0DB0A98642831DB29E0CD4800788E
:102B200010B93C20CB490870CA480078401EC949FA
:102B300008706420FEF711FFC64800780A2190FB58
:102B4000F1F0C0B2014601900320FEF7E1FDC1485B
:102B500000780A2190FBF1F201FB1200C0B201469D
:102B600001900420FEF7D4FD00E015E0FDF7BCFC69
:102B70000221B748FDF7DAFE0028CFD00CE0B548B7
:102B8000007810B93C20B3490870B2480078401E64
:102B9000B0490870FDF7A8FC0421AD48FDF7C6FE5A
:102BA00068B90920AC49087001200790FDF79CFC2A
:102BB00000BF0421A648FDF7B9FE0028F9D008217E
:102BC000A348FDF7B3FE60B90120A3490870079040
:102BD000FDF70CFD00BF08219D48FDF7A7FE00286A
:102BE000F9D00E9809286ED10C98401C80B20C9038
:102BF0000C98B0F52F7F18DA984800780A2190FBDE
:102C0000F1F0C0B2014601900620FEF781FD934825
:102C100000780A2190FBF1F201FB1200C0B20146DC
:102C200001900720FEF774FD07E014210620FEF74F
:102C30006FFD14210720FEF76BFD0C98B0F5AF6F08
:102C400001DD00200C90864800780A2190FBF1F00D
:102C5000C0B2014601900020FEF75AFD804800787E
:102C60000A2190FBF1F201FB1200C0B20146019073
:102C70000120FEF74DFD17210220FEF749FD7548A2
:102C800000780A2190FBF1F0C0B2014601900320C8
:102C9000FEF73EFD6F4800780A2190FBF1F201FB40
:102CA0001200C0B2014601900420FEF731FD172149
:102CB0000520FEF72DFD01216548FDF737FEE8BB35
:102CC00000200C9007E0D9E00A98401CC0B20A909E
:102CD0000A20FEF742FE01215D48FDF727FE10B9EC
:102CE0000A986428F0DB0A98642831DB29E05B4805
:102CF0000078401C59490870084600783B2801DDDF
:102D0000002008706420FEF728FE544800780A214D
:102D100090FBF1F0C0B2014601900620FEF7F8FCEE
:102D20004E4800780A2190FBF1F201FB1200C0B27C
:102D3000014601900720FEF7EBFC00E015E0FDF7EF
:102D4000D3FB01214248FDF7F1FD0028CFD00CE074
:102D500042480078401C41490870084600783B28EA
:102D600001DD00200870FDF7BFFB02213848FDF7A8
:102D7000DDFDE0BB00200C9006E00A98401CC0B2CC
:102D80000A900A20FEF7E9FD02213148FDF7CEFD49
:102D900010B90A986428F0DB0A98642831DB29E02E
:102DA0002E48007810B93C202C4908702B48007838
:102DB000401E2A4908706420FEF7CFFD274800789E
:102DC0000A2190FBF1F0C0B2014601900620FEF707
:102DD0009FFC224800780A2190FBF1F201FB1200CF
:102DE000C0B2014601900720FEF792FC00E015E01A
:102DF000FDF77AFB02211648FDF798FD0028CFD099
:102E00000CE01648007810B93C20144908701348AB
:102E10000078401E11490870FDF766FB04210C483C
:102E2000FDF784FD68B904200B4908700120079064
:102E3000FDF75AFB00BF04210548FDF777FD002888
:102E4000F9D008210248FDF771FDB8B9012009E069
:102E500000080140050000201200002006000020AC
:102E600004000020FC4908700790FDF7BFFB00BF7D
:102E70000821FA48FDF75AFD0028F9D00E980928D4
:102E80007DDD0E9814287ADA0C98401C80B20C90E4
:102E90000E980A3841000B9881424CD10C98B0F53D
:102EA0002F7F1ADA02A90B98085C0A2190FBF1F037
:102EB000C0B2014601900320FEF72AFC02A90B983C
:102EC000085C0A2190FBF1F201FB1200C0B201463E
:102ED00001900420FEF71CFC07E014210320FEF7FC
:102EE00017FC14210420FEF713FC0C98B0F5AF6F0B
:102EF00001DD00200C9017210520FEF709FC02A936
:102F00000B98401C085C0A2190FBF1F0C0B201460E
:102F100001900620FEF7FCFB02A90B98401C085C00
:102F20000A2190FBF1F201FB1200C0B201460190B0
:102F30000720FEF7EDFB0E980A384000401C0B9965
:102F400088424ED10C98B0F52F7F1CDA02A90B985D
:102F5000085C0A2190FBF1F0C0B201460190062006
:102F6000FEF7D6FB02A90B98085C0A2190FBF1F250
:102F700001FB1200C0B201460190072000E0BBE156
:102F8000FEF7C6FB07E014210620FEF7C1FB142163
:102F90000720FEF7BDFB0C98B0F5AF6F01DD0020F8
:102FA0000C900B98401E02A9085C0A2190FBF1F0DE
:102FB000C0B2014601900320FEF7AAFB0B98401E09
:102FC00002A9085C0A2190FBF1F201FB1200C0B2D9
:102FD000014601900420FEF79BFB17210520FEF718
:102FE00097FB01219D48FDF7A1FCE0BB00200C9060
:102FF00006E00A98401CC0B20A900A20FEF7ADFC19
:1030000001219648FDF792FC10B90A986428F0DB7C
:103010000A98642862DB5AE002A90B98085C401CFD
:10302000C1B202AA0B9811540E980A3841000B98AD
:10303000814224D102A90B98085C172802DD0021E7
:103040000B98115402A90B98085C0A2190FBF1F02F
:10305000C0B2014601900320FEF75AFB02A90B986B
:10306000085C0A2100E05BE090FBF1F201FB12003A
:10307000C0B2014601900420FEF74AFB22E002A9FB
:103080000B98085C3B2803DD002102AA0B98115421
:1030900002A90B98085C0A2190FBF1F0C0B201462E
:1030A00001900620FEF734FB02A90B98085C0A2168
:1030B00090FBF1F201FB1200C0B201460190072023
:1030C000FEF726FB6420FEF748FCFDF70DFA012110
:1030D0006248FDF72BFC00289ED021E002A90B9846
:1030E000085C401CC1B202AA0B9811540E980A3811
:1030F00041000B98814208D102A90B98085C17285F
:103100000CDD00210B98115408E002A90B98085C13
:103110003B2803DD002102AA0B981154FDF7E4F9C6
:1031200002214E48FDF702FCF0BB00200C9006E0A7
:103130000A98401CC0B20A900A20FEF70EFC022139
:103140004648FDF7F3FB10B90A986428F0DB0A98AB
:10315000642869DB61E00E980A3841000B988142CF
:103160002CD102A90B98085C18B9182102AA0B9857
:10317000115402A90B98085C401EC1B202AA0B9818
:10318000115402A90B98085C0A2190FBF1F0C0B21F
:10319000014601900320FEF7BBFA02A90B98085CD8
:1031A0000A2190FBF1F200E06CE001FB1200C0B2DA
:1031B000014601900420FEF7ABFA29E002A90B9822
:1031C000085C18B93C2102AA0B98115402A90B986B
:1031D000085C401EC1B202AA0B98115402A90B98B8
:1031E000085C0A2190FBF1F0C0B201460190062074
:1031F000FEF78EFA02A90B98085C0A2190FBF1F207
:1032000001FB1200C0B2014601900720FEF780FAD0
:103210006420FEF7A2FBFDF767F902210F48FDF7D6
:1032200085FB002897D02DE00E980A3841000B98B6
:10323000814215D102A90B98085C18B9182102AA7D
:103240000B98115402A90B98085C401EC1B202AA47
:103250000B98115414E000001200002000080140F7
:1032600002A90B98085C18B93C2102AA0B981154CA
:1032700002A90B98085C401EC1B202AA0B98115417
:10328000FDF732F904211E48FDF750FBE8B90E980E
:103290000A3841000B98814206D10E980A38400046
:1032A000401CC0B20B9004E00E980A384006000E95
:1032B0000B9002A8FDF7CAF8FDF716F900BF04212C
:1032C0000F48FDF733FB0028F9D008210C48FDF723
:1032D0002DFB88B900200C900B9001200949087043
:1032E00002A8FDF7B3F8FDF781F900BF08210448F3
:1032F000FDF71CFB0028F9D000BFFEF7C7BB00009C
:103300000008014012000020000303060104060229
:10331000050003051F1C1F1E1F1E1F1F1E1F1E1F33
:1033200040330008000000202800000028010008A9
:103330006833000828000020280700004401000826
:10334000000000000000000000000000000000007D
:103350000000000000000001020304010203040653
:08336000070809020406080039
:04000005080000ED02
:00000001FF
